:04000000A4EF32F047
:08000800046ED8CF05F0E0CF33
:1000100006F00001E9CF0CF0EACF07F0E1CF08F0DD
:10002000E2CF09F0D9CF0AF0DACF0BF0F3CF12F01C
:10003000F4CF13F0FACF14F000C00EF001C00FF0AF
:1000400002C010F003C011F0F2AA2AEF00F0F2B4DF
:1000500058EF00F00EC000F00FC001F010C002F029
:1000600011C003F00CC0E9FF07C0EAFF078E08C00B
:10007000E1FF09C0E2FF0AC0D9FF0BC0DAFF12C0DE
:10008000F3FF13C0F4FF14C0FAFF045006C0E0FFF2
:1000900005C0D8FF1000F2A409D0010E7026D8B018
:1000A000712AD8B4722AD8B4732AF29459EF00F0A6
:1000B000F2D72AEF00F00C576562736572766572AD
:1000C0000A0D4E6F204D4143204C696E6B000C575A
:1000D00065627365727665720A0D44484350204E1E
:1000E0006F7420426F756E6400000C576562736513
:1000F000727665722049646C650A0D25752E25752A
:100100002E25752E257500000C436F6E6E65637489
:10011000656420746F0A0D25752E25752E25752EA4
:10012000257500000D0A485454503A204C697374E8
:10013000656E696E67000D0A485454503A20436F4B
:100140006E6E6563746564000D0A485454503A201D
:10015000476F7420506167652052657175657374CF
:1001600000000D0A485454503A2050757474696E5A
:1001700067205061676520526573706F6E7365000C
:100180003C48544D4C3E3C484541443E3C54495407
:100190004C453E5049434E45543C2F5449544C45E0
:1001A0003E3C2F484541443E3C424F44593E3C482A
:1001B000313E48454C4C4F3C2F48313E00003C50AE
:1001C0003E2573203D20307825580000414E3000F8
:1001D0003C2F424F44593E3C2F48544D4C3E00006A
:1001E000485454502F312E3120323030204F4B0D97
:1001F0000A00436F6E74656E742D547970653A20F1
:10020000746578742F68746D6C0D0A00436F6E749A
:10021000656E742D4C656E6774683A2025750D0AFD
:1002200000000D0A485454503A20466C75736869B2
:100230006E672E2E2E000D0A485454503A20466CFC
:1002400075736865642100000D0A485454503A20C3
:10025000466F72636520446973636F6E6E65637485
:1002600000000D0A0A434353205443502F495020A5
:100270005455544F5249414C2C204558414D504CF7
:100280004520313420284854545020534552564577
:1002900052290D0A00000C496E6974205374616381
:1002A0006B2E2E2E0000C050C00B0709C06EC09EE2
:1002B000C280C150C00B0E09C16E000E016EC2504B
:1002C000C30B0110C26E070EB46E9250926E200ED8
:1002D000006E002EFED700D00000B450A19C929A70
:1002E0009398939A929A898A93988A88939A8A8AF9
:1002F000A7EF01F0566A020E576E030E586E040EF9
:10030000596E050E5A6E070E5B6EA8EF01F0C00E17
:10031000296EA80E2A6E640E2B6E070E2C6EC00E70
:10032000316EA80E326E640E336E010E346E2D687F
:100330002E682F68306AA9EF01F0D76AD66AF19467
:10034000F294F28A870ED56EAAEF01F0ACD7D2D71D
:10035000DED7F3D7C00EF21217EF33F00900F552D3
:100360000DE0F6CF68F2F7CF69F2F5509EA8FED700
:10037000AD6E68C2F6FF69C2F7FFF0D71200010E3A
:10038000EA6E710EE96EEF500EE00C0E016E006A1F
:10039000002EFED7012EFBD7F70E006E002EFED7E3
:1003A00000D0EF2EF2D71200010178B102D08C9864
:1003B00001D08C88959878B302D08C9A01D08C8A21
:1003C000959A78B502D08C9C01D08C8C959C78B78E
:1003D00002D08C9E01D08C8E959E00008D849694C8
:1003E000060E006E002EFED700008D94969400013C
:1003F00012000101796B9588000E83B8010E791304
:10040000958A000E83BA010E006ED8900036005017
:100410007913958C000E83BC010E006E00360036F9
:10042000FC0E001600507913958E000E83BE010E4F
:10043000006E003600360036F80E001600507913B4
:1004400079C101F0000112009588958A958C958EEE
:100450008D82969200008D8496940000CADF01C0C0
:1004600078F18D94969400008D849694020E006E1F
:10047000002EFED700D00000BCDF01C077F18D94C4
:1004800096949598959A959C959E01017839006E61
:10049000F00E001600507711016E000156EF02F0C9
:1004A0009694969096928D909690CED701C077F1C3
:1004B000010101AE02D00001F8D7755302E18D9021
:1004C00001D08D80969000008D92969200008D94C0
:1004D00096947639776F0F0E771777C178F1000110
:1004E00063DF010176510F0B776F786F00015CDFDE
:1004F0001200280E01016D6F0C0E6E6F010E6F6FF2
:10050000060E706F8D9496948D9096908D92969223
:100510009598959A959C959E9694969096920F0E86
:10052000716F00012CDF010E01016C6F6C5103082B
:100530000CE3030E786F000137DF050E0101716FC8
:1005400000011DDF01016C2BF1D7020E786F000155
:100550002BDF050E0101716F000111DF01016C6BD2
:100560006C51030811E3036A6C516D0FE96E010EC3
:100570000320EA6EEFCF71F1756B71C176F1000166
:100580008FDF01016C2BECD7176A186A00011FEF8F
:1005900033F00101722D01D003D0400E736F01D0F2
:1005A000736B010E715D732773518009746F756BE6
:1005B000766F000175DF010E0101715D176E010E8E
:1005C000725D186E0001120001016F51070A0001EF
:1005D00009E00B0A0EE0010A1AE0070A23E0020A0A
:1005E00038E03ED0010E0101716F726F0001D1DF62
:1005F00042D00101756B010E766F000151DF020ED2
:100600000101716F0001BBDE176A186A34D0010E58
:1006100018240101706F010E716F70C172F1000139
:10062000B8DF29D01750172A130808E3010E01017B
:10063000756F200E766F000133DFF4D7020E182499
:100640000101706F010E716F70C172F10001A1DFC5
:1006500012D00101756B100E766F000121DF0BD0F7
:100660001750130808E3010E0101756F6FC176F191
:10067000000116DF172A12000900F5520CE0F6CF30
:100680006CF1F7CF6DF1F5CF6FF19EDF6CC1F6FF26
:100690006DC1F7FFF1D7120002016D6B6D510E08AD
:1006A00032E3D8906B30726F6A30716F6930706F5F
:1006B00068306F6F6850010B006E016A026A036A4E
:1006C000000ED8800054736F000E0154746F000E3A
:1006D0000254756F000E0354766F7351010B006E58
:1006E000016A026A7651D00B036E00506F19686E72
:1006F00001507019696E025071196A6E03507219B7
:100700006B6E6D2BCBD768C001F069C002F00001A1
:1007100012006BC094F16AC093F169C092F168C095
:1007200091F101018D530BE18E5309E18F5307E1E4
:10073000905305E1906B8F6B8E6B010E8D6F90C1A6
:100740006BF08FC16AF08EC169F08DC168F0956B56
:1007500095510F0805E300019FDF0101952BF8D7A4
:1007600091C100F092C101F093C102F094C103F075
:1007700000011200C2CF86F1C0CF87F1D5CF88F13A
:10078000D6CF8AF1D7CF89F1010EC26E3F0EC06E6F
:10079000880ED56E0101776B816B806B7F6B7E6BF2
:1007A0007D6B7C6B000178DF0101856B846B02C07F
:1007B00083F101C082F1D76AD66AC2820400C2B254
:1007C000FED7D6CF7AF1D7CF7BF1000165DF02C02B
:1007D00079F101C078F101017A517E277B517F23A5
:1007E000000E8023812381530DE18051970819E287
:1007F000FF0A08E17F51950814E2FF0A03E17E51E8
:100800007F080FE2000148DF01500101821B025006
:10081000831B000141DF01500101841B0250851B35
:1008200037D07A517C5D04E17B517D5D01E1C3D716
:100830007A517C5D006E7B517D59036E00507825A6
:100840008B6F035079218C6F906B8F6B8E6F8BC188
:100850008DF100015EDF7BC17DF17AC17CF1D89022
:1008600001018237833784378537000115DF02C0E5
:100870008CF101C08BF101010150800B006E036A05
:100880000050031001E08281772B01E101D093D762
:1008900086C1C2FF87C1C0FF89C1D7FF8AC1D6FF09
:1008A00088C1D5FF82C100F083C101F084C102F08C
:1008B00085C103F0000112008C929E960201B65190
:1008C000A009C96E9EA6FED79E96C9CFB8F2B7C240
:1008D000C9FF9EA6FED79E96C9CFB8F28C820001B2
:1008E00012001E0E0201B66F200EB76F0001E4DF8A
:1008F000010E0101716F000142DD8C929E96C96864
:100900009EA6FED79E96C9CF6DF18C82010E010185
:10091000716F000134DD6FEF05F08C929E9602013D
:10092000BCC2C9FF9EA6FED79E96C9CFBDF2C96ABA
:100930009EA6FED79E96C9CFBDF28C82BDC201F0A5
:10094000000112008C929E960201C1514009C96EAD
:100950009EA6FED79E96C9CFC3F2C2C2C9FF9EA66D
:10096000FED79E96C9CFC3F28C82000112008C92F2
:100970009E967A0EC96E9EA6FED79E96C9CFC0F2ED
:10098000BFC2C9FF9EA6FED79E96C9CFC0F28C8279
:1009900012008C929E960201B6518009C96E9EA6E5
:1009A000FED79E96C9CFB8F2B7C2C9FF9EA6FED7A2
:1009B0009E96C9CFB8F28C82000112001F0E020170
:1009C000B66F030EB76F000177DF020E0201A36F4F
:1009D000A00EA26F010EA225E96E000EA321EA6E01
:1009E000EFCFA4F21F0EB66FA4C2B7F20001D1DFA1
:1009F00012008C929E96010170C1C9FF9EA6FED77F
:100A00009E96C9CF71F1C96A9EA6FED79E96C9CFA0
:100A100071F1C96A9EA6FED79E96C9CF71F18C82EC
:100A200071C101F000011200020E0201A16F140E4B
:100A3000A06F0001C3DF140E0201C16F6DC1C2F2CD
:100A4000000180DF010E0101716F6E0E706FE96EA3
:100A500071C1EAFFEFCF72F1160E0201C16F72C1D0
:100A6000C2F200016FDF010E0101716F6E0E706F37
:100A7000010E7025E96E000E7121EA6EEFCF72F162
:100A8000170E0201C16F72C1C2F200015BDF030EDB
:100A90000201A16F0A0EA06F000190DF0A0E010192
:100AA000706F0001A6DF01C070F1000E010101B0FE
:100AB000010E000AD8B402D00001F0D70201A16BE8
:100AC000A06B00017BDF12008C8295929496949A21
:100AD00094889E96200EC66EC78CC79E02D71D0EA8
:100AE0000201BC6F000119DF01C06CF101016CA7AC
:100AF00002D00001F3D76C51FF0A010BD8B402D029
:100B00000001ECD767827B6A7A6A080E0201C16F26
:100B1000C26B000117DF090E0201C16FC26B000139
:100B200011DF0C0E0201C16F090EC26F00010ADF56
:100B30000D0E0201C16F150EC26F000103DF0A0E18
:100B40000201C16F090EC26F0001FCDE0B0E020133
:100B5000C16F150EC26F0001F5DE040E0201C16FF8
:100B60000A0EC26F0001EEDE050E0201C16F150E06
:100B7000C26F0001E7DE020E0201C16F0A0EC26FF2
:100B80000001E0DE030E0201C16F150EC26F00010D
:100B9000D9DE0201BF6B0001EADE020E0201A16F85
:100BA000A06B00010BDF0201C16B0D0EC26F0001D3
:100BB000C9DE020E0201C16F320EC26F0001C2DE39
:100BC000040E0201C16F120EC26F0001BBDE030EE4
:100BD0000201C16F400EC26F0001B4DE090E0201B6
:100BE000C16F3F0EC26F0001ADDE060E0201C16F84
:100BF000120EC26F0001A6DE070E0201C16F0C0EBD
:100C0000C26F00019FDE0A0E0201C16FEE0EC26FBD
:100C1000000198DE0B0E0201C16F050EC26F0001CC
:100C200091DE030E0201A16F040EA06F0001C6DE6B
:100C3000040E0201C16F56C0C2F2000183DE050E30
:100C40000201C16F57C0C2F200017CDE020E020138
:100C5000C16F58C0C2F2000175DE030E0201C16F00
:100C600059C0C2F200016EDE0201C16B5AC0C2F26D
:100C7000000168DE010E0201C16F5BC0C2F200011B
:100C800061DE150E0201C16FC26B00015BDE120E48
:100C90000201BC6F000141DE01C07EF0100E0101B7
:100CA0006D6F010E6F6F6E6B0001BEDE140E0101E1
:100CB0006D6F340E6F6F720E6E6F0001B5DE010145
:100CC0006D6B6F6B6E6B0001AFDE0201A16BA06BF1
:100CD000000174DE1F0E0201B66F040EB76F000133
:100CE00058DE41EF0BF086698769886989698A69EE
:100CF0008B69856984698369826943EF0BF00166BA
:100D000003D0026602D007D0022A00C0EEFF012EF7
:100D1000FCD7022EFAD77AEF0AF0020173510001D4
:100D2000DB5D01E149D0DB51FE081EE0DB511C0D0B
:100D3000F350036A980F016E000E032201C074F293
:100D4000020103C075F2010E776F180E03C0EAFFAF
:100D500001C0E9FF77C2E2FFE16E1C0E016EE6CF33
:100D6000EEFF012EFCD7000173C2DBF002017351CC
:100D7000FE0803E1000120D00201010E756F180E7C
:100D8000746F73511C0DF350036A980F016E000EBF
:100D9000032201C076F203C077F275C2EAFF74C283
:100DA000E9FF03C0E2FF01C0E1FF1C0E016EE6CFC8
:100DB000EEFF012EFCD700011200020E0201BC6FF3
:100DC0000001ABDD01C0ADF2030E0201BC6F0001FA
:100DD000A4DD01C0AEF2020E0201B06FAB0EAF6F28
:100DE000E96EB0C2EAFFEFCFB1F2020EC16FB1C23D
:100DF000C2F20001A7DD020E0201B06FAB0EAF6FB1
:100E0000010EAF25E96E000EB021EA6EEFCFB1F210
:100E1000030EC16FB1C2C2F2000194DD0201ADC286
:100E200001F0AEC202F0000112008C929E967A0E82
:100E3000C96E9EA6FED79E96C9CFC4F20201C251CA
:100E4000C31113E0C0C2E9FFC1C2EAFFEFCFC9FF7F
:100E5000C02BD8B4C12BC251D8B4C307C2079EA6B9
:100E6000FED79E96C9CFC4F2EAD78C820001120049
:100E70000201BC6B000151DD01C0ADF2010E0201A7
:100E8000BC6F00014ADD01C0AEF2020E0201B06F7C
:100E9000AB0EAF6FE96EB0C2EAFFEFCFB1F2C16B3C
:100EA000B1C2C2F200014EDD020E0201B06FAB0E04
:100EB000AF6F010EAF25E96E000EB021EA6EEFCFE5
:100EC000B1F2010EC16FB1C2C2F200013BDD0201FD
:100ED000ADC201F0AEC202F0000112008C929E96EB
:100EE0003A0EC96E0201C36BC26BBE51BF1104E062
:100EF000BE51D8B4BF07BE079EA6FED79E96C9CFE7
:100F0000C4F2C351C15D1EE303E1C051C25D1AE2E8
:100F1000C96AC22BD8B4C32BBE51BF110DE0BE2B82
:100F2000D8B4BF2B9EA6FED79E96BEC2E9FFBFC215
:100F3000EAFFC9CFEFFF05D09EA6FED79E96C9CF88
:100F4000C4F2DFD78C82C2C201F0C3C202F000013A
:100F500012008C929E963A0EC96E9EA6FED79E9661
:100F6000C9CFB6F2C96A9EA6FED79E96C9CFB6F281
:100F70008C820201B6C201F0000112000201B5919B
:100F8000B593AB3D12D0AC3D10D0B581020EBC6F15
:100F90000001C3DC0201AC6B01C0ABF2030EBC6FFD
:100FA0000001BBDC01C0ACF20201AD3D11D0AE3D91
:100FB0000FD0B583BC6B0001B0DC0201AE6B01C089
:100FC000ADF2010EBC6F0001A8DC01C0AEF202015F
:100FD000B053D8A46FD0AF510108D8A06BD0B5B32F
:100FE0000DD0BC6B000199DC01C0B1F2010E020111
:100FF000BC6F000192DC01C0B2F20201B5B10ED0AB
:10100000020EBC6F000189DC01C0B3F2030E0201C5
:10101000BC6F000182DC01C0B4F20201C16BADC241
:10102000C2F200018FDC010E0201C16FAEC2C2F23A
:10103000000188DC020E0201C16FABC2C2F20001E6
:1010400081DC030E0201C16FACC2C2F200017ADC86
:101050000201B0C203F0AF51D8B4B007AF0703101C
:1010600009E0000176DF01C0B6F201C0BFF27FDC0B
:10107000EFD70201B5B30DD0C16BB1C2C2F200010E
:1010800061DC010E0201C16FB2C2C2F200015ADC82
:101090000201B5B10ED0020EC16FB3C2C2F200019F
:1010A00051DC030E0201C16FB4C2C2F200014ADC7E
:1010B0000201A2D0B5A114D0AF51AB25B36FB0518E
:1010C000AC21B46F020EC16FB3C2C2F200013ADCB0
:1010D000030E0201C16FB4C2C2F2000133DC02018F
:1010E000010EAD5D006E000EAE59036E0050AF27CD
:1010F0000350B0231F0EBC6F00010FDC01C0B6F21D
:10110000000E020101BA010E000AF4E1100EC16FD7
:10111000ADC2C2F2000116DC110E0201C16FAEC2F7
:10112000C2F200010FDC140E0201C16FABC2C2F2A9
:10113000000108DC150E0201C16FACC2C2F2000151
:1011400001DC0201AE51150810E303E1AD510908BD
:101150000CE3B051140809E2FF0A03E1AF5109089A
:1011600004E20A0EAF5F150EB05B120EC16FAFC284
:10117000C2F20001A2EC04F0130E0201C16FB0C272
:10118000C2F20001A2EC04F01F0E0201B66F100EB5
:10119000B76F00015CEC04F01F0E0201B66F200E69
:1011A000B76F0001C9EC04F00201B5A325D0AF2B45
:1011B000D8B4B02BAE51150810E303E1AD510908C6
:1011C0000CE3B051140809E2FF0A03E1AF5109082A
:1011D00004E20A0EAF5F150EB05BC16BAFC2C2F284
:1011E0000001A2EC04F0010E0201C16FB0C2C2F214
:1011F0000001A2EC04F00201000112001F0E020126
:10120000BC6F00018DEC04F001C0ABF2000E0201D6
:1012100001BA010E000A02E0000E01D0010E016EBB
:10122000000112000201A851010A000103E0010AB5
:101230003AE06AD00201A551010A000103E0010A67
:101240001AE030D0A4C2EAFFA3C2E9FFA7C2E2FFBE
:10125000A6C2E1FFAAC202F0A9C201F0015202E057
:10126000022A02D0025206E0E6CFEEFF012EFCD7A2
:10127000022EFAD717D00201A33D03D0A43D01D01E
:1012800007D0A4C2ACF2A3C2ABF2000196DD02010A
:10129000A7C2C1F2A6C2C0F2AAC2C3F2A9C2C2F2D8
:1012A0000001C3DD31D00201A551010A000103E0B4
:1012B000010A19E028D00201A63D03D0A73D01D0C4
:1012C00007D0A7C2ACF2A6C2ABF20001D1DD020189
:1012D000A4C2BFF2A3C2BEF2AAC2C1F2A9C2C0F2A6
:1012E0000001FCDD10D0A4C2ACF2A3C2ABF2A7C2D5
:1012F000AEF2A6C2ADF2AAC2B0F2A9C2AFF23EDE11
:101300007DDF0152FDE000D01200DB510101345DB0
:1013100001E163D03451FE083EE034511C0DF3501E
:1013200002019D6B9C6F980E9C25E96E000E9D211D
:10133000EA6EECCF9FF2ED52EFCF9EF2270E9E5F4A
:10134000000E9F5B010134511C0DF3500201A16B93
:10135000A06F1B0EA025016E000EA121036E01508F
:10136000980FE96E000E0320EA6EEFCFA0F2A26B99
:10137000B40EA16F9FC2A4F29EC2A3F2A0C2A5F2B6
:10138000A2C2A7F2A66F010EA86FAA6B270EA96FC3
:10139000000148DF0101DBC034F102019D6BB40E96
:1013A0009C6F270E0101185D02019E6F000E010166
:1013B000195902019F6F9DC2A4F29CC2A3F2010EB3
:1013C000A56F9FC2A7F29EC2A6F233C1A8F2AA6B74
:1013D000270EA96F000126DF01010001120095DF31
:1013E000C5C032F1C4C031F119C11FF118C11EF1DD
:1013F00019C121F118C120F11BC123F11AC122F139
:101400001BC125F11AC124F101012FA702D0040E3E
:1014100001D00D0E2E6FF80E2F152F6F2F992F9BC9
:101420002F9D2F9F30913093309530973089000158
:10143000D691D693D697D69919C1C1F018C1C0F0EC
:1014400002016A6BB80E696F016E6AC203F06B6FBE
:101450006AC26CF200014CEC03F06CC2EAFF6BC292
:10146000E9FF02C0ECFFED5201C0EFFF02016A6B21
:10147000B80E696F020E6925016E000E6A21036EB7
:1014800001C06BF26C6F00014CEC03F06CC2EAFF20
:101490006BC2E9FF02C0ECFFED5201C0EFFFD5695E
:1014A000D469C76B010EC66F12001A0E0101766F68
:1014B000FC0E756F0001965310E197530EE1BAECE4
:1014C00003F001C078F1070E0101781700C096F013
:1014D000040E010178250001976F0101786BDC0E85
:1014E000776F78C1EAFFE96E006A026A3C0E016E0E
:1014F000000105D401016D6B6C6B6C53D8A4A4D0B2
:101500006CC173F2000109DC01016C51060DF3504E
:10151000786B776F010E7725016E000E7821036ED0
:101520000150230FE96E000E0320EA6EEFCF74F135
:101530006C51060DF350786B776F020E7725016EB4
:10154000000E7821036E0150230FE96E000E032078
:10155000EA6EECCF6FF1ED52EFCF6EF16C51060DEC
:10156000F350786B776F040E7725016E000E7821AB
:10157000036E0150230FE96E000E0320EA6EECCFDC
:1015800071F1ED52EFCF70F17451000A000101E0EA
:1015900027D076C173F175C172F1270E01016E2556
:1015A000776F000E6F21786F010E7727000E78237A
:1015B0007051772771517823010E7725016E000E47
:1015C0007821036E015075270350762376511E084B
:1015D00005E2FF0AFBE17551FC08F8E303D00001C6
:1015E000FFD7010174C133F1270E7225186F000E69
:1015F0007321196F6E511825776F6F511921786F0C
:10160000010E77251A6F000E78211B6F70511A2575
:101610001C6F71511B211D6F0D0E2E6F2F97000136
:1016200074DE01016C51060DF350786B776F230E59
:101630007725E96E000E7821EA6EEFCFDAF000012F
:10164000CEDE01016C2B59D7000144EF0BF05C6A30
:1016500067B015D0BAEC03F003C06FF102C06EF1B1
:1016600001C06DF100C06CF103C090F102C08FF1B8
:1016700001C08EF100C08DF189EC03F0678064EF4A
:1016800005F073EF06F011D727EF33F0020E0201D9
:10169000A16F140EA06F0001DEEC04F0140E020125
:1016A000C16F6CC1C2F20001A2EC04F0120E020183
:1016B000C16F010EC26F0001A2EC04F0030E020123
:1016C000A16F0A0EA06F0001DEEC04F00A0E01010A
:1016D000706F0001F9EC04F001C06FF1000E010120
:1016E00001B0010E000AD8B402D00001EFD7020EFB
:1016F0000201A16F140EA06F0001DEEC04F0120EC7
:101700000201C16FC26B0001A2EC04F0180E0101CE
:10171000706F0001F9EC04F001C06DF1190E0101C8
:10172000706F0001F9EC04F001C06EF10201A16BD1
:10173000A06B0001DEEC04F001016DC101F06EC18F
:1017400002F00001A9EF0BF0010E01016C6F000126
:101750009DD701C06CF1000E010101B4010E016EB4
:10176000000112000900F6CF6DF1F7CF6EF1F5CF51
:101770006FF1E4EC02F06DC1F6FF6EC1F7FF0101FD
:101780006C2F01D002D00001EDD700011200020140
:101790006C51016A6B5D03E26BC200F00CD0006A11
:1017A000080E6D6F6B3700366C51005CD8B0006E60
:1017B00001366D2FF7D70001120001506CC16BF29A
:1017C000640E02016C6F0001E2DF00C06CF1015099
:1017D000300E08E101016DA30FD06DB70DD06DB9CA
:1017E000200E04D001016D976D996D81012601C015
:1017F0006FF10001E4EC02F06CC16BF20A0E020121
:101800006C6F0001C4DF00C06CF10150300E08E1C4
:1018100001016DB70BD06DA109D06DB9200E00018B
:10182000012601C06FF1E4EC02F00101300E6C27DB
:101830006CC16FF10001E4EC02F01200020168518A
:10184000000803E2000E016E0ED068C273F20001C0
:101850008DEC06F001012E51070802E0000E01D0C8
:10186000010E016E02010001120001016451FA0F24
:10187000D8B0B9D0060F0001F6EF0CF0B60EF66E38
:10188000000EF76E3CEC03F0010E0101646F929ABA
:10189000898AA9D059DF015204E0030E0101646F67
:1018A00000010101A0D0EA0EF66E000EF76E110ED7
:1018B00001016C6F000156DF29C06CF11B0E0101A4
:1018C0006D6F00017ADF2E0E01016F6F0001E4ECF5
:1018D00002F02AC06CF11B0E01016D6F00016DDF7B
:1018E0002E0E01016F6F0001E4EC02F02BC06CF1D1
:1018F0001B0E01016D6F000160DF2E0E01016F6F85
:101900000001E4EC02F02CC06CF11B0E01016D6FC4
:10191000000153DF040E0101646F65D015DF015231
:1019200003E10101646B000101016351FE0848E01D
:1019300063C168F2000182DF0152D8A402D0010124
:101940003FD063C173F28DEC06F0DFDC080EF66E5B
:10195000010EF76E0F0E01016C6F000103DFCAC0AC
:101960006CF11B0E01016D6F000127DF2E0E0101CE
:101970006F6F0001E4EC02F0CBC06CF11B0E0101B3
:101980006D6F00011ADF2E0E01016F6F0001E4EC94
:1019900002F0CCC06CF11B0E01016D6F00010DDF78
:1019A0002E0E01016F6F0001E4EC02F0CDC06CF16E
:1019B0001B0E01016D6F000100DF050E0101646F58
:1019C00012D0C2DE015203E10101646B000163C168
:1019D00068F234DF015204E1030E0101646F00017B
:1019E000010101D0010100012AEF33F0F2CF0DF027
:1019F000F29EE824F76AF736110FF66E1A0EF722F8
:101A00000A00F550FA6E0800F5500DBEF28EF96E20
:101A10007C189418E419A6181C19C2191F0E02018B
:101A2000BC6F00018DEC04F001C09CF2000E0201BD
:101A300001B6010E000A02E0000E01D0010E016E97
:101A400000011200F28A0000F29AD6CF74F0D7CFCC
:101A500075F002019D6B760EE96E9DC2EAFF70C0C3
:101A6000EFFF71C0ECFF72C0ECFF73C0ECFFF2A49B
:101A700002D00001E7D7F28A00011200E3DF75C04F
:101A800071F276C072F277C073F278C074F271C2EC
:101A900000F072C201F073C202F074C203F01200CF
:101AA0000101A951AB03F3CF01F0F4CF00F0AC0377
:101AB000F3500026AA51AB03F3500020026E000140
:101AC0001200C0DF02019D6B740E9DC203F0E96E2F
:101AD0009DC2EAFFEFCF00F0ECCF01F0ECCF02F0B7
:101AE000ECCF03F000011200010E0201A16F190EEC
:101AF000A06F0001DEEC04F0190E0201BC6F0001C2
:101B00008DEC04F001C09CF20201A16B0E0EA06FDF
:101B10000001DEEC04F00E0E0201BC6F00018DEC42
:101B200004F001C09EF20F0E0201BC6F00018DECAB
:101B300004F001C09FF2010E0201A16F190EA06F07
:101B40000001DEEC04F0190E0201BC6F00018DEC07
:101B500004F001C0A0F202019C51015CD8B402D093
:101B60000001CAD7A16B0C0EA06F0001DEEC04F0DF
:101B70000C0E0201BC6F00018DEC04F001C09CF260
:101B80000D0E0201BC6F00018DEC04F001C09DF24E
:101B900002019D519F5D16E303E19E519C5D12E29F
:101BA0009C519E5D006E9D519F59036E0050FF0A2F
:101BB0000A0F006E150E035600C001F003C002F0BC
:101BC0001CD01BD09C519E5D09E19D519F5D06E19B
:101BD000090E016E150E026E10D00FD09E519C5D45
:101BE000A06F9F519D59A16F010EA05D006E000E68
:101BF000A159036E00C001F0026E0001A6EF15F0BE
:101C0000BCC2BEF2BBC2BDF2BEC2BFF2BDC2BEF21A
:101C1000BFC2BDF20201BDC201F0BEC202F00001AE
:101C20001200020E0201A96FA40E016EA9C2EAFF02
:101C3000E96EEFCFACF2020EAE6FA40EAD6F030EE5
:101C4000AD25E96E000EAE21EA6EEF50AC19A9C2C7
:101C5000EAFF01C0E9FFEF6E020EA96FA40EA86FA4
:101C6000030EA825016E000EA921036EEA6E01C0C5
:101C7000E9FFEFCFACF2020EAE6FA40EE96EAEC27A
:101C8000EAFFEF50AC1903C0EAFF01C0E9FFEF6EB5
:101C9000020EA96FA40E016EA9C2EAFFE96EEFCF92
:101CA000ACF2020EAE6FA40EAD6F030EAD25E96E61
:101CB000000EAE21EA6EEF50AC19A9C2EAFF01C0D6
:101CC000E9FFEF6E020EA96FA40EA86F010EA82502
:101CD000016E000EA921036EEA6E01C0E9FFEFCF8D
:101CE000ACF2020EAE6FA40EAD6F020EAD25E96E22
:101CF000000EAE21EA6EEF50AC1903C0EAFF01C03E
:101D0000E9FFEF6E020EA96FA40EA86F020EA825C0
:101D1000016E000EA921036EEA6E01C0E9FFEFCF4C
:101D2000ACF2020EAE6FA40EAD6F010EAD25E96EE2
:101D3000000EAE21EA6EEF50AC1903C0EAFF01C0FD
:101D4000E9FFEF6E020EA96FA40EA86F010EA82581
:101D5000016E000EA921036EEA6E01C0E9FFEFCF0C
:101D6000ACF2020EAE6FA40EAD6F020EAD25E96EA1
:101D7000000EAE21EA6EEF50AC1903C0EAFF01C0BD
:101D8000E9FFEF6EA4C200F0A5C201F0A6C202F006
:101D9000A7C203F00001120002019CC201F09DC223
:101DA00003F09CC29EF29DC29FF29CC2E9FF9DC2BD
:101DB000EAFFECCFA1F2ED52EFCFA0F2A1C2BCF24C
:101DC000A0C2BBF200011CDF9FC2EAFF9EC2E9FF76
:101DD00002C0ECFFED5201C0EFFF020E02019C2594
:101DE000016E000E9D21036E01C09EF29F6F020ED8
:101DF0009C25E96E000E9D21EA6EECCFA1F2ED521A
:101E0000EFCFA0F2A1C2BCF2A0C2BBF20001F8DE8B
:101E10009FC2EAFF9EC2E9FF02C0ECFFED5201C083
:101E2000EFFF040E02019C25016E000E9D21036E42
:101E300001C09EF29F6F040E9C25E96E000E9D214D
:101E4000EA6EEFCFA0F2ECCFA1F2ECCFA2F2ECCF92
:101E5000A3F2A3C2A7F2A2C2A6F2A1C2A5F2A0C297
:101E6000A4F20001DEDE9FC2EAFF9EC2E9FF00C0CD
:101E7000EFFF01C0ECFF02C0ECFF03C0ECFF080E57
:101E800002019C25016E000E9D21036E01C09EF291
:101E90009F6F080E9C25E96E000E9D21EA6EEFCF24
:101EA000A0F2ECCFA1F2ECCFA2F2ECCFA3F2A3C24E
:101EB000A7F2A2C2A6F2A1C2A5F2A0C2A4F200019A
:101EC000B0DE9FC2EAFF9EC2E9FF00C0EFFF01C083
:101ED000ECFF02C0ECFF03C0ECFF0E0E02019C25DC
:101EE000016E000E9D21036E01C09EF29F6F0E0ECB
:101EF0009C25E96E000E9D21EA6EECCFA1F2ED5219
:101F0000EFCFA0F2A1C2BCF2A0C2BBF2000178DE0A
:101F10009FC2EAFF9EC2E9FF02C0ECFFED5201C082
:101F2000EFFF100E02019C25016E000E9D21036E35
:101F300001C09EF29F6F100E9C25E96E000E9D2140
:101F4000EA6EECCFA1F2ED52EFCFA0F2A1C2BCF24B
:101F5000A0C2BBF2000154DE9FC2EAFF9EC2E9FFAD
:101F600002C0ECFFED5201C0EFFF120E02019C25F2
:101F7000016E000E9D21036E01C09EF29F6F120E36
:101F80009C25E96E000E9D21EA6EECCFA1F2ED5288
:101F9000EFCFA0F2A1C2BCF2A0C2BBF2000130DEC2
:101FA0009FC2EAFF9EC2E9FF02C0ECFFED5201C0F2
:101FB000EFFF1200D8900201BA31BC6FB931BB6F8C
:101FC000B8C2BEF2B7C2BDF2C26BC16BC06BBF6B11
:101FD000BCC203F0BB51D8B4BC07BB0703101EE062
:101FE000BEC203F0BDC200F0020EBD27D8B0BE2BAA
:101FF00000C0E9FF03C0EAFFECCF03F0ED52EFCFE2
:1020000000F003C001F0026A036A0050BF270150CC
:10201000C0230250C1230350C223DAD7B951010BA8
:10202000006E036A0050031013E0BEC203F0BDC28D
:10203000E9FFBEC2EAFFEFCF00F0016A026A036A5D
:102040000050BF270150C0230250C1230350C223B8
:10205000C66BC56BC0C2C4F2BFC2C3F2C1C200F03E
:10206000C2C201F0026A036AC151BF25BF6FC251EB
:10207000C021C06F0250C521C16F0350C621C26F7D
:10208000C151BF27C251C023C0C203F0031EBF51BC
:10209000FF0A016E03C002F000011200020E0201ED
:1020A000B525016E000EB621036E01C0B7F2B86F00
:1020B000020EB525E96E000EB621EA6EECCFBAF23B
:1020C000ED52EFCFB9F2BAC2BCF2B9C2BBF2000115
:1020D00097DDB8C2EAFFB7C2E9FF02C0ECFFED52DC
:1020E00001C0EFFF040E0201B525016E000EB621FE
:1020F000036E01C0B7F2B86F040EB525E96E000E8D
:10210000B621EA6EECCFBAF2ED52EFCFB9F2BAC215
:10211000BCF2B9C2BBF2000173DDB8C2EAFFB7C2BC
:10212000E9FF02C0ECFFED5201C0EFFF0A0E020111
:10213000B525016E000EB621036E01C0B7F2B86F6F
:102140000A0EB525E96E000EB621EA6EECCFBAF2A2
:10215000ED52EFCFB9F2BAC2BCF2B9C2BBF2000184
:102160004FDDB8C2EAFFB7C2E9FF02C0ECFFED5293
:1021700001C0EFFF1200020E0201C16F0B0EC26F11
:102180000001A2EC04F0030E0201C16F150EC26F34
:102190000001A2EC04F0180E0201BC27150EBD23AD
:1021A000020EBF6FBC0EBE6FE96EBFC2EAFFEFCF7B
:1021B000C0F2060EC16FC0C2C2F20001A2EC04F070
:1021C000020E0201BF6FBC0EBE6F010EBE25E96E8E
:1021D000000EBF21EA6EEFCFC0F2070EC16FC0C282
:1021E000C2F20001A2EC04F0BAC2C1F2B9C2C0F25C
:1021F0000201C36B060EC26F000115EC07F002016D
:10220000BF6B560EBE6FBFC2C1F2C06FC36B060E6E
:10221000C26F000115EC07F0080E0201BF6F00014C
:10222000B7EC04F00201BB5302E1000E01D0060E30
:10223000BE6FBF6F0001B7EC04F01200140E816F87
:10224000450E0201A16FA26B140E9F25A36F000E15
:10225000A021A46F7F2AD8A403D00001802B020103
:1022600080C0A6F27FC0A5F2A86BA76B640EA96F11
:102270009EC2AAF2AC6BAB6B2CC0B0F22BC0AFF21B
:102280002AC0AEF229C0ADF29CC2E9FF9DC2EAFFAE
:10229000EFCFB1F2ECCFB2F2ECCFB3F2ECCFB4F2BD
:1022A000020EB66FA10EB56F0001F8DE020E02013C
:1022B000B66FA10EB56FB6C2B8F2B76FBA6B140E97
:1022C000B96F000177DE02C0ACF201C0ABF2040EC0
:1022D00002019C25016E000E9D21036E01C0B5F226
:1022E000B66F140E9F25B76F000EA021B86F03C004
:1022F000BAF201C0B9F2BB6BBD6FB7C2BCF200014C
:102300003ADF020E0201B66FA10EB56FB6C2C1F27E
:10231000C06FC36B140EC26F000115EC07F0000E06
:10232000016E026E12000201A06BA16BA26BA36B87
:10233000BC6B00018DEC04F001C09EF2010E0201A5
:10234000BC6F00018DEC04F001C09FF202019C51B2
:102350009D1158E09D5303E19C51140803E2036A68
:10236000140E03D09DC203F09C51A46F03C0A5F2CC
:10237000020EBD6FA60EBC6FBDC2BFF2BE6FA5C27E
:10238000C1F2A4C2C0F200016EEC07F00201A45138
:102390009C5FA5519D5B020EBD6FA40EE96EBDC290
:1023A000EAFFEFA00CD0020EBD6FA60EA425E96EC9
:1023B000BD51A521EA6EEF6AA42BD8B4A52B020E5D
:1023C000BB6FA60EBA6FA451A5111BE0BBC203F0F0
:1023D000BAC200F0020EBA27D8B0BB2B00C0E9FF8A
:1023E00003C0EAFFECCF03F0ED52EF50A0270350FB
:1023F000A123000EA223A323020EA45F000EA55B5F
:10240000E2D7A5D7C16B9EC2C2F20001A2EC04F0D4
:10241000010E0201C16F9FC2C2F20001A2EC04F0E2
:102420000201BF6BBE6BA1C2BDF2A0C2BCF2A2C2D0
:1024300000F0A3C201F0026A036AA251A025A06FB6
:10244000A351A121A16F0250BE21A26F0350BF2151
:10245000A36FA251A027A351A123A1C203F0031E81
:10246000A051FF0A016E03C002F0000112001F0E0E
:102470000201B66F800EB76F0001C9EC04F01F0EA9
:102480000201B66F800EB76F00015CEC04F01C0E09
:102490000201B66F0A0EB76F00015CEC04F01F0E6C
:1024A0000201B66F080EB76F0001C9EC04F07E5050
:1024B000050804E07E500608D8A4F0D002019D6B08
:1024C0009C6B1C0EBC6F00018DEC04F001C0AAF2E5
:1024D000020101500A0B0AE19C2BD8B49D2B9D519F
:1024E000030804E3EEE19C51E708EBE21C0EBC6F2D
:1024F00000018DEC04F001C0AAF2000E020101B24D
:10250000010E000A0AE19D510208D8B0C8D0FF0AA6
:1025100004E19C51E708D8B0C2D01F0EB66F080E78
:10252000B76F00015CEC04F00201BC6B00018DECA4
:1025300004F001C09EF2010E0201BC6F00018DEC9F
:1025400004F001C09FF2060E0201BC6F00018DEC89
:1025500004F001C0A0F2070E0201BC6F00018DEC77
:1025600004F001C0A1F20201A02BD8B4A12BC16BD1
:10257000A0C2C2F20001A2EC04F0010E0201C16F80
:10258000A1C2C2F20001A2EC04F0020E0201AB6F84
:10259000A20EAA6FABC2BFF2BE6FC16B070EC06FB7
:1025A00000016EEC07F00201A96BA9510F0868E366
:1025B0001C0EBC6F00018DEC04F001C0AAF2000EED
:1025C000020101B2010E000A56E0A5AB54D01F0E65
:1025D000B66F800EB76F0001C9EC04F01F0E020148
:1025E000B66F800EB76F00015CEC04F01C0E0201A8
:1025F000B66F0A0EB76F00015CEC04F01F0E02010B
:10260000B66F080EB76F0001C9EC04F01C0E020192
:10261000BC6F00018DEC04F001C0AAF20201015070
:102620000A0BD8A402D00001F1D71F0EB66F080E16
:10263000B76F00015CEC04F00201C16BA0C2C2F2F2
:102640000001A2EC04F0010E0201C16FA1C2C2F2AE
:102650000001A2EC04F0020E0201AB6FA20EAA6F01
:10266000ABC2BFF2BE6FC16B070EC06F00016EEC54
:1026700007F003D0020104D000010201A92B95D775
:10268000C16B9EC2C2F20001A2EC04F0010E020175
:10269000C16F9FC2C2F20001A2EC04F0020100016E
:1026A000120085EC09F0020172A104D0010130870B
:1026B0000201729101012F9B2F9D2F9F3093309526
:1026C000309100010EEC0DF00152FCE0020172515C
:1026D000060B03E09B6B9A6B33D10001C0510101E3
:1026E0001E5D09E10001C15101011F5D04E102010C
:1026F0009B6B9A6B0DD10001C15101011F5D58E325
:1027000008E11E510001C05DD8A002D0010150D0E7
:1027100001010001C05101011E5D02019A6F00011B
:10272000C15101011F5902019B6F0001C7510201F4
:102730009B5D0DE308E19A510001C65DD8A002D06F
:10274000020105D00201C7C09BF2C6C09AF2000187
:10275000D85102019B5D10E308E19A510001D75D59
:10276000D8A002D0020108D00201D8C09BF2D7C085
:102770009AF2010130850201150EA46F410EA36F7C
:10278000A56BC1C0A7F2C0C0A6F233C1A8F29BC21C
:10279000AAF29AC2A9F2000112EC09F002019A51C0
:1027A0000001C02702019B510001C123B0D00101EB
:1027B0000001C05101011A5D0201986F0001C15171
:1027C00001011B590201996F01011E510201982557
:1027D0009C6F01011F51020199219D6F0101185148
:1027E00002019C5D9A6F0101195102019D599B6F75
:1027F0000001C75102019B5D0DE308E19A51000100
:10280000C65DD8A002D0020105D00201C7C09BF26C
:10281000C6C09AF20001D85102019B5D10E308E1A5
:102820009A510001D75DD8A002D0020108D0020160
:10283000D8C09BF2D7C09AF20101308502019B51AA
:10284000995D08E303E198519A5D04E29BC299F215
:102850009AC298F2150EA46F410EA36FA56BC1C06A
:10286000A7F2C0C0A6F233C1A8F299C2AAF298C2D8
:10287000A9F2000112EC09F0020198519A5D986FDB
:1028800099519B59996F9851991123E00001C051BA
:1028900001011A5D006E0001C15101011B59036E57
:1028A0000050410F02019C6F150E03209D6FA46F15
:1028B0009CC2A3F2A56B19C1A7F218C1A6F233C13D
:1028C000A8F299C2AAF298C2A9F2000112EC09F08A
:1028D00002019A510001C02702019B510001C1234E
:1028E00001011B510001C15D12E305E101011A5113
:1028F0000001C05D0CE3010118511A5D006E195111
:102900001B59036E00500001C05F0350C15B020100
:10291000010130A716D00001C65102019A5D05E100
:102920000001C75102019B5D0BE00001D75102017C
:102930009A5D05E10001D85102019B5D01E07281C1
:10294000010102019A519B1103E17251030B34E022
:102950009A510001C65F02019B510001C75B020151
:102960009A519B1101E0728773A109D00001D96BC4
:10297000B76BB66B980EB56F970EB46F020100017E
:1029800061EC0DF0B451020100240101266F000139
:10299000B551020101200101276F0001B65102016A
:1029A00002200101286F0001B7510201032001013B
:1029B000296F2F8942D0020173A315D001012F5135
:1029C000010F070B006EF80E2F1500102F6F010E70
:1029D0000001B85F000EB95BBA5BBB5B02019B6B89
:1029E000010E9A6F2BD001012FA927D0020173B1DC
:1029F0000AD00001D95306E0D907D890B733B633CF
:102A0000B533B4330201000161EC0DF0B4510201A1
:102A100000240101266F0001B551020101200101CE
:102A2000276F0001B651020102200101286F000149
:102A3000B751020103200101296F0201C5C077F2DD
:102A4000C4C076F2C3C079F2C2C078F2BBC07DF2D6
:102A5000BAC07CF2B9C07BF2B8C07AF2BFC081F2D2
:102A6000BEC080F2BDC07FF2BCC07EF23F0E8315B7
:102A7000836FF00E8215826F72C283F2896B886B4E
:102A80009BC201F0026A036A9A510001B827015003
:102A9000B9230250BA230350BB23020172A31ED0F4
:102AA00072B904D0816B806B7F6B7E6B0001D6A303
:102AB0000BD0FF0E02017A27D8A07B27D8A07C2755
:102AC000D8A07D270BD00001010EB827D8B0B92BB4
:102AD000D8B4BA2BD8B4BB2BD683020172A103D0D1
:102AE0000001D681020101012551235D1DE303E1AF
:102AF0002451225D19E31A511C5D02019C6F0101F2
:102B00001B511D5902019D6F01012451225D006E70
:102B100025512359036E005002019C5D846F0350C0
:102B20009D59856F10D001012251245D02019C6FD7
:102B300001012351255902019D6F010E9C5D846F97
:102B4000000E9D59856F000174EF0DF002C075F203
:102B500001C074F20201755306E174513F0803E3AA
:102B6000756B746B04D0400E745F000E755B75510D
:102B7000855D08E303E18451745D04E275C285F26A
:102B800074C284F2020E9D6F760E9C6F0001CCEC35
:102B90000EF0140E02019A27000E9B230F0E8215D1
:102BA0005009826F72A317D0040E9A27000E9B2340
:102BB000020E8A6F040E8B6F180E8D6F020E8C6FD3
:102BC00082390F0B010F006E0038F00B006E0F0EF4
:102BD00082150010826F2CC091F22BC090F22AC097
:102BE0008FF229C08EF2CDC095F2CCC094F2CBC04A
:102BF00093F2CAC092F2966B060E976F9BC299F23F
:102C00009AC298F299C2BCF298C2BBF2000100ECE1
:102C10000EF002C099F201C098F2020E02019D6FFF
:102C20008E0E9C6F9DC2B8F2B76FBA6B0C0EB96F67
:102C30000001DAEC0FF001C086F20201861F02C02B
:102C400087F2871F150EAC6F190EAB6F0001DDEC1C
:102C500006F002019D6BCA0E9C6F060E9E6F9BC212
:102C6000A0F29AC29FF200011EEC11F0020E0201C6
:102C70009D6F760E9C6F9DC2C1F2C06FC36B140E28
:102C8000C26F000115EC07F0020172A30ED0020E14
:102C90009D6F8A0E9C6F9DC2C1F2C06FC36B040E04
:102CA000C26F000115EC07F00201150EAC6F2D0E7E
:102CB000AB6F000138EC07F09BC29DF29AC29CF208
:102CC00093EC11F002C075F201C074F2150E02010E
:102CD000AC6F3D0EAB6F0001DDEC06F0020E0201A1
:102CE0009D6F740E9C6F9DC2C1F2C06FC36B020ECC
:102CF000C26F000115EC07F037EC12F01200020170
:102D00006851000801E276D068C273F200018DECD0
:102D100006F023C125F122C124F101012E51000A40
:102D2000000115E0020A13E0010A11E0060A0FE0B3
:102D3000030A10E0010A0EE00C0A2DE0050A4CE03F
:102D4000060A4FE0010A4DE0050A4BE04AD0EFECDD
:102D500009F04FD0110E0201726F010E736F000166
:102D6000A0DCC65303E1C75301E110D0C0510101FB
:102D70001E5DD8B402D00001EDD70001C1510101A0
:102D80001F5DD8B402D00001E5D70001080E010193
:102D90002E6F00012ED0110E0201726F010E736FA3
:102DA00000017FDCC65303E1C75301E110D0C051DD
:102DB00001011E5DD8B402D00001EDD70001C15160
:102DC00001011F5DD8B402D00001E5D700010C0E4F
:102DD00001012E6F00010DD00D0E01012E6F0001BB
:102DE00008D0140E0201726F736B00015ADCEFEC15
:102DF00009F0020100011200010199C101F09AC11C
:102E000003F099C19BF19AC19CF199C1E9FF9AC164
:102E1000EAFFECCF9EF1ED52EFCF9DF19EC1BCF2E7
:102E20009DC1BBF2000100EC0EF09CC1EAFF9BC10A
:102E3000E9FF02C0ECFFED5201C0EFFF020E0101FD
:102E40009925016E000E9A21036E01C09BF19C6FC3
:102E5000020E9925E96E000E9A21EA6EECCF9EF1E2
:102E6000ED52EFCF9DF19EC1BCF29DC1BBF20001BE
:102E700000EC0EF09CC1EAFF9BC1E9FF02C0ECFF31
:102E8000ED5201C0EFFF060E01019925016E000E03
:102E90009A21036E01C09BF19C6F060E9925E96E85
:102EA000000E9A21EA6EECCF9EF1ED52EFCF9DF12C
:102EB0009EC1BCF29DC1BBF2000100EC0EF09CC1B2
:102EC000EAFF9BC1E9FF02C0ECFFED5201C0EFFF3A
:102ED00012000EEC0DF00152FCE0150E0201AC6F79
:102EE0000B0EAB6F0001DDEC06F0010197C1E9FFAD
:102EF00098C1EAFFEC6AED52010EEF6E020E9725C3
:102F0000E96E000E9821EA6E080EEC6EED52EF6A43
:102F1000040E9725E96E000E9821EA6E060EEF6EFC
:102F2000050E9725E96E000E9821EA6E040EEF6EED
:102F3000080E9725016E000E9821036E01C099F1CD
:102F40009A6F9C6B560E03C0EAFF01C0E9FF9CC15B
:102F5000E2FFE16E060E016EE6CFEEFF012EFCD71A
:102F60000E0E9725E96E000E9821EA6E29C0EFFF3C
:102F70002AC0ECFF2BC0ECFF2CC0ECFF98C19AF1EB
:102F800097C199F1000138DF120E01019725016EFA
:102F9000000E9821036E01C099F19A6FE8CFBAF242
:102FA00001C0B9F2060E0201BB6FBD6B1C0EBC6FF7
:102FB0000001BBEC10F098C1C1F297C1C0F2020150
:102FC000C36B1C0EC26F000115EC07F037EC12F05A
:102FD000010E016E12000101826B010E816F8D697D
:102FE0008E698F6990699169926979C1E9FF7AC1A7
:102FF000EAFFEFCF00F0ECCF01F0ECCF02F0ECCF26
:1030000003F000502918976F01502A18986F02504A
:103010002B18996F03502C189A6F97512D14006E2E
:1030200098512E14016E99512F14026E9A5130143A
:10303000036E005206E1015204E1025202E1035222
:1030400009E031C000F032C001F033C002F034C0FA
:1030500003F00CD079C1E9FF7AC1EAFFEFCF00F0AD
:10306000ECCF01F0ECCF02F0ECCF03F000C093F115
:1030700001C094F102C095F103C096F1010E986F62
:103080007B0E976F000125DF35EF1BF0010179C141
:10309000E9FF7AC1EAFFEFCF00F0ECCF01F0ECCF0F
:1030A00002F0ECCF03F000500001825D09E1015015
:1030B000835D06E10250845D03E10350855D46E0D7
:1030C0003150825D57E13250835D54E13350845D6D
:1030D00051E13450855D4EE1010179C1E9FF7AC1CA
:1030E000EAFFEFCF00F0ECCF01F0ECCF02F0ECCF35
:1030F00003F0005029187D6F01502A187E6F02508E
:103100002B187F6F03502C18806F7D512D14006E8B
:103110007E512E14016E7F512F14026E8051301497
:10312000036E0052D8B402D0000110D00152D8B4BE
:1031300002D000010BD00252D8B402D0000106D058
:103140000352D8A402D0000115D000017CC103F0C5
:1031500001017BC1E9FF7CC1EAFFE26A860EE16EF4
:10316000060E016EE6CFEEFF012EFCD7010E016EBA
:1031700004D00001000E016E0101000142EF1BF0BE
:103180000101746B7453D8A472D374C173F200013B
:103190008DEC06F00101766B7591759330B302D01A
:1031A00030A50BD000010EEC0DF0015207E0100E1F
:1031B0000101766F759130B57581000101012FAB6A
:1031C00016D000013EEC0DF0005001012A5D006EAA
:1031D00001502B59036E00C079F17A6FE8BE05D01B
:1031E0007A5305E17951000802E3100E766F2FAD96
:1031F00016D000013EEC0DF0005001012C5D006E78
:1032000001502D59036E00C079F17A6FE8BE05D0E8
:103210007A5305E17951000802E3100E766F2E51C2
:103220000B0818E100013EEC0DF0005001012C5D8F
:10323000006E01502D59036E00C079F17A6FE8BE1F
:1032400005D07A5307E17951000804E3110E766F37
:103250000C0E2E6F2E510408D8A44FD1786B776BCB
:103260007853D8A44AD177510208D8A046D178C162
:10327000AAF177C1A9F1AC6B140EAB6F000150EC51
:103280000DF001C079F1100E01010124016E000E54
:103290000220036E0150DC0FE96E000E0320EA6E7F
:1032A000ECCF7AF1ED52EFCF79F1795303E17A5314
:1032B00001E123D178C1AAF177C1A9F1AC6B140E59
:1032C000AB6F000150EC0DF001C079F1100E01015F
:1032D0000124016E000E0220036E0150DC0FE96E26
:1032E000000E0320EA6EECCF7AF1ED52EFCF79F1C8
:1032F0003151795DD8A4FDD032517A5DD8A4F9D08E
:10330000000185EC09F001017A6BCA0E796F78C172
:10331000AAF177C1A9F1AC6B140EAB6F000150ECB0
:103320000DF002C07CF101C07BF1DC0E0101012433
:10333000016E000E0220036E01C07DF17E6F7AC126
:10334000EAFF79C1E9FFE26E01C0E1FF0A0E016EFA
:10335000E6CFEEFF012EFCD778C1AAF177C1A9F123
:10336000AC6B140EAB6F000150EC0DF001C079F1A5
:103370000A0E01010124016E000E0220036E0150AD
:10338000DC0FE96E000E0320EA6EECCFC3F0ED52C5
:10339000EFCFC2F078C1AAF177C1A9F1AC6B140EDE
:1033A000AB6F000150EC0DF001C079F10C0E010182
:1033B0000124016E000E0220036E0150DC0FE96E45
:1033C000000E0320EA6EEFCF79F1ECCF7AF1ECCF6B
:1033D0007BF1ECCF7CF1010E79250001BC6F000E72
:1033E00001017A210001BD6F000E01017B21000166
:1033F000BE6F000E01017C210001BF6FCA51CC25B8
:103400000101796F0001CB51CD2101017A6F0001DB
:10341000C251010179270001C35101017A23795179
:103420000001C4190101316F7A510001C519010170
:10343000326F120E766F060E2E6F78C1AAF177C129
:10344000A9F1AC6B140EAB6F000150EC0DF002C093
:1034500003F00150DC0F016E000E032201C079F170
:10346000010103C07AF1010E77257B6F000E7821F0
:103470007C6FAA6F7BC1A9F1AC6B140EAB6F00011E
:1034800050EC0DF002C003F00150DC0F016E000E95
:10349000032201C07BF1010103C07CF1020ED88040
:1034A00077557D6F000E78557E6FAA6F7DC1A9F1AB
:1034B000AC6B140EAB6F000150EC0DF002C07EF14E
:1034C00001C07DF17AC1A4F279C1A3F2010E02011B
:1034D000A56F7CC1A7F27BC1A6F2A86F02C0AAF2B9
:1034E00001C0A9F2000112EC09F00101156B146B87
:1034F00004D0772BD8B4782BB3D676530EE075A1D1
:1035000002D0000E01D0010E796F76C172F2E8CFC1
:1035100073F2000151EC13F001012FB956D02E5176
:10352000070852E1000161EC0DF003C07CF102C01C
:103530007BF101C07AF100C079F101012651005CF4
:10354000006E27510158016E28510258026E295110
:103550000358036E7C6F02C07BF101C07AF100C09A
:1035600079F1E8AE01D081D12F51070B060812E1A5
:10357000766B2FB7762B74C168F200017FEC16F0E2
:1035800074C168F27FEC16F00101765302E10E0E71
:103590002E6F6BD1000185EC09F0100E0201726FE5
:1035A000020E736F000151EC13F061EC0DF0E60EAA
:1035B00001010024266FF50E0120276F050E022061
:1035C000286F000E0320296F50D1000161EC0DF02F
:1035D00003C07CF102C07BF101C07AF100C079F137
:1035E00001012651005C006E27510158016E2851DF
:1035F0000258026E29510358036E7C6F02C07BF1A2
:1036000001C07AF100C079F1E8AE01D02ED10001FD
:1036100085EC09F001012E51020A00011AE0010AAD
:1036200028E0060A60E0030AD8B470D0010AD8B4D2
:1036300080D00C0AD8B47DD0030AD8B489D0010A4E
:10364000D8B494D0030AD8B496D0060AD8B4A1D07E
:10365000AFD03EEC0DF001C02BF100C02AF101010A
:103660007A6BCA0E796F0001B6D4030E01012E6F7A
:10367000A0D001017A6BCA0E796F7C6BCE0E7B6F86
:10368000000104D5015228E13EEC0DF001C07AF1B1
:1036900000C079F101012A51795F2B517A5B000159
:1036A000B55101017A5D16E308E179510001B45D7D
:1036B000D8A002D001010ED001010001D9510508A6
:1036C00006E3D92BD890B437B537B637B737020EE3
:1036D00001012E6F6ED00001020E0101766F75910F
:1036E000050E2E6F66D0020E0101766F7581000106
:1036F000D951030809E2040ED96FB76B090EB66FF2
:10370000890EB56F700EB46F010153D0D951010805
:1037100006E3120E0101766F75810AD000010101E6
:103720002FA704D0140E766F758302D0020E766F29
:1037300040D0D951040806E3100E0101766F75815F
:1037400006D00001080E01012E6F110E766F31D0E8
:10375000D951040806E3110E0101766F758105D079
:103760000001140E0101766F758323D0140E010140
:10377000766F75831ED0D951040806E3100E01013F
:10378000766F758105D00001140E0101766F758387
:1037900010D0D951040806E3110E0101766F75812E
:1037A00005D00001140E0101766F758302D000016F
:1037B0000101765354E075A149D00001D92BD8906E
:1037C000B437B537B637B737010120510001C05DB6
:1037D0000101776F21510001C1590101786F00018A
:1037E000C1510101215D13E308E120510001C05DD9
:1037F000D8A002D001010BD0010118511A5D006E52
:1038000019511B59036E00507727035078237751C5
:103810000001B85F010178510001B95B000EBA5B8D
:10382000BB5B010177510001C627010178510001FE
:10383000C72321C1C1F020C1C0F076C172F20201DC
:10384000736B000151EC13F009D0010176C172F2E3
:10385000010E0201736F000151EC13F0010175A319
:1038600004D00001EFEC09F00101742B8BD4786BCC
:10387000776B7853D8A4BCD077510208D8A0B8D0C1
:1038800078C1AAF177C1A9F1AC6B140EAB6F00013E
:1038900050EC0DF001C079F1100E01010124016E10
:1038A000000E0220036E0150DC0FE96E000E0320B3
:1038B000EA6EECCF7AF1ED52EFCF79F1795303E173
:1038C0007A5301E195D000013EEC0DF001C07AF190
:1038D00000C079F178C1AAF177C1A9F10101AC6BFF
:1038E000140EAB6F000150EC0DF002C07CF101C072
:1038F0007BF1120E01010124016E000E0220036E05
:103900000150DC0FE96E000E0320EA6EECCF03F0ED
:10391000ED52EF50795F03507A5B7A51000864E210
:10392000FF0A03E17951C9085FE278C1AAF177C1C2
:10393000A9F1AC6B140EAB6F000150EC0DF002C09E
:1039400003F00150DC0F016E000E032201C079F17B
:10395000010103C07AF1010E77257B6F000E7821FB
:103960007C6FAA6F7BC1A9F1AC6B140EAB6F000129
:1039700050EC0DF002C003F00150DC0F016E000EA0
:10398000032201C07BF1010103C07CF1020ED8804B
:1039900077557D6F000E78557E6FAA6F7DC1A9F1B6
:1039A000AC6B140EAB6F000150EC0DF002C07EF159
:1039B00001C07DF17AC1A4F279C1A3F2010E020126
:1039C000A56F7CC1A7F27BC1A6F2A86F02C0AAF2C4
:1039D00001C0A9F2000112EC09F00101156B146B92
:1039E0007751D8B478077707772BD8B4782B41D79D
:1039F0000001E7EF2CF067A201D02CD06782010E06
:103A00007A5C01019F6F000E7B58A06FA0511408D3
:103A100009E2FF0A03E19F51090804E2150EA06FB5
:103A2000090E9F6F1E0E0201B66F400EB76F0001A8
:103A3000C9EC04F00C0E0201C16F9FC1C2F200017B
:103A4000A2EC04F00D0E0201C16FA0C1C2F2000190
:103A5000A2EC04F01200010E0201A16F190EA06F7A
:103A60000001DEEC04F0190E0201BC6F00018DECC8
:103A700004F001C08CF10201A16BA06B0001DEEC2F
:103A800004F001018C5303E1000E016E87D067B290
:103A900006D00001B0DF000E016E01017FD07BC0B7
:103AA0007DF07AC07CF00201C16B7CC0C2F20001E3
:103AB000A2EC04F0010E0201C16F7DC0C2F2000150
:103AC000A2EC04F0010E01018E6F780E8D6F8EC195
:103AD000BFF2E8CFBEF20201C16B140EC06F00014D
:103AE0006EEC07F08BC1BCF28AC1BBF200EC0EF0A9
:103AF00002C08BF101C08AF101017951140805E27D
:103B0000FF0A19E17851090816E3010E8E6F780E4D
:103B1000E96E8EC1EAFFEFB00ED07DBF0CD07CB94C
:103B20000AD07B51040805E2FF0A05E17A51EE084C
:103B300002E37CBF01D0FF0079C17BF078C17AF04D
:103B400075C103F074C18DF175C18EF1010E906FD6
:103B5000840E75C1EAFF74C1E9FF90C1E2FFE16E16
:103B6000060E016EE6CFEEFF012EFCD777C103F003
:103B700076C1E9FF03C0EAFFEF688B5108080BE14B
:103B80008A5303E08A51060806E176C1E9FF77C14E
:103B9000EAFF8AC1EFFF6792010E016E0001F2EFAA
:103BA0002CF0000E67B4010E000A04E0010AD8B43C
:103BB0006FD096D0010E0101916F740E906F91C17C
:103BC000BFF2E8CFBEF20201C16B1C0EC06F000154
:103BD0006EEC07F010DF010E01019A6F740E996F01
:103BE0000001FCEC16F00101742D08D0755306E1BC
:103BF0007851060803E17951040803E0010E016ED3
:103C000072D07A5102081AE17B5318E1EA6A860EF3
:103C1000E96E010EE26E7C0EE16E060E016EE6CFDD
:103C2000EEFF012EFCD785C185F084C184F083C1ED
:103C300083F082C182F0010E016E55D07A2D27D01B
:103C40007B5325E129508C5D09E12A508D5D06E109
:103C50002B508E5D03E12C508F5D03E0010E016E51
:103C600042D085C18FF084C18EF083C18DF082C1B6
:103C70008CF0EA6A900EE96E010EE26E7C0EE16E47
:103C8000060E016EE6CFEEFF012EFCD76784000121
:103C900001017B6B020E7A6F010EEA6E860EE96EF1
:103CA000E26A900EE16E060E016EE6CFEEFF012E87
:103CB000FCD78FC08FF18EC08EF18DC08DF18CC07E
:103CC0008CF1010E986F740E976F000169EC17F07C
:103CD000015205E1000E016E010105D0000167945B
:103CE000010E016E010100017FEF2DF0140E7C2406
:103CF00001019A6F000E7D209B6F92519A25966F5D
:103D000093519B21976F9751140809E2FF0A03E131
:103D10009651090804E20A0E965F150E975B0201A0
:103D2000BC6B00018DEC04F001C098F1010E0201A2
:103D3000BC6F00018DEC04F001C099F10201C16B70
:103D400096C1C2F20001A2EC04F0010E0201C16FA3
:103D500097C1C2F20001A2EC04F095C19DF294C19A
:103D60009CF293EC11F002C097F101C096F10201B0
:103D7000C16B98C1C2F20001A2EC04F0010E020175
:103D8000C16F99C1C2F20001A2EC04F0010196C119
:103D900001F097C102F000011200140E7C24010111
:103DA000CB6F000E7D20CC6FC751CB25C96FC8519A
:103DB000CC21CA6FCA51140809E2FF0A03E1C951B4
:103DC000090804E20A0EC95F150ECA5B0201C16B45
:103DD000C9C1C2F20001A2EC04F0010E0201C16FE0
:103DE000CAC1C2F20001A2EC04F01200010E0101EE
:103DF000936F7E0E926F93C1BFF2E8CFBEF20201C5
:103E0000C16B140EC06F00016EEC07F001017E5112
:103E1000F00B400803E0000E016E67D084511F0BC9
:103E2000006E85C103F00050851103E0000E016EA5
:103E30005CD07E510F0B006E00340001816F813722
:103E4000FC0E81170101936B926B956B81C094F10D
:103E500000014CDF02C07DF101C07CF10101C86BA3
:103E600081C0C7F1000199DF01017C517D1103E0A0
:103E7000000E016E3AD0010E0201B66F7E0EB56FD4
:103E800000014EEC10F00101745175110CE074C189
:103E9000E9FF75C1EAFF8EC1EFFF8FC1ECFF90C152
:103EA000ECFF91C1ECFF76C1E9FF7751EA6E8AC160
:103EB000EFFF8BC1ECFF8CC1ECFF8DC1ECFF78C133
:103EC000E9FF79C1EAFF87C1EFFF7AC1E9FF7BC152
:103ED000EAFF000181510101805D006E000E8159F1
:103EE00000C0EFFFEC6E010E016E000113EF2DF02C
:103EF000010E01017D6F780E7C6F7DC1BFF2E8CFAE
:103F0000BEF20201C16B040EC06F00016EEC07F03F
:103F10000101785108085EE179535CE1936B140E5E
:103F2000926F77C195F176C194F10001DFDE015007
:103F3000021001E04ED00101786B080E7A277A5109
:103F4000070804E37B2B7B5301E17A2B00010EEC85
:103F50000DF00152FCE0150E0201AC6F190EAB6FB3
:103F60000001DDEC06F075C19DF274C19CF2010EFA
:103F700002019E6F77C1A0F276C19FF200011EEC94
:103F800011F0010E01017D6F780E7C6F7DC1C1F2D1
:103F9000E8CFC0F20201C36B040EC26F000115EC42
:103FA00007F0040E0101765D7C6F000E77597D6F7E
:103FB0000201AC69AB69AE69AD69B06F7CC1AFF2AB
:103FC0000001BEEC07F0FEEC08F00152FCE037EC1B
:103FD00012F00101000168EF2DF081510101C325AC
:103FE000C56F000EC421C66FC86FC5C1C7F10001FF
:103FF000D4DE1200020E01019F25E96E000EA02101
:10400000EA6EECCFAAF1ED52EFCFA9F1A95305E189
:10401000AA5303E1000E016EF0D2FE0EA46F020E51
:10402000A125E96E000EA221EA6EECCFAAF1ED52B5
:10403000EFCFA9F1A1C1E9FFA2C1EAFFECCF03F0E4
:10404000ED52EF50A9270350AA239FC1E9FFA0C159
:10405000EAFFECCF03F0ED52EF50A9270350AA235B
:10406000020E9F25E96E000EA021EA6EECCF03F050
:10407000ED52EF50A919A56F0350AA19A66FA36BB3
:10408000A353D8A479D0A3C173F200018DEC06F03C
:1040900001012E510D0802E16DD01DD02E510408F2
:1040A00013E1020E9F25E96E000EA021EA6EECCF0F
:1040B00003F0ED52EF50315D05E10350325D02E156
:1040C000A3C1A4F157D007D0A551315D03E1A6519A
:1040D000325D01E04FD0000185EC09F0020E0101D4
:1040E0009F25E96E000EA021EA6EECCFAAF1ED52F9
:1040F000EFCFA9F10001C4510101A95D3BE100012D
:10410000C5510101AA5D36E19FC1E9FFA0C1EAFFE7
:10411000ECCFAAF1ED52EFCFA9F10001C25101019C
:10412000A95D28E10001C3510101AA5D23E1A1C1FC
:10413000E9FFA2C1EAFFEFCFA9F1ECCFAAF1ECCFE2
:10414000ABF1ECCFACF10001CA510101A95D12E164
:104150000001CB510101AA5D0DE10001CC5101012B
:10416000AB5D08E10001CD510101AC5D03E1010E41
:10417000016E43D2A32B84D7A451FE0839E0A4C119
:1041800073F200018DEC06F085EC09F00101A451F9
:10419000FE082EE0A6C132F1A5C131F1AA6BCA0E0C
:1041A000AAC1EAFFE96EA2C1E2FFA1C1E1FF0A0EC6
:1041B000016EE6CFEEFF012EFCD79FC1E9FFA0C143
:1041C000EAFFECCFC3F0ED52EFCFC2F0020E9F2515
:1041D000E96E000EA021EA6EECCFC5F0ED52EFCFF4
:1041E000C4F019C1C1F018C1C0F0010E016E05D2B2
:1041F0000D0E9F25E96E000EA021EA6EEFB203D0EE
:10420000000E016EFAD11451151103E0000E016E7B
:10421000F4D1A86BA76BA853D8A4E6D0A751020885
:10422000D8A0E2D0A8C1AAF1A7C1A9F1AC6B140E25
:10423000AB6F000150EC0DF001C0A9F1100E0101AF
:104240000124016E000E0220036E0150DC0FE96EA6
:10425000000E0320EA6EECCFAAF1ED52EFCFA9F1E8
:10426000A95303E1AA5301E1BFD0A8C1AAF1A7C194
:10427000A9F1AC6B140EAB6F000150EC0DF001C056
:10428000A9F1100E01010124016E000E0220036E3F
:104290000150DC0FE96E000E0320EA6EECCFAAF1AC
:1042A000ED52EFCFA9F1020E9F25E96E000EA0217D
:1042B000EA6EECCF03F0ED52EF50A95D03E103503D
:1042C000AA5D01E08DD0A8C1AAF1A7C1A9F1AC6B8C
:1042D000140EAB6F000150EC0DF001C0A9F10A0EF5
:1042E00001010124016E000E0220036E0150DC0F5B
:1042F000E96E000E0320EA6EECCFAAF1ED52EFCF8B
:10430000A9F19FC1E9FFA0C1EAFFECCF03F0ED5294
:10431000EF50A95D03E10350AA5D01E061D0A8C19F
:10432000AAF1A7C1A9F1AC6B140EAB6F000150EC60
:104330000DF002C0AAF101C0A9F1DC0E01010124B7
:10434000E96E000E0220EA6EEFCFABF1ECCFACF1DC
:10435000ECCFADF1ECCFAEF1A1C1E9FFA2C1EAFF14
:10436000EFCF00F0ECCF01F0ECCF02F0ECCF03F098
:104370000050AB5D09E10150AC5D06E10250AD5D5E
:1043800003E10350AE5D01E02BD0A8C1AAF1A7C1A3
:10439000A9F1AC6B140EAB6F000150EC0DF001C035
:1043A000A9F1120E01010124016E000E0220036E1C
:1043B0000150DC0F016E000E032201C0A9F103C001
:1043C000AAF100013EEC0DF0AAC1EAFFA9C1E9FF84
:1043D00000C0EFFF01C0ECFF000E016E01010DD126
:1043E000A72BD8B4A82B17D7A36BA353D8A403D15A
:1043F000A3C173F200018DEC06F001012FB701D0CB
:10440000F8D0000185EC09F0020E01019F25E96E4C
:10441000000EA021EA6EECCF03F0ED52EF50000148
:10442000C45D03E10350C55D03E00101E2D000017A
:10443000A8C1AAF1A7C1A9F10101AC6B140EAB6F21
:10444000000150EC0DF002C0AAF101C0A9F1DC0E90
:1044500001010124016E000E0220036E01C0ABF1C8
:10446000AC6FEA6E01C0E9FFA2C1E2FFA1C1E1FFAA
:104470000A0E016EE6CFEEFF012EFCD7A8C1AAF10D
:10448000A7C1A9F1AC6B140EAB6F000150EC0DF09D
:1044900001C0A9F10A0E01010124016E000E0220E3
:1044A000036E0150DC0F016E000E032203C0AAF15F
:1044B0009FC1E9FFA0C1EAFFECCF03F0ED52EFCFBF
:1044C000ABF1AAC1EAFF01C0E9FF03C0ECFFED5266
:1044D000ABC1EFFFA8C1AAF1A7C1A9F1AC6B140E43
:1044E000AB6F000150EC0DF001C0A9F10C0E010101
:1044F0000124016E000E0220036E0150DC0F016EDC
:10450000000E032201C0A9F103C0AAF1040E9F25E9
:10451000E96E000EA021EA6EEFCF00F0ECCF01F0C3
:10452000ECCF02F0ECCF03F0AAC1EAFFA9C1E9FF8A
:1045300000C0EFFF01C0ECFF02C0ECFF03C0ECFFC6
:10454000A8C1AAF1A7C1A9F1AC6B140EAB6F000111
:1045500050EC0DF001C0A9F1100E01010124016E13
:10456000000E0220036E0150DC0F016E000E0322CC
:1045700003C0AAF1020E9F25E96E000EA021EA6E8B
:10458000ECCF03F0ED52EFCFABF1AAC1EAFF01C0CF
:10459000E9FF03C0ECFFED52ABC1EFFFA8C1AAF1E8
:1045A000A7C1A9F1AC6B140EAB6F000150EC0DF07C
:1045B00001C0A9F1120E01010124016E000E0220BA
:1045C000036E0150DC0F016E000E032201C0A9F141
:1045D00003C0AAF100013EEC0DF0AAC1EAFFA9C197
:1045E000E9FF00C0EFFF01C0ECFF000E016E01010A
:1045F00004D0A32BFAD6000E016E0001D1EF2CF0EF
:104600000101C46B0C0EC36F0001E7DCA9EC07F0DD
:1046100001C0BFF10101BF51F00B006E003200324A
:104620003F0E00160050EC0FBF6FBF5305E1180E90
:10463000016E020E026E72D00201BF6BBE6BC16BC7
:10464000070EC06F00016EEC07F00101BF51BF07FC
:10465000000AD8B45FD00001A9EC07F001C0C0F196
:104660000101C05301E156D0C02D01D0EFD7C05198
:10467000020835E1BF51020801E34CD0C26BC16BA7
:104680000001A9EC07F001C0C0F10101C05104080C
:104690000AE10001A9EC07F001C0C2F1A9EC07F0A2
:1046A00001C0C1F10101C251020805E303E1C1519A
:1046B000170801E32FD0C25104080BE2FF0A03E1FF
:1046C000C151B40806E2B40E016E050E026E26D08A
:1046D00005D0C1C101F0C2C102F020D01AD0BF5133
:1046E000010801E317D00001A9EC07F001C0C0F1F7
:1046F0000101C051BF5D01E20DD00201BF6BBE6B75
:10470000C16BC0C1C0F200016EEC07F00101C051E5
:10471000BF5F9CD7180E016E020E026E00011200E0
:104720000D0E01019F25E96E000EA021EA6EEFCF6C
:10473000B1F1080E9F25E96E000EA021EA6EEFCFC1
:10474000B2F1ECCFB3F1ECCFB4F1ECCFB5F1040E94
:104750009F25E96E000EA021EA6EEFCFB6F1ECCFF7
:10476000B7F1ECCFB8F1ECCFB9F1F80E2F152F6FF0
:104770002FB910D0000161EC0DF0E60E010100240C
:10478000266FF50E0120276F050E0220286F000E00
:104790000320296F2E51040A000103E0010A4DE0B5
:1047A000E1D00101B1A506D00001EFEC09F023EF43
:1047B0002CF00101B1A914D0B5C1BBF0B4C1BAF05D
:1047C000B3C1B9F0B2C1B8F0040E0201726F736BDD
:1047D000000151EC13F0EFEC09F023EF2CF0010194
:1047E000B1A324D0010EB6250001BC6F000E01015B
:1047F000B7210001BD6F000E0101B8210001BE6F9D
:10480000000E0101B9210001BF6FFADE02C0D8F02D
:1048100001C0D7F0120E0201726F010E736F00011A
:1048200051EC13F0060E01012E6F04D00001EFECE5
:1048300009F00101000123EF2CF00101B1A504D022
:10484000000123EF2CF00101B1A937D00001B851CC
:104850000101B25D0FE10001B9510101B35D0AE14F
:104860000001BA510101B45D05E10001BB51010134
:10487000B55D23E0BBC0B9F1BAC0B8F1B9C0B7F1BA
:10488000B8C0B6F1B5C1BBF0B4C1BAF0B3C1B9F0AC
:10489000B2C1B8F0040E0201726F010E736F000115
:1048A00051EC13F0B9C1BBF0B8C1BAF0B7C1B9F05F
:1048B000B6C1B8F023EF2CF00101B1A350D0010E26
:1048C000B6250001BC6F000E0101B7210001BD6FCC
:1048D000000E0101B8210001BE6F000E0101B921D7
:1048E0000001BF6F0E0E01019F25E96E000EA02191
:1048F000EA6EECCFC7F0ED52EFCFC6F0000180DEDC
:1049000002C0D8F001C0D7F00101B1A91DD0100E2E
:104910000201726F010E736F000151EC13F0070E6C
:1049200001012E6F000161EC0DF0E60E0101002483
:10493000266FF50E0120276F050E0220286F000E4E
:104940000320296F2F990BD0120E0201726F010EF6
:10495000736F000151EC13F0060E01012E6F000180
:1049600023EF2CF0A2C1BBF1A1C1BAF10101B1A1A9
:1049700003D0BA2BD8B4BB2BB1A303D0BA2BD8B475
:10498000BB2B2551235D17E303E12451225D13E383
:104990001A511C5DBF6F1B511D59C06F2451225D00
:1049A000006E25512359036E0050BF5DAF6F035059
:1049B000C059B06F0CD02251245DBF6F23512559CF
:1049C000C06F010EBF5DAF6F000EC059B06F000128
:1049D000BC510101B65D006E0001BD510101B75926
:1049E000016E0001BE510101B859026E0001BF51B4
:1049F0000101B959AC6F02C0ABF101C0AAF100C00E
:104A0000A9F1AAC1AEF1A9C1ADF1BC91BA51BB11D6
:104A1000D8B481D0AF51B011D8B47CD0ACBF0DD0D8
:104A2000AC530BE1AB5309E1AA51B05D06E303E1DE
:104A3000AF51A95D02E2BC8143D0BAC100F0BBC155
:104A400001F0026A036ABA51A925BF6FBB51AA21BE
:104A5000C06F0250AB21C16F0350AC21C26FE8BEE2
:104A60002FD0C25307E1C15305E1C05303E1BF5149
:104A7000000826E2BA51AF5D006EBB51B059036E1B
:104A8000005003C001F0026A036A01AE02D00206C0
:104A90000306ACAF03D003AE12D002D003BE10D0D9
:104AA000AC51035C0DE30BE1AB51025C09E307E1A0
:104AB000AA51015C05E303E1A951005C01E3BC815B
:104AC000AFC100F0B0C101F0026A036AACAF03D01D
:104AD00003AE12D002D003BE1DD0AC51035C1AE36A
:104AE0000BE1AB51025C16E307E1AA51015C12E352
:104AF00003E10050A95D0EE2BA51AD25BF6FBB5175
:104B0000AE21C06FE8BE06D0C05303E1BF5100081C
:104B100001E2BC8118D0A95308E1AA5306E1AB53C6
:104B200004E1AC5302E1BC810ED0ACBF0CD0AC535D
:104B30000AE1AB5308E1AA51B05D05E303E1AF51CF
:104B4000A95D01E2BC81BCB10FD0B1B509D0100E96
:104B50000201726F010E736F000151EC13F001013D
:104B6000000123EF2CF00101B151060B06E000011A
:104B7000EFEC09F023EF2CF00101B1B904D00001F2
:104B800023EF2CF001012E51060A00010EE0010A6C
:104B900045E00F0A43E0010A41E0020A3FE0010A52
:104BA0003DE0060AD8B4E6D20AD3B8510101B25D9D
:104BB0000FE10001B9510101B35D0AE10001BA51F1
:104BC0000101B45D05E10001BB510101B55D23E0C8
:104BD000BBC0B9F1BAC0B8F1B9C0B7F1B8C0B6F14D
:104BE000B5C1BBF0B4C1BAF0B3C1B9F0B2C1B8F04D
:104BF000040E0201726F010E736F000151EC13F08D
:104C0000B9C1BBF0B8C1BAF0B7C1B9F0B6C1B8F01C
:104C100023EF2CF00101070E2E6F0001C05101019E
:104C20001E5DA76F0001C15101011F59A86FA8AFF8
:104C30000AD018511A5D006E19511B59036E0050AD
:104C4000A7270350A823026A036AA7510001B825C9
:104C50000101A36FA8510001B9210101A46F025005
:104C60000001BA210101A56F03500001BB21010120
:104C7000A66FA351B25D006EA451B359016EA55148
:104C8000B459026EA651B559A66F02C0A5F101C074
:104C9000A4F100C0A3F1A6BF32D0A65307E1A553EB
:104CA00005E1A45303E1A351000829E20001D6A1C4
:104CB00013D00101A32D01D002D000010DD0A453C7
:104CC000D8B402D0000108D0A553D8B402D0000156
:104CD00003D0A6530CE00001100E0201726F736B3B
:104CE000000151EC13F023EF2CF00AD00101FF0E6C
:104CF000B227D8A0B327D8A0B427D8A0B5270001E1
:104D0000010120510001C05D006E0101215100012F
:104D1000C159036E005003C001F0026A036A01AE7C
:104D200002D0020603060050B85D006E0150B9596A
:104D3000016E0250BA59026E0350BB59E8CFA6F17A
:104D400002C0A5F101C0A4F100C0A3F1C15101014D
:104D5000215D16E308E120510001C05DD8A002D01A
:104D600001010ED0010118511A5D006E19511B5935
:104D7000036E0050A35F0350A45B000EA55BA65B0F
:104D8000A351B25DA36FA451B359A46FA551B459F7
:104D9000A56FA651B559A66FA6BFB2D0A65308E11C
:104DA000A55306E1A45304E1A3510008D8B0A8D04C
:104DB00018511A5D006E19511B59036E00C001F0A5
:104DC000A653D8A49DD0A553D8A49AD0A451035CCF
:104DD000D8A096D004E1A351015CD8A091D00001E5
:104DE000D697D6990101309121C1A8F120C1A7F130
:104DF000A3512027A4512123A8510001C15D2CE318
:104E000005E10101A7510001C05D26E3C151010187
:104E1000215D20E308E120510001C05DD8A002D04F
:104E2000010118D001010001C0510101205D006E97
:104E30000001C15101012159036E00500001B82742
:104E40000350B923000EBA23BB2321C1C1F020C1F6
:104E5000C0F001012CD00001010118511A5D006E53
:104E600019511B59036E00500001C0250101A76FA5
:104E700003500001C1210101A86FA851215D17E372
:104E800003E12051A75D13E2A751205D006EA851F8
:104E90002159036E00500001B8270350B923000EBA
:104EA000BA23BB2321C1C1F020C1C0F001011B51B5
:104EB000215D0EE303E11A51205D0AE318511A5DEA
:104EC000006E19511B59036E0050205F0350215B87
:104ED0001B510001C15D12E305E101011A510001FE
:104EE000C05D0CE3010118511A5D006E19511B5988
:104EF000036E00500001C05F0350C15B6ED0010122
:104F00000001C0510101205D05E10001C151010115
:104F1000215D64E00001D6A75FD0D6A95CD0010175
:104F200020510001C05D006E010121510001C159F5
:104F3000036E005003C001F0026A036A01AE02D0A2
:104F4000020603060050B85D006E0150B959016EAB
:104F50000250BA59026E0350BB59BB6F02C0BAF07F
:104F600001C0B9F000C0B8F0C1510101215D2DE3CD
:104F700008E120510001C05DD8A002D0010125D078
:104F8000010118511A5D006E19511B59036E005032
:104F900003C001F0026A036A01AE02D002060306F2
:104FA00000500001B85D006E0150B959016E025009
:104FB000BA59026E0350BB59036EBB6F02C0BAF000
:104FC00001C0B9F000C0B8F0010121C1C1F020C199
:104FD000C0F030850001D689D68701011E51205DC1
:104FE0002FE11F51215D2CE130B712D0000161EC9F
:104FF0000DF0E60E01010024266FF50E0120276F4B
:10500000050E0220286F000E0320296F2F9918D05B
:10501000B2510001B85D15E10101B3510001B95D64
:1050200010E10101B4510001BA5D0BE10101B5517C
:105030000001BB5D06E1D6A104D001012F99309794
:1050400000010E0E01019F25E96E000EA021EA6EFF
:10505000ECCFC0F1ED52EFCFBFF1B2510001B85D1E
:10506000006E0101B3510001B959016E0101B45143
:105070000001BA590101B5510001BB5900500101AD
:10508000BF5DBD6F0150C059BE6F0001C6530BE13B
:10509000C75309E10101BD51BE11D8A402D00001DE
:1050A00002D030830001BEC1C7F0BDC1C6F001010E
:1050B0002E5108082AE1B2510001B85D24E1010136
:1050C000B3510001B95D1FE10101B4510001BA5DA6
:1050D0001AE10101B5510001BB5D15E1D6A113D064
:1050E00061EC0DF0F30E01010024266FFA0E012091
:1050F000276F020E0220286F000E0320296F2F89D0
:10510000090E2E6F000134D001012E51090817E15C
:10511000B1B114D0B5C1BBF0B4C1BAF0B3C1B9F0EC
:10512000B2C1B8F0140E0201726F736B000151EC42
:1051300013F0EFEC09F023EF2CF001011AD02E51FF
:105140000A0817E1B2510001B85D11E10101B35144
:105150000001B95D0CE10101B4510001BA5D07E144
:105160000101B5510001BB5D02E1EFEC09F06BD329
:10517000010126D0010EB8250101BF6F000E00010C
:10518000B9210101C06F000E0001BA210101C16FF8
:10519000000E0001BB210101C26FB251BF5D0DE1E4
:1051A000B351C05D0AE1B451C15D07E1B551C25DC3
:1051B00004E10001EFEC09F00101000144D3010119
:1051C000B1AB03D000013FD301012E510B0803E125
:1051D000000139D301012E510A0803E1000133D344
:1051E00001012E510C0803E100012DD30101A15151
:1051F000A211D8B465D2AEBF07D0AE53D8A4F4D0B4
:10520000AD510008D8A0F0D00C0E9F25E96E000E1D
:10521000A021EA6EEFCF00F000380F0B006E0036D1
:105220000036FC0E00160050D880AD55BF6F000E42
:10523000AE55C06FC46FBFC1C3F10001EDEC1FF0EC
:105240000101AD51A127AE51A223B051A25D08E3E7
:1052500003E1A151AF5D04E2B0C1A2F1AFC1A1F180
:10526000A2C101F0026A036AA1510001BC270150EA
:10527000BD230250BE230350BF230101A1512225AB
:10528000BF6FA2512321C06F1D51C05D46E303E1F2
:10529000BF511C5D42E222511C5DBF6F23511D595D
:1052A000C06F010EBF25A76F000EC021A86F23C1DC
:1052B000A4F222C1A3F233C1A5F20201A769A66933
:1052C000A86BA8C1AAF2A7C1A9F2000112EC09F0CB
:1052D0000101A751A15DBF6FA851A259C06F1BC1A9
:1052E000A4F21AC1A3F233C1A5F20201A769A6690B
:1052F000A86BAA6FBFC1A9F2000112EC09F001016D
:10530000A751A15D006EA851A259036E00501A2545
:10531000226F03501B21236F16D023C1A4F222C198
:10532000A3F233C1A5F20201A769A669A86BA2C1C5
:10533000AAF2A1C1A9F2000112EC09F00101A151E8
:105340002227A25123230001D43D03D0D53D01D013
:1053500049D00101A1510001D45F0101A251000116
:10536000D55BD451C825016ED551C92101C0A7F123
:105370000101A86FA8AF04D00001D569D46932D06B
:105380000001D5BF05D0D5532DE1D45100082AE343
:105390000101A7510001BC270101A8510001BD2353
:1053A000000EBE23BF230101A7512227A8512323AA
:1053B0001D51235D14E303E122511C5D10E21A51DB
:1053C0001C5DBF6F1B511D59C06F010EBF25016EC3
:1053D000000EC021036E0150225F0350235B0001C9
:1053E000D569D4696CD10101AEBF6AD1AE5304E175
:1053F000AD510008D8B064D1AD51A125BF6FAE51F9
:10540000A221C06FB051C05D0AE303E1BF51AF5D9F
:1054100006E2AD51AF5DA16FAE51B059A26F0C0E57
:105420009F25E96E000EA021EA6EEFCF00F0003854
:105430000F0B006E0034BF6FBF37FC0EBF17C46B7D
:10544000BFC1C3F10001EDEC1FF00101AD512225F8
:10545000BF6FAE512321C06FA151BF27A251C023FE
:105460001D51C05D6FE303E1BF511C5D6BE2225132
:105470001C5DBF6F23511D59C06F010EBF27000E69
:10548000C023AD51BF5DA76FAE51C059A86FA8BF73
:1054900030D0AD512225BF6FAE512321C06FE8CF70
:1054A000A4F2BFC1A3F233C1A5F20201A769A669A4
:1054B000A86BA8C1AAF2A7C1A9F2000112EC09F0D9
:1054C0000101A751A15DBF6FA851A259C06F1BC1B7
:1054D000A4F21AC1A3F233C1A5F20201A769A66919
:1054E000A86BAA6FBFC1A9F2000112EC09F028D085
:1054F0000101AD512225BF6FAE512321C06F1A515A
:105500001C5DC16F1B511D59C26F010EC125016E7B
:10551000000EC221036E0150BF5F0350C05BC0C1CB
:10552000A4F2BFC1A3F233C1A5F20201A769A66923
:10553000A86BA2C1AAF2A1C1A9F2000112EC09F064
:1055400018D00101AD512225BF6FAE512321C06F8C
:10555000E8CFA4F2BFC1A3F233C1A5F20201A7694B
:10556000A669A86BA2C1AAF2A1C1A9F2000112EC1E
:1055700009F0D43D0BD0D53D09D0AEC1D5F0ADC1B9
:10558000D4F0A2C1C9F0A1C1C8F099D00101AE51B7
:105590000001D55D51E308E1D4510101AD5DD8A012
:1055A00002D0000149D000010101A151AD25BF6F1A
:1055B000A251AE21C06F0001C851D425016EC9515E
:1055C000D521036E03500101C05D04E317E1BF5113
:1055D000015C14E3A151AD25BF6FA251AE21C06F94
:1055E0000001D55D11E3D8B402D0010107D0D45138
:1055F0000101BF5DD8A002D0000106D0A2C1C9F050
:10560000A1C1C8F014D00001C851D4250101BF6F59
:105610000001C951D5210101C06FAD51BF5D00012D
:10562000C86F0101AE51C0590001C96F0101AEC17F
:10563000D5F0ADC1D4F044D00101A151AD25BF6F6B
:10564000A251AE21C06F0001C851D425016EC951CD
:10565000D521036E03500101C05D32E303E1BF5168
:10566000015C2EE20001C851D425016EC951D5213B
:10567000036E01500101AE51035C22E303E1AD5121
:10568000015C1EE3A151AD25BF6FA251AE21C06FD9
:105690000001D4510101BF5F0001D5510101C05B80
:1056A0000001C8510101BF5D006E0001C951010137
:1056B000C059036E00500001C8270350C9230101DF
:1056C000BA51BB1123E02E51070804E023C125F194
:1056D00022C124F12FAF0CD0100E0201726F010E07
:1056E000736F000151EC13F085EC09F010D001014B
:1056F0002F8F2FBD0BD02F8D00013EEC0DF00F0E24
:10570000010100242C6F000E01202D6F000101010A
:10571000B1A19AD0010E0001BC250101BF6F000E9E
:105720000001BD210101C06F000E0001BE21010179
:10573000C16F000E0001BF210101C26FBAC100F0AC
:10574000BBC101F0026A036AB6510026B7510122BB
:10575000B8510222B95103220050BF5DD8A474D0C1
:105760000150C05DD8A470D00250C15DD8A46CD0E7
:105770000350C25DD8A468D0010E0001BC27D8B088
:10578000BD2BD8B4BE2BD8B4BF2B01012E51060AB5
:10579000000107E0010A11E00F0A1DE0010A40E0E4
:1057A00049D00C0E01012E6F110E0201726F010E15
:1057B000736F000151EC13F046D00B0E01012E6FF8
:1057C00000013EEC0DF01E0E010100242C6F000EB6
:1057D00001202D6F30D00101B2510001B85D1AE1F6
:1057E0000101B3510001B95D15E10101B45100019E
:1057F000BA5D10E10101B5510001BB5D0BE1100E76
:105800000201726F736B000151EC13F0EFEC09F0C1
:105810001AD004D00A0E01012E6F000101010BD035
:10582000100E0201726F736B000151EC13F0EFEC7C
:1058300009F009D00101100E0201726F010E736FA1
:10584000000151EC13F001010001DFEF2CF0010128
:1058500074C1E9FF75C1EAFFEFCF00F0ECCF01F0B2
:10586000ECCF02F0ECCF03F000C08EF101C08FF15D
:1058700002C090F103C091F176C1E9FF77C1EAFF60
:10588000EFCF00F0ECCF01F0ECCF02F0ECCF03F063
:1058900000C092F101C093F102C094F103C095F1F0
:1058A000966B060E976F79C199F178C198F199C1FD
:1058B000BCF298C1BBF2000100EC0EF002C099F1FD
:1058C00001C098F1010E0101A06F8E0E9F6FA0C163
:1058D000B8F2E8CFB7F20201BA6B0C0EB96F000153
:1058E000DAEC0FF001C09AF101019A1F02C09BF19E
:1058F0009B1F79C19DF278C19CF2000193EC11F0DD
:1059000002C09DF101C09CF101019C519A5D03E12F
:105910009D519B5D07E00001FBEC1CF0010E016E48
:1059200052D00101C46BC36B0001EDEC1FF0010EFE
:105930000101A06F7A0E9F6FA0C1BFF2E8CFBEF247
:105940000201C16B140EC06F00016EEC07F0010E76
:1059500002019D6F7A0E9C6F0001CCEC0EF00101EC
:1059600086390F0B006E00360036FC0E0016005014
:10597000EC0F9E6F9E51785D9F6F000E7959A06F5E
:10598000140E9F5D786F000EA059796F010EA06F05
:105990007A0E9F6F75C1A2F174C1A1F10001FAEFF7
:1059A0001FF001520CE0010E0101A06F7A0E9F6FF3
:1059B00079C1A2F178C1A1F1000190EF23F0FBECD5
:1059C0001CF0010E016E7FEF2DF0C0EF18F0010109
:1059D000756B610E746F010E776F720E766F00013A
:1059E0002BEF1DF0015201E18BD001017251060A2B
:1059F000000103E0060A04E082D0D1EF1DF07FD061
:105A0000010E0101756F6E0E746F776B5D0E766F10
:105A1000010E796F730E786F010E7B6F6C0E7A6FCB
:105A20000001F6EF1EF0015201E169D00101732D72
:105A300053D029506E5D09E12A506F5D06E12B506D
:105A4000705D03E12C50715D39E06E3D07D06F3D14
:105A500005D0703D03D0713D01D030D029502D14B8
:105A6000746F2A502E14756F2B502F14766F2C5094
:105A70003014776F2DC000F0001E2EC001F0011E03
:105A80002FC002F0021E30C003F0031E005074113C
:105A9000006E01507511016E02507611026E0350B6
:105AA0007711036E00506E5D14E101506F5D11E1DE
:105AB0000250705D0EE10350715D0BE1756B5D0E80
:105AC000746F6DC177F16CC176F1000178EF1FF052
:105AD0000101000114D00101735106080FE1756B3B
