:1000000076EF09F068961200046ED8CF05F0E0CFC5
:1000100006F00001E9CF0CF0EACF07F0E1CF08F0DD
:10002000E2CF09F0D9CF0AF0DACF0BF0F3CF12F01C
:10003000F4CF13F0FACF14F000C00EF001C00FF0AF
:1000400002C010F003C011F0F2AA2AEF00F0F2B4DF
:1000500050EF08F0A0AA30EF00F0A1BAFCEF07F0D3
:100060000EC000F00FC001F010C002F011C003F08C
:100070000CC0E9FF07C0EAFF078E08C0E1FF09C016
:10008000E2FF0AC0D9FF0BC0DAFF12C0F3FF13C0B2
:10009000F4FF14C0FAFF045006C0E0FF05C0D8FF0B
:1000A0001000F76AB20FF66E000EF7220900F55045
:1000B0001200000302FFFFFFFFFFFFFFFFFFFFFF34
:1000C000FFFFF76AD20FF66E000EF7220900F55017
:1000D000120000FF02FFFFFFFFFFFFFFFFFFFFFF18
:1000E000FFFFF76AF20FF66E000EF7220900F550D7
:1000F000120040000B004000000000000000000063
:1001000000000000000000000000000000000000EF
:100110000000F76A220FF66E010EF7220900F55073
:10012000120040000000400000000000000000003D
:1001300000000000000000000000000000000000BF
:100140000000F76A520FF66E010EF7220900F55013
:10015000120009024300020100803209040000017C
:1001600002020100052400100104240202052406F5
:1001700000010524010001070581030B00FA0904B1
:100180000100020A00000007050202400001070505
:10019000820240000100F76AA60FF66E010EF722F8
:1001A0000900F55012000200F76AB80FF66E010E52
:1001B000F7220900F550120012171B20FFFFFFFF66
:1001C000F76AD00FF66E010EF7220900F550120003
:1001D000120110010200004005240B000001010281
:1001E0000001F76AF20FF66E010EF7220900F550D2
:1001F00012000403090408034300430053002003D2
:1002000043004300530020005500530042002000EB
:1002100074006F00200055004100520054006D92A0
:10022000699468A402D06894FCD708EF08F0400EE7
:100230000401016F040E036F180E026F880E006F29
:10024000046B040E076F580E066F0001120070A0B9
:1002500002D0EDDF7090689A0FEF08F06A6A68923A
:1002600014EF08F0B791B6BFB781B69FB65110082A
:1002700003E2000E016E20D0B7A110D0036AB65180
:10028000F2CFB8F0F29E0DDFB8BFF28EFF0802E1A8
:10029000000E01D0010E016E0FD00ED0036AB651D0
:1002A000F2CFB8F0F29E0DDFB8BFF28EFF0802E188
:1002B000000E01D0010E016E1200BB51BD03F3CF41
:1002C00001F0F4CF00F0BE03F3500026BC51BD0393
:1002D000F3500020026E1200036AB551700FE96EF0
:1002E0000F0E0320EA6EEF6AB5C0B6F0BBDF015215
:1002F00022E0BC6BB5C0BBF0BE6B080EBD6FDDDF8E
:1003000001C0E9FF040E0224EA6EEF6ABC6BB5C0BF
:10031000BBF0BE6B080EBD6FD0DF02C0B7F001C0EE
:10032000B6F0040EB627000EB723B6C0E9FF040EE0
:10033000B725EA6EEF6A1200010EB46FB4510F08D0
:1003400005E3B4C0B5F0C8DFB42BF8D71200AE6B2C
:10035000AD6B250EAC6F800EAB6FEA6A2B0EE96EAB
:10036000E26AAB0EE16E020E016EE6CFEEFF012EE9
:10037000FCD72D6A2E6AAB6BEA6A2F0EE96EE26A31
:10038000AB0EE16EE6CFEEFFAB6BEA6A300EE96EC4
:10039000E26AAB0EE16EE6CFEEFF080EAB6FEA6AE3
:1003A000310EE96EE26AAB0EE16EE6CFEEFF7D6BD9
:1003B0007C91336A326A7B6B1E907E6B1200286AD6
:1003C000276AAA6BAA5101080AE3036AAA51290FF6
:1003D000E96E000E0320EA6EEF6AAA2BF3D7B7DFAF
:1003E000186A010E196E176A12006A6A686A9F0E0F
:1003F0006B6E3D0E696E6E6A9FDFE1DF160E706EEA
:1004000068A602D0FFDDFCD76D9811DF030E226EC7
:1004100019EF08F0698468986D821EEF08F0689CF7
:1004200023EF08F0AFC023F0120023681200AD6B79
:10043000275028103CE0AD513F0839E31A5005E041
:10044000020A0EE0010A17E020D026C003F0255072
:10045000F2CFAFF0F29E75DEAFBFF28EAE6F15D069
:1004600026C003F02550F2CFAFF0F29EBADEAFBF48
:10047000F28EAE6F0AD026C003F02550F2CFAFF057
:10048000F29E9EDEAFBFF28EAE6F252AD8B4262A2A
:100490002750D8B428062706AD51AD2B580FE96E6A
:1004A000040EEA6ED8B0EA2AAEC0EFFFC1D72750DB
:1004B000281004E1AD51400801E0176AADC0AFF06B
:1004C000B1DF1200266A256A1A6A04011B51010A6B
:1004D000000107E0030A0BE0010A0DE0220A27E011
:1004E00049D0286A120E276E030E1A6E45D0286A6C
:1004F000430E276E41D0020E1A6E036A04011A5190
:100500001B0FE96E000E0320EA6E266AEFCF25F07E
:1005100026C003F02550F2CFACF0F29E000161DE60
:10052000ACBFF28E036A276E03C028F025D0036AA1
:1005300004011A51F2CFACF0F29E000135DEACBFDF
:10054000F28E036A256E03C026F0253C02D02652A7
:100550000FE026C003F02550F2CFACF0F29EF1DDA3
:10056000ACBFF28E036A276E03C028F005D002D01C
:100570005CDF11D05ADF0FD004011F5308E128526D
:1005800003E127501E5D03E2286A1EC427F0010E16
:10059000176E00014CDF11EF04F0AC5304E1040EC0
:1005A000226ECADEE9D0050E226E040EAF6F980EE1
:1005B000AE6F010EAD6FAD510F08D8A0DDD0ADC04C
:1005C000B5F08ADEB06B036AAD51F2CFB4F0F29EA3
:1005D00078DDB4BFF28EFF0865E0040EB06FD890EE
:1005E000AD35036AF2CFB4F0F29E93DD0900F5CF8A
:1005F00003F0B4BFF28EB16F03C0B2F0BC6BADC0FC
:10060000BBF0BE6B080EBD6F58DE01C0B4F0010E2A
:100610000124016E000E0220036E01C0E9FF040EEA
:100620000324EA6EB1C0EFFFBC6BADC0BBF0BE6B84
:10063000080EBD6F42DE01C0B4F0020E0124016E4F
:10064000000E0220036E01C0E9FF040E0324EA6ECF
:10065000AFC0ECFFED52AEC0EFFFD890AD35036AEE
:10066000F2CFB4F0F29E55DD0900F5CF03F0B4BF30
:10067000F28EAE270350AF23880EB36FB2A101D024
:10068000B381B2A301D0B383BC6BADC0BBF0BE6B72
:10069000080EBD6F12DE01C0E9FF040E0224EA6EEF
:1006A000B3C0EFFF036AAD51F2CFB4F0F29EF9DCB4
:1006B000B4BFF28EFF0845E0B083BC6BADC0BBF0A9
:1006C000BE6B080EBD6FF9DD02C0B5F001C0B4F01D
:1006D000040EB427000EB523020EB425016E000EE1
:1006E000B521036E01C0E9FF040E0324EA6EAFC01A
:1006F000ECFFED52AEC0EFFFD890AD35036AF2CFFC
:10070000B4F0F29EEEDC0900F5CF03F0B4BFF28E38
:10071000AE270350AF23BC6BADC0BBF0BE6B080E61
:10072000BD6FCBDD02C0B5F001C0B4F0040EB4273C
:10073000000EB523B4C0E9FF040EB525EA6E400EE5
:10074000EF6EB051060802E10E0EB06F036AAD51B4
:10075000F2CFB4F0F29EA5DCB4BFF28E010801E046
:10076000B089036AAD51700FE96E0F0E0320EA6E77
:10077000B0C0EFFFAD2B1FD70BEF04F004011951F0
:10078000000A00010DE0010A14E0020A1FE0060A57
:1007900029E0030A2EE00E0A2EE0010A32E040D0E2
:1007A00019C058F40401596B020E0001AF6F3ADE14
:1007B00038D004011A2D07D0010E19160001AF6BB5
:1007C00031DE03D00401000130DE2BD004011A2DEC
:1007D00006D019820001AF6B25DE03D004010001B1
:1007E00024DE1FD0020E176E1AC424F0AF6B1ADE7F
:1007F00018D068D616D018C058F4010EAF6F12DEAC
:1008000010D004011A51010809E31AC418F01AC4DF
:10081000ACF00001C2D6AF6B05DE0401000101D0CF
:1008200004DE86EF05F018C0ACF004011951000A8F
:10083000000105E00A0A0BE0010A2BE03CD00401AC
:10084000586B596B020E0001AF6FECDD35D0AC5325
:100850001EE0010EAC5D036AF2CFADF0F29E9BDCB0
:10086000ADBFF28E016E04011C5DD8A002D0000164
:100870000ED0036A1C51290FE96E000E0320EA6EA8
:10088000EFCF58F4010E0001AF6FCCDD01D0CDDD0C
:1008900013D0AC530EE0036A04011C51290FE96E1A
:1008A000000E0320EA6E1AC4EFFF0001AF6BBADD41
:1008B00001D0BBDD01D0B9DD86EF05F0AD91ACBF55
:1008C000AD81AC9FADA117D0BC6BACC0BBF0BE6B13
:1008D000080EBD6FF2DC02C0AFF001C0AEF0040E36
:1008E000AE27000EAF23AEC0E9FF040EAF25EA6EBF
:1008F000880EEF6E0DD0BC6BACC0BBF0BE6B080EAB
:10090000BD6FDBDC01C0E9FF040E0224EA6EEF6A72
:10091000FEEF04F0AD91ACBFAD81AC9FADA117D09F
:10092000BC6BACC0BBF0BE6B080EBD6FC6DC02C0BA
:10093000AFF001C0AEF0040EAE27000EAF23AEC084
:10094000E9FF040EAF25EA6E840EEF6E0ED0BC6B8D
:10095000ACC0BBF0BE6B080EBD6FAFDC01C0E9FFE1
:10096000040E0224EA6E840EEF6E04EF05F0AD91E2
:10097000ACBFAD81AC9FADA117D0BC6BACC0BBF020
:10098000BE6B080EBD6F99DC02C0B0F001C0AFF0C5
:10099000040EAF27000EB023AFC0E9FF040EB02550
:1009A000EA6EEFCFAEF00ED0BC6BACC0BBF0BE6B4E
:1009B000080EBD6F82DC01C0E9FF040E0224EA6E5E
:1009C000EFCFAEF0AEAF02D0AEB502D0000E01D088
:1009D000010E016E0EEF05F01CC4B6F043DC0152AF
:1009E00028E004011951010A000105E0020A09E0AA
:1009F000030A0DE01DD01CC4ACF060D7AF6B12DD54
:100A000018D01CC4ACF086D7AF6B0CDD12D004013B
:100A1000586B596B1CC4ACF00001A9D7015204E01B
:100A2000010E0401586F0001020EAF6FFBDC01D014
:100A3000FCDC86EF05F0FE0E236E120004011C2D77
:100A400001D002D01C5348E11951000A00010BE00B
:100A5000010A0DE0210A1CE0010A1FE0030A2EE052
:100A6000010A31E037D0010E7E6FE5DF34D0040E8D
:100A7000EA6E580EE96EE26A340EE16E080E016EFF
:100A8000E6CFEEFF012EFCD71EC4AFF0CBDC23D0A7
:100A9000020E7E6F7C81CFDF1ED0040EEA6E580EF0
:100AA000E96EE26A2B0EE16E070E016EE6CFEEFFF5
:100AB000012EFCD7070EAF6FB5DC0DD01AC47DF048
:100AC000AF6BB0DC08D01AC433F01BC432F0AF6B8C
:100AD000A9DC01D0AADC0401000186EF05F0176A49
:100AE000040118517F0B000A000107E0010A07E02A
:100AF000030A07E0230A07E008D040D607D093D6C0
:100B000005D06AD703D09AD701D08FDCB2EF07F0B7
:100B1000BC6BADC0BBF0BE6B080EBD6F5DEC01F0F1
:100B200001C0E9FF040E0224EA6EEFCFAFF0AE5130
:100B3000020806E1AFAD02D0AE6B02D0010EAE6F7F
:100B4000AE5103081AE1840EAF6FBC6BADC0BBF0B1
:100B5000BE6B080EBD6F5DEC01F002C0B3F001C0CA
:100B6000B2F0040EB227000EB323B2C0E9FF040EA8
:100B7000B325EA6E840EEF6E07D0AE2D03D0C80EFB
:100B8000AF6F02D0880EAF6FD890AD35036AF2CF49
:100B9000B2F0F29E89EC00F00900F5CF03F0B2BF8D
:100BA000F28EB06F03C0B1F0BC6BADC0BBF0BE6BDA
:100BB000080EBD6F5DEC01F001C0B2F0010E012422
:100BC000016E000E0220036E01C0E9FF040E032433
:100BD000EA6EB0C0EFFFB1A101D0AF81B1A301D0E7
:100BE000AF83BC6BADC0BBF0BE6B080EBD6F5DECE0
:100BF00001F001C0E9FF040E0224EA6EAFC0EFFF6E
:100C00001200036ABA51700FE96E0F0E0320EA6EEC
:100C1000EF5219E0BC6BBAC0BBF0BE6B080EBD6FE3
:100C20005DEC01F002C0BCF001C0BBF0040EBB27BC
:100C3000000EBC23BBC0E9FF040EBC25EA6EEFCF5B
:100C4000BDF0BDAF02D0000E01D0010E016E12004A
:100C5000B5C0BAF0D6DF0152D8B47DD0BC6BB5C0F8
:100C6000BBF0BE6B080EBD6F5DEC01F002C0BBF0C7
:100C700001C0BAF0040EBA27000EBB23010EBA253C
:100C8000016E000EBB21036E01C0E9FF040E0324B8
:100C9000EA6EB6C0EFFFB85102081EE1BC6BB5C0EA
:100CA000BBF0BE6B080EBD6F5DEC01F002C0BBF087
:100CB00001C0BAF0040EBA27000EBB23BAC0E9FF88
:100CC000040EBB25EA6EEFCFB9F0B9AD02D0B86B18
:100CD00002D0010EB86F18D0B851040815E1BC6BF2
:100CE000B5C0BBF0BE6B080EBD6F5DEC01F001C07E
:100CF000E9FF040E0224EA6EEFCFB9F0B9AD03D0DC
:100D0000010EB86F01D0B86BB82D03D0C80EB96F03
:100D100002D0880EB96FB7A101D0B981B7A301D0B5
:100D2000B983BC6BB5C0BBF0BE6B080EBD6F5DEC8C
:100D300001F002C0BBF001C0BAF0040EBA27000EE9
:100D4000BB23BAC0E9FF040EBB25EA6EB9C0EFFFB2
:100D5000010E016E02D0000E016E12007E51010ADA
:100D600003E0030A13E024D0EA6A340EE96E040EAD
:100D7000E26E180EE16E080E016EE6CFEEFF012E58
:100D8000FCD7AF6B12EC02F07E6B13D0EA6A2B0E2D
:100D9000E96E040EE26E180EE16E070E016EE6CFEC
:100DA000EEFF012EFCD77E6BAF6B12EC02F001D090
:100DB0007E6B0FEF07F0BC6BADC0BBF0BE6B080ED7
:100DC000BD6F5DEC01F002C0AFF001C0AEF0010EEE
:100DD0000124016E000E0220036E01C0E9FF040E23
:100DE0000324EA6E036AEFCF01F003C002F005EFBF
:100DF00007F01E90020EAD6FAE6F8ADE0AEF07F0AD
:100E00001E80206A020EAD6FD6D701C01FF01F52A0
:100E100001E1EFD714EF07F0AC5302E19FD704D004
:100E2000AC51020801E1ECD71200ADC06EFFAD532A
:100E300003E0040E226E02D0020E226E25EF07F0B0
:100E4000186A176A24C0ADF0F0D791EF07F0ADC073
:100E5000BAF0D7DE015243E0BC6BADC0BBF0BE6B55
:100E6000080EBD6F5DEC01F002C0B6F001C0B5F038
:100E7000040EB527000EB623020EB525016E000E36
:100E8000B621036E01C0E9FF040E0324EA6EECCF25
:100E9000B4F0ED52EFCFB3F0B4C0EAFFB3C0E9FF56
:100EA000AFC0E2FFAEC0E1FFB1C002F0B0C001F0E0
:100EB000015202E0022A02D0025206E0E6CFEEFF23
:100EC000012EFCD7022EFAD7ADC0B5F0B1C0B7F0F5
:100ED000B0C0B6F0B2C0B8F0BBDE015002D0000E18
:100EE000016E12007B530EE0020EAD6FAF6B3C0E35
:100EF000AE6FB16B7BC0B0F0020EB26FA8DF0152D3
:100F000001E07B6B1200EEDF96EF07F0AC530AE1D5
:100F1000172C03D017EC02F004D017500208D8B4F5
:100F20008FD704D0AC51020801E1EDD71200213077
:100F3000AA6FAA33AA331F0EAA17215241E1040156
:100F400000513C0B0001AB6F430E04010017000180
:100F5000AB5134081EE104010451800B01E0046B25
:100F60000001BDD56D98233C05D0AD6B030EAE6F6F
:100F7000CFDD0ED0AD6B020EAE6FCADD2350FE0882
:100F800007E0B56BB76B23C0B6F0040EB86F60DE38
:100F900016D0AB51040813E1AC6B3EDFAD6B020E13
:100FA000AE6FB6DD2350FE080AE0233C01D007D027
:100FB000B56BB76B23C0B6F0010EB86F49DE1AD01F
:100FC000215004080EE12368AC6BA0DF233C01D064
:100FD00007D0B56BB76B23C0B6F0020EB86F38DE22
:100FE00009D021B404D0AAC0ACF016DF03D0AAC047
:100FF000ACF08CDF2DEF08F0A19A2252D8B433D098
:101000006852D8B430D068A403D069B40FEF01F0AF
:101010006DB229D068AA03D069BA27EF01F068A29F
:1010200003D069B22EEF01F068A003D069B0F5EFEC
:1010300001F068A803D069B80AEF02F068AC03D0E9
:1010400069BC0FEF02F0A96B68A608D069A606D0AC
:101050006CCF21F002EC00F06AD701D004D0A95186
:10106000A92B0308F1E230EF00F0DFEC01F06D6A2C
:10107000140E6F6E696A6D86010E226E12006DB6D7
:1010800001D0F3DF222C0BD06DBA09D0686A696AEF
:10109000A08AC00EF212110E696E020E226E1200AC
:1010A000EEDFF29430EF00F00D256C752073656370
:1010B00000006D6A696A080E6F6E94503009946E74
:1010C000226A166AF2BE168EF29EDFEC01F016BEA0
:1010D000F28E6CEF08F0EDD78BEF09F01850016E2F
:1010E0001200EA6A8F0EE96EEF500EE00F0E016EED
:1010F000006A002EFED7012EFBD78F0E006E002E49
:10110000FED70000EF2EF2D7120082C0EAFF81C0A6
:10111000E9FF97C0EFFFE92AD8B4EA2AEF6A812BEA
:10112000D8B4822B1200EACF96F0E9CF95F08F3930
:10113000F009916F9127E20F926F320F946F8F51E8
:101140000F0B922792279427E90F936F93279327EA
:101150008E390F0B9327942793379437941F943726
:101160008E510F0B94279137070E906F0A0E93073D
:101170009427FDE392079327FDE391079227FDE370
:1011800090079127FDE3EA6A900EE96E070E951528
:10119000959DE926000EEA22E950940803E1EA52FF
:1011A00001E1958DEF50006E08E195BD06D095B92F
:1011B00013D095B702D0200E03D095879599300EA5
:1011C0000026EACF8FF0E9CF8EF000C097F09DDFC8
:1011D0008FC0EAFF8EC0E9FFEE5095ADDDD7CAEFB4
:1011E00009F00900F6CF8FF0F7CF90F0F5CF97F028
:1011F0008CDF8FC0F6FF90C0F7FF8E2FF2D7D1EFB4
:1012000009F092C094F091C093F094C003F093C0A1
:10121000E9FF94C0EAFFEF5204E0932BD8B4942B7B
:10122000F4D79151935D006E92519459036E00C0B2
:1012300001F06AEF09F09791A0BA9781A09A7B51CB
:101240003E0802E23E0E7B6F7B517B2B036A3C0F14
:10125000E96E000E0320EA6E96C0EFFF97A101D061
:10126000A08A54EF09F0946B166AF2BE168EF29EB5
:10127000020EBA6FC6DC16BEF28E015203E1000EFA
:10128000016E21D093519307000A14E092C003F03D
:101290009151912BD8B4922BE96E03C0EAFFEFCFA6
:1012A00095F095C096F0C7D7942B94513F0801E272
:1012B00001D0E8D7166AF2BE168EF29E13DE16BE75
:1012C000F28E010E016E73EF09F08FC092F08EC0A6
:1012D00091F097D701C090F08FC092F08EC091F03E
:1012E00090C093F0C0D70150D5EF09F0F86AD09EB6
:1012F000078E826B816BC150C00B0F09C16E070E48
:10130000B46E1B6A040E1C6E0C0E1D6E7F6B806B20
:101310008D6B8C6BE0D6880ED56EE0DE015219E144
:1013200095928C82C80E8F6FDCDE166AF2BE168E26
:10133000F29EA5DE16BEF28E95928C92C80E8F6F2D
:10134000D0DE166AF2BE168EF29E99DE16BEF28EC0
:10135000E4D795928C92F28AC00EF212040E8E6F30
:10136000FA0E8F6FBEDE8E2FFBD7B8DE015202E081
:1013700095908C808C2BD8B48D2B826B830E816FD3
:101380000D0E976FC2DE100EE96E8DC08FF08CC00F
:101390008EF0C9D6AC0EF66E100EF76E040E8E6F80
:0E13A00020D78F6B830E8E6F90D7D8D70300A7
:020000040030CA
:0E00000024CE3E1E0007A1000FC00FE00F40EF
:00000001FF
;PIC18F4550
;CRC=B45E  CREATED="30-ян-14 21:30"
