:0400000025EF05F0F3
:08000800046ED8CF05F0E0CF33
:1000100006F00001E9CF0CF0EACF07F0E1CF08F0DD
:10002000E2CF09F0D9CF0AF0DACF0BF0F3CF12F01C
:10003000F4CF13F0FACF14F000C00EF001C00FF0AF
:1000400002C010F003C011F0F2AA2AEF00F0F2B4DF
:1000500058EF00F00EC000F00FC001F010C002F029
:1000600011C003F00CC0E9FF07C0EAFF078E08C00B
:10007000E1FF09C0E2FF0AC0D9FF0BC0DAFF12C0DE
:10008000F3FF13C0F4FF14C0FAFF045006C0E0FFF2
:1000900005C0D8FF1000F2A409D0010E6A26D8B01E
:1000A0006B2AD8B46C2AD8B46D2AF29459EF00F0B8
:1000B000F2D72AEF00F0C00E236EA80E246E640E55
:1000C000256E070E266EC00E2B6EA80E2C6E640ECB
:1000D0002D6E010E2E6E2768286829682A6A96EF11
:1000E00005F0C00E236EA80E246E010E256E6E0E56
:1000F000266EC00E2B6EA80E2C6E010E2D6E2E6E6F
:100100002768286829682A6A98EF05F0506A020E65
:10011000516E030E526E040E536E050E546E070E92
:10012000556E9AEF05F08C929E96D851A009C96E33
:100130009EA6FED79E96C9CFDAF0D9C0C9FF9EA66B
:10014000FED79E96C9CFDAF08C821200EA6ACC0EF6
:10015000E96EEF500EE00C0E016E006A002EFED725
:10016000012EFBD7F70E006E002EFED700D0EF2E2B
:10017000F2D712001E0ED86F200ED96FD4DF010EF9
:10018000CC6FE4DF8C929E96C9689EA6FED79E96A1
:10019000C9CFCBF08C82010ECC6FD8DF90EF01F08D
:1001A0008C929E96D8C0C9FF9EA6FED79E96C9CFB8
:1001B000D9F0C96A9EA6FED79E96C9CFD9F08C8287
:1001C000D9C001F012008C929E96EF514009C96E81
:1001D0009EA6FED79E96C9CFF1F0F0C0C9FF9EA69D
:1001E000FED79E96C9CFF1F08C8212008C929E961B
:1001F0007A0EC96E9EA6FED79E96C9CFEEF0EDC0D0
:10020000C9FF9EA6FED79E96C9CFEEF08C82120043
:100210008C929E96D8518009C96E9EA6FED79E9656
:10022000C9CFDAF0D9C0C9FF9EA6FED79E96C9CF26
:10023000DAF08C8212001F0ED86F030ED96F73DFB5
:10024000D16BCE0ED06F010ED025E96E000ED121FC
:10025000EA6EEFCFD2F01F0ED86FD2C0D9F0D8DF40
:1002600012008C929E96CEC0C9FF9EA6FED79E9687
:10027000C9CFCFF0C96A9EA6FED79E96C9CFCFF050
:10028000C96A9EA6FED79E96C9CFCFF08C82CFC0FA
:1002900001F07AEF01F0020ECF6F140ECE6FCBDFBC
:1002A000140EEF6FCBC0F0F08EDFCF6BCC0ECE6FA5
:1002B000E96ECFC0EAFFEFCFD0F0160EEF6FD0C0DF
:1002C000F0F081DFCF6BCC0ECE6F010ECE25E96E44
:1002D000000ECF21EA6EEFCFD0F0170EEF6FD0C037
:1002E000F0F071DF030ECF6F0A0ECE6FA4DF0A0E9F
:1002F000CE6FB7D701C0CEF0000E01B0010E000ADC
:10030000F6E1CF6BCE6B97DF12008C8295929496BC
:10031000949A94889E96200EC66EC78CC79E2AD744
:100320001D0ED86F3DDF01C0CAF0CAB7F8D7CA5159
:10033000FF0A010BF4E16182756A746A080EEF6FBF
:10034000F06B41DF090EEF6FF06B3DDF0C0EEF6FCE
:10035000090EF06F38DF0D0EEF6F1A0EF06F33DFFE
:100360000A0EEF6F090EF06F2EDF0B0EEF6F1A0EF5
:10037000F06F29DF040EEF6F0A0EF06F24DF050E19
:10038000EF6F1A0EF06F1FDF020EEF6F0A0EF06FA5
:100390001ADF030EEF6F1A0EF06F15DFED6B26DF1D
:1003A000020ECF6FCE6B47DFEF6B0D0EF06F0BDFE2
:1003B000020EEF6F320EF06F06DF040EEF6F120EBB
:1003C000F06F01DF030EEF6F400EF06FFCDE090EE1
:1003D000EF6F3F0EF06FF7DE060EEF6F120EF06F4D
:1003E000F2DE070EEF6F0C0EF06FEDDE0A0EEF6F10
:1003F000EE0EF06FE8DE0B0EEF6F050EF06FE3DE32
:10040000030ECF6F040ECE6F16DF040EEF6F50C0D9
:10041000F0F0D9DE050EEF6F51C0F0F0D4DE020E21
:10042000EF6F52C0F0F0CFDE030EEF6F53C0F0F06D
:10043000CADEEF6B54C0F0F0C6DE010EEF6F55C0A0
:10044000F0F0C1DE150EEF6FF06BBDDE120ED86F4F
:10045000A7DE01C078F0100ECB6F010ECD6FCC6B14
:100460001ADF140ECB6F340ECD6F720ECC6F13DF0C
:10047000CB6BCD6BCC6B0FDFCF6BCE6BDCDE1F0E8F
:10048000D86F040ED96FC4DE9CEF05F0016603D06F
:10049000026602D007D0022A00C0EEFF012EFCD770
:1004A000022EFAD7A4EF05F01F0ED86F79DE01C037
:1004B000CAF0000E01B6010E000A02E0000E01D0E3
:1004C000010E016EACEF05F0EAC0ECF0E9C0EBF014
:1004D000ECC0EDF0EBC0ECF0EDC0EBF0EBC001F0E8
:1004E000ECC002F01200020EE325016E000EE421C2
:1004F000036E01C0E5F0E66F020EE325E96E000E23
:10050000E421EA6EECCFE8F0ED52EFCFE7F0E8C07F
:10051000EAF0E7C0E9F0D8DFE6C0EAFFE5C0E9FFAE
:1005200002C0ECFFED5201C0EFFF040EE325016EA7
:10053000000EE421036E01C0E5F0E66F040EE32532
:10054000E96E000EE421EA6EECCFE8F0ED52EFCF59
:10055000E7F0E8C0EAF0E7C0E9F0B6DFE6C0EAFF9E
:10056000E5C0E9FF02C0ECFFED5201C0EFFF0A0E4B
:10057000E325016E000EE421036E01C0E5F0E66F95
:100580000A0EE325E96E000EE421EA6EECCFE8F0F6
:10059000ED52EFCFE7F0E8C0EAF0E7C0E9F094DF12
:1005A000E6C0EAFFE5C0E9FF02C0ECFFED5201C082
:1005B000EFFFEBEF03F0D890E831EA6FE731E96F36
:1005C000E6C0ECF0E5C0EBF0F06BEF6BEE6BED6BC3
:1005D000EAC003F0E951D8B4EA07E90703101EE0C6
:1005E000ECC003F0EBC000F0020EEB27D8B0EC2B10
:1005F00000C0E9FF03C0EAFFECCF03F0ED52EFCFFC
:1006000000F003C001F0026A036A0050ED270150B8
:10061000EE230250EF230350F023DAD7E751010B0A
:10062000006E036A0050031013E0ECC003F0EBC04F
:10063000E9FFECC0EAFFEFCF00F0016A026A036A4B
:100640000050ED270150EE230250EF230350F0231A
:10065000F46BF36BEEC0F2F0EDC0F1F0EFC000F020
:10066000F0C001F0026A036AEF51ED25ED6FF05121
:10067000EE21EE6F0250F321EF6F0350F421F06F83
:10068000EF51ED27F051EE23EEC003F0031EED51C4
:10069000FF0A016E03C002F0F5EF03F08C929E9604
:1006A0007A0EC96E9EA6FED79E96C9CFF2F0F05183
:1006B000F11113E0EEC0E9FFEFC0EAFFEFCFC9FF91
:1006C000EE2BD8B4EF2BF051D8B4F107F0079EA66B
:1006D000FED79E96C9CFF2F0EAD78C821200020EA6
:1006E000EF6F0B0EF06F6FDD030EEF6F1A0EF06FF2
:1006F0006ADD180EEA271A0EEB23ED6BEA0EEC6F9B
:10070000E96EEDC0EAFFEFCFEEF0060EEF6FEEC040
:10071000F0F059DDED6BEA0EEC6F010EEC25E96EA1
:10072000000EED21EA6EEFCFEEF0070EEF6FEEC098
:10073000F0F049DDE8C0EFF0E7C0EEF0F16B060E37
:10074000F06FACDFED6B500EEC6FEDC0EFF0EE6FC5
:10075000F16B060EF06FA2DF080EED6F47DDE95377
:1007600002E1000E01D0060EEC6FED6F3FDD11EFE0
:1007700004F0140E7B6E450ECF6FD06B140ECD259A
:10078000D16F000ECE21D26F792AD8B47A2A7AC0DE
:10079000D4F079C0D3F0D66BD56B640ED76FCCC0D4
:1007A000D8F0DA6BD96B26C0DEF025C0DDF024C0AE
:1007B000DCF023C0DBF0CAC0E9FFCBC0EAFFEFCF1B
:1007C000DFF0ECCFE0F0ECCFE1F0ECCFE2F0E46B67
:1007D000CF0EE36F88D6E46BCF0EE36FE4C0E6F094
:1007E000E56FE86B140EE76FE6D602C0DAF001C0E1
:1007F000D9F0040ECA25016E000ECB21036E01C094
:10080000E3F0E46F140ECD25E56F000ECE21E66F08
:1008100003C0E8F001C0E7F0E96BEB6FE5C0EAF078
:100820005ED7E46BCF0EE36FE4C0EFF0EE6FF16BD9
:10083000140EF06F33DF000E016E026EB7EF05F09D
:100840008C929E963A0EC96EDF6BDE6BDA51DB112D
:1008500004E0DA51D8B4DB07DA079EA6FED79E96ED
:10086000C9CFE0F0DF51DD5D1EE303E1DC51DE5D69
:100870001AE2C96ADE2BD8B4DF2BDA51DB110DE0A6
:10088000DA2BD8B4DB2B9EA6FED79E96DAC0E9FF02
:10089000DBC0EAFFC9CFEFFF05D09EA6FED79E962C
:1008A000C9CFE0F0DFD78C82DEC001F0DFC002F0FC
:1008B00012001F0ED86F800ED96FAADC1F0ED86FE2
:1008C000800ED96F30DC1C0ED86F0A0ED96F2BDC6E
:1008D0001F0ED86F080ED96F9BDC7850050804E016
:1008E00078500608D8A4AFD0CB6BCA6B1C0ED86F5B
:1008F00057DC0150D86F0A0B0AE1CA2BD8B4CB2BB6
:10090000CB51030804E3F2E1CA51E708EFE21C0E01
:10091000D86F46DC01C0D8F0000E01B2010E000A0B
:100920000AE1CB510208D8B08ED0FF0A04E1CA51C7
:10093000E708D8B088D01F0ED86F080ED96F93EC97
:1009400000F0D86B2DDC01C0CCF0010ED86F28DC94
:1009500001C0CDF0060ED86F23DC01C0CEF0070E2B
:10096000D86F1EDC01C0CFF0CE2BD8B4CF2BEF6BED
:10097000CEC0F0F028DC010EEF6FCFC0F0F023DC2A
:10098000D96BD00ED86FD9C0DBF0DA6FDD6B070EF4
:10099000DC6F56DFD76BD7510F084AE31C0ED86FB8
:1009A000D0EC00F001C0D8F0000E01B2010E000A38
:1009B0003CE0D3AB3AD01F0ED86F800ED96F28DC45
:1009C0001F0ED86F800ED96F93EC00F01C0ED86FFD
:1009D0000A0ED96F93EC00F01F0ED86F080ED96F76
:1009E00017DC1C0ED86FD0EC00F00150D86F0A0B4A
:1009F000F8E01F0ED86F080ED96F93EC00F0EF6B84
:100A0000CEC0F0F0E3EC00F0010EEF6FCFC0F0F0DD
:100A1000E3EC00F0D96BD00ED86FD9C0DBF0DA6F01
:100A2000DD6B070EDC6F0CDF01D002D0D72BB3D704
:100A3000EF6BCCC0F0F0E3EC00F0010EEF6FCDC037
:100A4000F0F0E3EC00F0BFEF05F0F86AD09E078EFF
:100A50007E0E006E100E016E020EE96E000EEA6E42
:100A6000EE6A002EFDD7012EFBD7166AB886110E4E
:100A7000AF6E040EB06EA60EAC6E900EAB6E6190B3
:100A8000410E656EFE0E646E9F0E636E9E0E626E6C
:100A90006D6A6C6A6B6A6A6A7A6A796A6194B16B28
:100AA000B06BC150C00B0F09C16E070EB46E1BD0E6
:100AB0000400904500002004C000188064112A9DA5
:100AC0000A0B0C0D0A0B0C0E04000401000C0000B4
:100AD000010203040E00B20102030405060708091F
:100AE000880920606400000EF86E0A0EF76EB00EE2
:100AF000F66E0900F550006E000A13E00900F5508B
:100B0000016EE8BE05D00F0BEA6E0900F5CFE9FFD4
:100B100001BC090001AC0900F5CFEEFF004EE9D79A
:100B2000F9D7F86A000E936E5BEF00F071EF00F0FA
:100B300086EF00F085EF01F0EA6AC40EE96E006806
:100B4000026A060E016EA2D4C00EC06FA80EC16F5D
:100B5000010EC26FC36FA8D401521BE0CB6BC00E55
:100B6000CA6F110ECC6FCE6B140ECD6F02D6EF6B29
:100B7000B20EEE6FF16B0E0EF06F90DD9AD6929A78
:100B8000897A040ECA6FFA0ECC6FA6EC00F0CA2F59
:060B9000FAD7E1D70300D3
:020000040030CA
:0E00000000C61E1E008781000FC00FE00F40DB
:00000001FF
;PIC18F4620
;CRC=7B04  CREATED="09-май-14 21:47"
