:1000000000308A00B12800008316861383128613FD
:100010008316851083128510831605108312051030
:100020008316061383120613831685138312851312
:100030008316051383120513831603178113831286
:1000400003130800831606148312061825280830A7
:10005000F700A601F7173A28F7133A2803100618F5
:100060000314A60C77173A287713F70B2E282608C7
:10007000F80046281C30F71B0730F800F80B3E2824
:100080000000F71B2C28771B34282E28CF28273078
:1000900084008313000803195B280130F800F7017E
:1000A000F70B5028F80B4F284A30F700F70B56286B
:1000B0005928800B4D280800831606138312061753
:1000C0008316851083128510831605108312051080
:1000D0008316861383128613EC2883160613831265
:1000E0000617831685108312851483160510831254
:1000F00005148316861383128613FC2883160613B1
:10010000831206138316851083128510831605103B
:100110008312051083168613831286131329831600
:10012000061383120617831685108312851483160F
:100130000510831205148316861383128613080094
:1001400083160613831206178316851083128514EF
:1001500083160510831205108316861383128617E3
:10016000080003081F39830083168E1505108312BB
:1001700005146330A000A101A201A301A40107306E
:100180009F008313810183160108C039073881005D
:10019000640083128B16C0308B0404202228780858
:1001A000A50020082502031DD7280130A100210B3E
:1001B000832983168513831285171430A7004720DF
:1001C000831686168312861AF128A208031DF128C9
:1001D0001430A70047205C280130A2002D30A70072
:1001E0004720831686168312861A0129220B0129BD
:1001F0001430A70047206D280230A2002D30A70040
:100200004720831686168312861A18292208023C74
:10021000031D182983168615831286191829143090
:10022000A70047207E280330A2002D30A7004720DA
:1002300083160615831206196D292208023C03183D
:100240006D290330A200831686168312861A54295C
:100250002208033C031D5429831686158312861D2C
:100260005429A408031D54291430A70047208F20C7
:100270000430A2000530A6006E30A7004720A60B70
:100280003C298101A301831686168312861E4C2900
:100290002308113C031C4E29A02043298F20013044
:1002A000A4002D30A7004720831686168312861AD5
:1002B0006C292208033C031D6C29831686158312C2
:1002C000861D6C29240B6C29831686168312861AC8
:1002D0006B29A02064298F20182983168616831283
:1002E000861A82292208023C031882298316861561
:1002F0008312861D82290420A101A401A201643079
:0A030000A7004720D728CE2863008D
:02400E00503F21
:00000001FF
;PIC16F628A
;CRC=3AB3  CREATED="22-рту-15 23:00"
