:0600000080319B2C000082
:0800080083018031200077081C
:10001000A0007808A1007908A2007A08A3002300B4
:1000200011082000A400230012082000A5002300CE
:1000300013082000A600230014082000A7008B1D31
:1000400023280B183C282008F7002108F800220874
:10005000F9002308FA002408230091002000250855
:100060002300920020002608230093002000270888
:1000700023009400090020008031942821000E13F1
:1000800022000E13240011082000400824009100D3
:10009000140C031C48281108F80021000E1322003C
:1000A0000E172000080021008E1122008E11FF3053
:1000B0002000C0003E207808BB0021008E112200E5
:1000C0008E1520003B08F80008001F30BC052100F9
:1000D0008E1122008E1120003C082038BF00C00085
:1000E0003E207808BE003D08C0003E2021008E1151
:1000F00022008E1520003E08F80008001F30BB05C6
:1001000021008E1122008E1120003B08C0003E20ED
:10011000C0013E207808BC0021008E1122008E15FF
:1001200020003C08F800080021008C1222008C16E8
:100130002000532078087039BA003A08403A031971
:10014000A828603A0319B228303A0319BC28DD28E0
:100150002B1453207808BB000730BC007808BD0082
:100160006520DD28AB1453207808BB000730BC00A5
:100170007808BD006520DD282B1553207808BB00CA
:100180000730BC007808BD00652021008E112200D8
:100190008E11E1302000C0003E2021008E1122008F
:1001A0008E1517302000BB007E20781EDB28013022
:1001B000F800DD28DD280030F800270013110B10AF
:1001C000803120002328D232E332693B653220326D
:1001D000613A61103D10A53A0A0054346539651042
:1001E000E939A0366F396510E430F430A0346E3A46
:1001F0006F10522C20317533E632F2100A00C430F1
:10020000F430A03965377416A020C3252039E531B4
:10021000E534F632E4100A00CD307810F232743949
:100220006137F336693AE9376E10E3377537741082
:10023000F232E131E83264172028E131EB327410F8
:10024000EE377410F3326E3A21050000C3274E23B7
:10025000C923A01EA0125805003545275F29D820C4
:10026000442252103D10252C0A00D322D42AD02F2C
:10027000D2225429A01EA012580500015223DF21CA
:1002800048103D10252C0A005223DF29452A552805
:10029000A01EA01258050001522C5F28D72F50181D
:1002A000A01EA01258050001C622412A552945105A
:1002B0003D10252C0A00043065007830210099009B
:1002C0008B15270012151111C0308B04131121005A
:1002D0008C1222008C1280312000D12C203085001D
:1002E0000E3084000008031983290530F800F70157
:1002F000F70B7829F80B77292E30F700F70B7E29BA
:100300008129800B7529080021000E1222000E128F
:1003100021008E1122008E15FA302000AE006E21D1
:100320008031D22C0B088B13230095171514000075
:100330000000891B8B170318C62913087F3920007A
:10034000B100230011082000B20023001208200091
:10035000B3003108111EAA2923009A002000320898
:100360002300910020003308230092000B088B1318
:100370009517151400000000891B8B172000AF0B88
:10038000C229C4292300C629E7292300130D140D0F
:100390007F392000B100230011082000B2002300A3
:1003A00012082000B3003108111ED42923009A003E
:1003B000200032082300910020003308230092001F
:1003C000910A0319920A03102000AF0B922908002A
:1003D000B01BFD290F30F7002F0EF7050A3077020A
:1003E0000318F5293030F707F7293008F7077708A1
:1003F000111EF82923009A0020000F30AF050A30A3
:100400002F020318052A3030072AB0133008AF072F
:100410002F08111E092A23009A0020000800A801B5
:100420008B1BA8178B13BC010B30BD006520A81BCC
:100430008B17A8018B1BA8178B130230BC0001304F
:10044000BD006520A81B8B17A8018B1BA8178B1359
:100450000430BC001530BD006520A81B8B17A80117
:100460008B1BA8178B130530BC00BD016520A81B92
:100470008B17A8018B1BA8178B130630BC002630E6
:10048000BD006520A81B8B17A8018B1BA8178B1319
:100490001130BC000130BD006520A81B8B17A801DE
:1004A0008B1BA8178B131D30BC000130BD006520CD
:1004B000A81B8B170230AE006E2121000E12220005
:1004C0000E162000A8018B1BA8178B13BB017E20E2
:1004D000A81B8B177808AE0026302300910001304E
:1004E0009200031009302000AF0092212E08AF00C7
:1004F0003730B000E8210A30111E7C2A23009A0010
:100500002000A8018B1BA8178B130230BB007E2094
:10051000A81B8B177808AE002D3023009100013006
:10052000920003100C302000AF0092212E08AF0083
:100530003730B000E8210A30111E9C2A23009A00AF
:100540002000A8018B1BA8178B130430BB007E2052
:10055000A81B8B177808AE003530230091000130BE
:10056000920003100D302000AF0092212E08AF0042
:100570003730B000E8210A30111EBC2A23009A004F
:100580002000A8018B1BA8178B130530BB007E2011
:10059000A81B8B177808AE003E3023009100013075
:1005A0009200031008302000AF0092212E08AF0007
:1005B0003730B000E8210A30111EDC2A23009A00EF
:1005C0002000A8018B1BA8178B130630BB007E20D0
:1005D000A81B8B177808AE0044302300910001302F
:1005E000920003100B302000AF0092212E08AF00C4
:1005F0003730B000E8210A30111EFC2A23009A008F
:100600002000A8018B1BA8178B131130BB007E2084
:10061000A81B8B177808AE004C30230091000130E6
:10062000920003100B302000AF0092212E08AF0083
:100630003730B000E8210A30111E1C2B23009A002D
:100640002000A8018B1BA8178B131D30BB007E2038
:10065000A81B8B177808AE0054302300910001309E
:10066000920003100A302000AF0092212E08AF0044
:100670003730B000E8210A30111E3C2B23009A00CD
:1006800080312000D32C3108F801300203184B2BA5
:100690003008F700572BF7010830B200B00DF70D06
:1006A000310877020318F700F80DB20B4E2B080043
:1006B0000B088B1323009517151400000000891BED
:1006C0008B1713087F390319A62B2000AE002300D7
:1006D00011082000AF00230012082000B0002E08EF
:1006E000111E702B23009A0020002F082300910078
:1006F00020003008230092000B088B139517151467
:1007000000000000891B8B17130D140D7F3903198E
:10071000A62B2000AE00230011082000AF0023000C
:1007200012082000B0002E08111E942B23009A00FE
:1007300020002F08230091002000300823009200A1
:10074000910A0319920A2000582B23002000080068
:100750002B1C512C2B102030AF000C30AE00013080
:10076000B0002F08B2002E08B10021008E11220027
:100770008E112000A8018B1BA8178B136130C000BD
:100780003E20A81B8B17B301300833020318DA2B65
:100790003308310784000030323D8500A8018B1BEF
:1007A000A8178B13C0013E20A81B8B177808800068
:1007B000B30AC42B21008E1122008E152000A8013F
:1007C0008B1BA8178B131730BB007E20A81B8B1721
:1007D000781CEE2B0130F800F02BF02B0030F800E5
:1007E000F8080319442CE3302300910000309200F4
:1007F000031010302000AF0092212C08AE001B30F7
:10080000AF002E08B0006430B10043237708AE007B
:1008100078083030031D132CAF1C1D2CAF191D2C74
:100820002F1A2030162CAF112F122F14F80778082A
:10083000111E182C23009A0020002E08B0000A3048
:10084000B10043237708AE0078083030031D2E2C0A
:10085000AF19352C2F1C352C2F1A2030F8077808AB
:10086000111E302C23009A0020003030AE072E08D5
:10087000111E382C23009A000A302000111E3E2C35
:1008800023009A004C2C2000ED3023009100003012
:10089000920020005823230021008C1222008C1289
:1008A0002000AB1C602CAB10FF3023009100003007
:1008B00092002000582321008C1222008C1220006C
:1008C0002B1D6F2C2B110C30230091000130920056
:1008D0002000582321008C1222008C12200080312D
:1008E000D42C111C782CA90A0319AA0A1110872CE0
:1008F0001708FA001608F70017087A02031D782C6B
:100900007708111C902CA90A0319AA0A11101708BC
:10091000FA001608F70017087A02031D872C7708DB
:100920007A08F7002908F8002A08F900F90CF80CF1
:10093000F70C8031D52C7A302100990024009512D3
:1009400040309400013092002A30950021008E132F
:100950000D160E130D130E1322000E1723009F15F4
:10096000A0309B0001309C00A6309E0090309D007E
:100970002000AA01A90122009D1135302000980015
:100980009901960197019601111023008C018D01A8
:100990008E01220092019101940193012000AB018C
:1009A0005B2984290F2AA82B712C7808AF007708BF
:1009B000AE002F08003C0318E42CFF3A031DE42C82
:0C09C0002E08F43C0318E42CD32C630038
:020000040001F9
:04000E008409FF1F43
:00000001FF
;PIC16F1508
;CRC=D3E2  CREATED="21-ώνθ-15 17:59"
