:10000000F2EF08F068961200046ED8CF05F0E0CF4A
:1000100006F00001E9CF0CF0EACF07F0E1CF08F0DD
:10002000E2CF09F0D9CF0AF0DACF0BF0F3CF12F01C
:10003000F4CF13F0FACF14F000C00EF001C00FF0AF
:1000400002C010F003C011F09DAA2AEF00F09EBA82
:100050009EEF08F0F2AA30EF00F0F2B47CEF08F067
:10006000A0AA36EF00F0A1BA25EF08F00EC000F00C
:100070000FC001F010C002F011C003F00CC0E9FF86
:1000800007C0EAFF078E08C0E1FF09C0E2FF0AC00F
:10009000D9FF0BC0DAFF12C0F3FF13C0F4FF14C086
:1000A000FAFF045006C0E0FF05C0D8FF1000F76A51
:1000B000BE0FF66E000EF7220900F5501200000385
:1000C00002FFFFFFFFFFFFFFFFFFFFFFFFFFF76ADA
:1000D000DE0FF66E000EF7220900F550120000FF49
:1000E00002FFFFFFFFFFFFFFFFFFFFFFFFFFF76ABA
:1000F000FE0FF66E000EF7220900F55012004000C8
:100100000B004000000000000000000000000000A4
:100110000000000000000000000000000000F76A7E
:100120002E0FF66E010EF7220900F5501200400066
:10013000000040000000000000000000000000007F
:100140000000000000000000000000000000F76A4E
:100150005E0FF66E010EF7220900F550120009023B
:100160004300020100803209040000010202010084
:1001700005240010010424020205240600010524C0
:10018000010001070581030B00FA09040100020ABE
:10019000000000070502024000010705820240003E
:1001A0000100F76AB20FF66E010EF7220900F55052
:1001B00012000200F76AC40FF66E010EF722090062
:1001C000F550120012171B20FFFFFFFFF76ADC0F2C
:1001D000F66E010EF7220900F5501200120110010F
:1001E0000200004005240B00000101020001F76A33
:1001F000FE0FF66E010EF7220900F55012000403FF
:100200000904080343004300530020034300430054
:1002100053002000550053004200200074006F007E
:10022000200055004100520054006D92699468A46A
:1002300002D06894FCD731EF08F0400E0401016F42
:10024000040E036F180E026F880E006F046B040E0D
:10025000076F580E066F0001120070A002D0EDDF8C
:100260007090689A38EF08F06A6A68923DEF08F07B
:10027000959194BF9581949F9451100803E2000ECC
:10028000016E20D095A110D0036A9451F2CF96F060
:10029000F29E0DDF96BFF28EFF0802E1000E01D044
:1002A000010E016E0FD00ED0036A9451F2CF96F07A
:1002B000F29E0DDF96BFF28EFF0802E1000E01D024
:1002C000010E016E120099519B03F3CF01F0F4CFA0
:1002D00000F09C03F35000269A519B03F35000203A
:1002E000026E1200036A9351700FE96E0F0E032025
:1002F000EA6EEF6A93C094F0BBDF015222E09A6B82
:1003000093C099F09C6B080E9B6FDDDF01C0E9FF85
:10031000040E0224EA6EEF6A9A6B93C099F09C6B0C
:10032000080E9B6FD0DF02C095F001C094F0040E60
:100330009427000E952394C0E9FF040E9525EA6EDC
:10034000EF6A1200010E926F92510F0805E392C0FE
:1003500093F0C8DF922BF8D712008C6B8B6B250EB5
:100360008A6F800E896FEA6A2B0EE96EE26A890E47
:10037000E16E020E016EE6CFEEFF012EFCD72D6A74
:100380002E6A896BEA6A2F0EE96EE26A890EE16EC7
:10039000E6CFEEFF896BEA6A300EE96EE26A890EFB
:1003A000E16EE6CFEEFF080E896FEA6A310EE96E64
:1003B000E26A890EE16EE6CFEEFF7D6B7C91336AD7
:1003C000326A7B6B1E907E6B1200286A276A886BEC
:1003D000885101080AE3036A8851290FE96E000E6B
:1003E0000320EA6EEF6A882BF3D7B7DF186A010E95
:1003F000196E176A12006A6A686A9F0E6B6E3D0E6C
:10040000696E6E6A9FDFE1DF160E706E68A602D01D
:10041000F9DDFCD76D9811DF030E226E42EF08F074
:10042000698468986D8247EF08F0689C4CEF08F08B
:100430008DC023F01200236812008B6B2750281008
:100440003CE08B513F0839E31A5005E0020A0EE008
:10045000010A17E020D026C003F02550F2CF8DF01E
:10046000F29E75DE8DBFF28E8C6F15D026C003F024
:100470002550F2CF8DF0F29EBADE8DBFF28E8C6FDA
:100480000AD026C003F02550F2CF8DF0F29E9EDEFA
:100490008DBFF28E8C6F252AD8B4262A2750D8B467
:1004A000280627068B518B2B580FE96E040EEA6E37
:1004B000D8B0EA2A8CC0EFFFC1D72750281004E13A
:1004C0008B51400801E0176A8BC08DF0B1DF12003C
:1004D000266A256A1A6A04011B51010A000107E015
:1004E000030A0BE0010A0DE0220A27E049D0286A3E
:1004F000120E276E030E1A6E45D0286A430E276E21
:1005000041D0020E1A6E036A04011A511B0FE96EE4
:10051000000E0320EA6E266AEFCF25F026C003F016
:100520002550F2CF8AF0F29E000161DE8ABFF28E82
:10053000036A276E03C028F025D0036A04011A510C
:10054000F2CF8AF0F29E000135DE8ABFF28E036A96
:10055000256E03C026F0253C02D026520FE026C0AF
:1005600003F02550F2CF8AF0F29EF1DD8ABFF28EC1
:10057000036A276E03C028F005D002D05CDF11D0DB
:100580005ADF0FD004011F5308E1285203E127501E
:100590001E5D03E2286A1EC427F0010E176E0001DB
:1005A0004CDF17EF04F08A5304E1040E226ECADE1A
:1005B000E9D0050E226E040E8D6F980E8C6F010E21
:1005C0008B6F8B510F08D8A0DDD08BC093F08ADEE3
:1005D0008E6B036A8B51F2CF92F0F29E78DD92BF60
:1005E000F28EFF0865E0040E8E6FD8908B35036A9B
:1005F000F2CF92F0F29E93DD0900F5CF03F092BFA7
:10060000F28E8F6F03C090F09A6B8BC099F09C6B49
:10061000080E9B6F58DE01C092F0010E0124016E9E
:10062000000E0220036E01C0E9FF040E0324EA6EEF
:100630008FC0EFFF9A6B8BC099F09C6B080E9B6F7D
:1006400042DE01C092F0020E0124016E000E022073
:10065000036E01C0E9FF040E0324EA6E8DC0ECFFB7
:10066000ED528CC0EFFFD8908B35036AF2CF92F039
:10067000F29E55DD0900F5CF03F092BFF28E8C2774
:1006800003508D23880E916F90A101D0918190A38A
:1006900001D091839A6B8BC099F09C6B080E9B6F75
:1006A00012DE01C0E9FF040E0224EA6E91C0EFFFE2
:1006B000036A8B51F2CF92F0F29EF9DC92BFF28E78
:1006C000FF0845E08E839A6B8BC099F09C6B080EF7
:1006D0009B6FF9DD02C093F001C092F0040E9227E7
:1006E000000E9323020E9225016E000E9321036EDD
:1006F00001C0E9FF040E0324EA6E8DC0ECFFED5249
:100700008CC0EFFFD8908B35036AF2CF92F0F29E47
:10071000EEDC0900F5CF03F092BFF28E8C27035078
:100720008D239A6B8BC099F09C6B080E9B6FCBDD71
:1007300002C093F001C092F0040E9227000E9323A2
:1007400092C0E9FF040E9325EA6E400EEF6E8E51C3
:10075000060802E10E0E8E6F036A8B51F2CF92F003
:10076000F29EA5DC92BFF28E010801E08E89036A39
:100770008B51700FE96E0F0E0320EA6E8EC0EFFFF3
:100780008B2B1FD711EF04F004011951000A00014F
:100790000DE0010A14E0020A1FE0060A29E0030A3C
:1007A0002EE00E0A2EE0010A32E040D019C058F4C3
:1007B0000401596B020E00018D6F3ADE38D004013E
:1007C0001A2D07D0010E191600018D6B31DE03D0F2
:1007D0000401000130DE2BD004011A2D06D019824D
:1007E00000018D6B25DE03D00401000124DE1FD043
:1007F000020E176E1AC424F08D6B1ADE18D068D65C
:1008000016D018C058F4010E8D6F12DE10D00401FE
:100810001A51010809E31AC418F01AC48AF0000139
:10082000C2D68D6B05DE0401000101D004DE8CEF21
:1008300005F018C08AF004011951000A000105E012
:100840000A0A0BE0010A2BE03CD00401586B596BFB
:10085000020E00018D6FECDD35D08A531EE0010ED3
:100860008A5D036AF2CF8BF0F29E9BDC8BBFF28E27
:10087000016E04011C5DD8A002D000010ED0036AF5
:100880001C51290FE96E000E0320EA6EEFCF58F4D9
:10089000010E00018D6FCCDD01D0CDDD13D08A5368
:1008A0000EE0036A04011C51290FE96E000E0320BB
:1008B000EA6E1AC4EFFF00018D6BBADD01D0BBDD1B
:1008C00001D0B9DD8CEF05F08B918ABF8B818A9FB7
:1008D0008BA117D09A6B8AC099F09C6B080E9B6F06
:1008E000F2DC02C08DF001C08CF0040E8C27000EEB
:1008F0008D238CC0E9FF040E8D25EA6E880EEF6E05
:100900000DD09A6B8AC099F09C6B080E9B6FDBDC54
:1009100001C0E9FF040E0224EA6EEF6A04EF05F05D
:100920008B918ABF8B818A9F8BA117D09A6B8AC0CB
:1009300099F09C6B080E9B6FC6DC02C08DF001C065
:100940008CF0040E8C27000E8D238CC0E9FF040E62
:100950008D25EA6E840EEF6E0ED09A6B8AC099F0E8
:100960009C6B080E9B6FAFDC01C0E9FF040E0224F4
:10097000EA6E840EEF6E0AEF05F08B918ABF8B81D1
:100980008A9F8BA117D09A6B8AC099F09C6B080E36
:100990009B6F99DC02C08EF001C08DF0040E8D2794
:1009A000000E8E238DC0E9FF040E8E25EA6EEFCF78
:1009B0008CF00ED09A6B8AC099F09C6B080E9B6FDE
:1009C00082DC01C0E9FF040E0224EA6EEFCF8CF056
:1009D0008CAF02D08CB502D0000E01D0010E016E9A
:1009E00014EF05F01CC494F043DC015228E004012C
:1009F0001951010A000105E0020A09E0030A0DE0AD
:100A00001DD01CC48AF060D78D6B12DD18D01CC4B9
:100A10008AF086D78D6B0CDD12D00401586B596BB0
:100A20001CC48AF00001A9D7015204E0010E0401A0
:100A3000586F0001020E8D6FFBDC01D0FCDC8CEFE7
:100A400005F0FE0E236E120004011C2D01D002D011
:100A50001C5348E11951000A00010BE0010A0DE0A6
:100A6000210A1CE0010A1FE0030A2EE0010A31E01E
:100A700037D0010E7E6FE5DF34D0040EEA6E580EDB
:100A8000E96EE26A340EE16E080E016EE6CFEEFF0B
:100A9000012EFCD71EC48DF0CBDC23D0020E7E6F5E
:100AA0007C81CFDF1ED0040EEA6E580EE96EE26A3A
:100AB0002B0EE16E070E016EE6CFEEFF012EFCD786
:100AC000070E8D6FB5DC0DD01AC47DF08D6BB0DCD8
:100AD00008D01AC433F01BC432F08D6BA9DC01D0EE
:100AE000AADC040100018CEF05F0176A040118511B
:100AF0007F0B000A000107E0010A07E0030A07E094
:100B0000230A07E008D040D607D093D605D06AD78D
:100B100003D09AD701D08FDCB8EF07F09A6B8BC067
:100B200099F09C6B080E9B6F63EC01F001C0E9FF2C
:100B3000040E0224EA6EEFCF8DF08C51020806E11C
:100B40008DAD02D08C6B02D0010E8C6F8C510308DE
:100B50001AE1840E8D6F9A6B8BC099F09C6B080E16
:100B60009B6F63EC01F002C091F001C090F0040EA5
:100B70009027000E912390C0E9FF040E9125EA6EA4
:100B8000840EEF6E07D08C2D03D0C80E8D6F02D06F
:100B9000880E8D6FD8908B35036AF2CF90F0F29E5D
:100BA0008FEC00F00900F5CF03F090BFF28E8E6F4E
:100BB00003C08FF09A6B8BC099F09C6B080E9B6FF3
:100BC00063EC01F001C090F0010E0124016E000EF3
:100BD0000220036E01C0E9FF040E0324EA6E8EC0FA
:100BE000EFFF8FA101D08D818FA301D08D839A6BF0
:100BF0008BC099F09C6B080E9B6F63EC01F001C0F9
:100C0000E9FF040E0224EA6E8DC0EFFF1200036AB2
:100C10009851700FE96E0F0E0320EA6EEF5219E043
:100C20009A6B98C099F09C6B080E9B6F63EC01F077
:100C300002C09AF001C099F0040E9927000E9A2381
:100C400099C0E9FF040E9A25EA6EEFCF9BF09BAFA7
:100C500002D0000E01D0010E016E120093C098F078
:100C6000D6DF0152D8B47DD09A6B93C099F09C6BBB
:100C7000080E9B6F63EC01F002C099F001C098F080
:100C8000040E9827000E9923010E9825016E000E80
:100C90009921036E01C0E9FF040E0324EA6E94C09B
:100CA000EFFF965102081EE19A6B93C099F09C6B7E
:100CB000080E9B6F63EC01F002C099F001C098F040
:100CC000040E9827000E992398C0E9FF040E992579
:100CD000EA6EEFCF97F097AD02D0966B02D0010E7F
:100CE000966F18D09651040815E19A6B93C099F04D
:100CF0009C6B080E9B6F63EC01F001C0E9FF040ED2
:100D00000224EA6EEFCF97F097AD03D0010E966FF5
:100D100001D0966B962D03D0C80E976F02D0880E27
:100D2000976F95A101D0978195A301D097839A6B76
:100D300093C099F09C6B080E9B6F63EC01F002C0AE
:100D400099F001C098F0040E9827000E992398C0DE
:100D5000E9FF040E9925EA6E97C0EFFF010E016EC0
:100D600002D0000E016E12007E51010A03E0030A58
:100D700013E024D0EA6A340EE96E040EE26E180E17
:100D8000E16E080E016EE6CFEEFF012EFCD78D6BF3
:100D900018EC02F07E6B13D0EA6A2B0EE96E040E9B
:100DA000E26E180EE16E070E016EE6CFEEFF012E29
:100DB000FCD77E6B8D6B18EC02F001D07E6B14EFCC
:100DC00007F09A6B8BC099F09C6B080E9B6F63ECDD
:100DD00001F002C08DF001C08CF0010E0124016E03
:100DE000000E0220036E01C0E9FF040E0324EA6E28
:100DF000036AEFCF01F003C002F00AEF07F01E9084
:100E0000020E8B6F8C6F8ADE12001E80206A020E2B
:100E10008B6FD7D701C01FF01F5201E1F0DF19EF30
:100E200007F08A5302E1A0D704D08A51020801E1F9
:100E3000ECD712008BC06EFF8B5303E0040E226EC2
:100E400002D0020E226E2AEF07F0186A176A24C039
:100E50008BF0F0D797EF07F08BC098F0D8DE0152F7
:100E600043E09A6B8BC099F09C6B080E9B6F63EC10
:100E700001F002C094F001C093F0040E9327000E1D
:100E80009423020E9325016E000E9421036E01C07F
:100E9000E9FF040E0324EA6EECCF92F0ED52EFCF9F
:100EA00091F092C0EAFF91C0E9FF8DC0E2FF8CC0D3
:100EB000E1FF8FC002F08EC001F0015202E0022A71
:100EC00002D0025206E0E6CFEEFF012EFCD7022E42
:100ED000FAD78BC093F08FC095F08EC094F090C07D
:100EE00096F0BCDE015002D0000E016E85EF07F0D7
:100EF0007B530EE0020E8B6F8D6B3C0E8C6F8F6BF5
:100F00007BC08EF0020E906FA7D7015201E07B6B81
:100F10001200EEDF9CEF07F08A530AE1172C03D092
:100F20001DEC02F004D017500208D8B48ED704D0BC
:100F30008A51020801E1EDD712002130886F883311
:100F400088331F0E8817215241E1040100513C0BE8
:100F50000001896F430E0401001700018951340814
:100F60001EE104010451800B01E0046B0001BDD5BA
:100F70006D98233C05D08B6B030E8C6FCFDD0ED0AC
:100F80008B6B020E8C6FCADD2350FE0807E0936B5B
:100F9000956B23C094F0040E966F60DE16D08951D5
:100FA000040813E18A6B3DDF8B6B020E8C6FB6DD9C
:100FB0002350FE080AE0233C01D007D0936B956BC9
:100FC00023C094F0010E966F49DE1AD02150040818
:100FD0000EE123688A6BA0DF233C01D007D0936B1E
:100FE000956B23C094F0020E966F38DE09D021B4C1
:100FF00004D088C08AF015DF03D088C08AF08CDF67
:1010000056EF08F01EB001D0FDD72050202AA30FC4
:10101000E96E040EEA6ED8B0EA2AEFCF88F01F50CE
:10102000205C01E3ECDE88C001F01FEF08F09EA811
:10103000FED7AD6E23EF08F01EA005D0E3D701C0A8
:1010400081F08151F4D75FEF08F0A19A2252D8B411
:1010500036D06852D8B433D068A403D069B415EF41
:1010600001F06DB22CD068AA03D069BA2DEF01F05F
:1010700068A203D069B234EF01F068A003D069B070
:10108000FBEF01F068A803D069B810EF02F068AC7C
:1010900003D069BC15EF02F0876B68A608D069A67B
:1010A00006D06CCF21F002EC00F047D701D004D07D
:1010B0008751872B0308F1E21EA001D0BDD736EF80
:1010C00000F0E5EC01F06D6A140E6F6E696A6D86D2
:1010D000010E226E12006DB601D0F3DF222C0BD070
:1010E0006DBA09D0686A696AA08AC00EF212110E40
:1010F000696E020E226E1200EEDFF29436EF00F0FF
:101100008A91A0BA8A81A09A7B513E0802E23E0EE3
:101110007B6F7B517B2B036A3C0FE96E000E032033
:10112000EA6E89C0EFFF8AA101D0A08A9BEF08F088
:1011300088C089F0E5D7DCDEA7EF08F09EAA07D0CB
:101140009EAAFED7AECF87F087C088F0F1D79E9ACF
:1011500036EF00F0EA6A830EE96EEF500EE00F0EF4
:10116000016E006A002EFED7012EFBD78F0E006E97
:10117000002EFED70000EF2EF2D712006D6A696ACA
:10118000080E6F6E94503009946E226A166AF2BE91
:10119000168EF29EE5EC01F016BEF28ED1EF08F04D
:1011A000EDD714EF09F01850016EEAEF08F09590B2
:1011B0008C9095928C9294948B8494948B74460E1C
:1011C000836FC8DF166AF2BE168EF29E84DF16BEEB
:1011D000F28EE9D70152F1E094948B9495908C8033
:1011E00015EF09F0F86AD09E078EB886E10EAF6E53
:1011F000040EB06EA60EAC6E900EAB6EC150C00B5E
:101200000F09C16E070EB46E1B6A040E1C6E0C0E25
:101210001D6E7F6B806B816B020E826FFA0E836F87
:1012200099DF822FFBD7BCD7C2D7880ED56EF28A42
:101230009D8AC00EF21295928C72040E826FFA0E85
:0C124000836F88DF822FFBD7F6D70300F6
:020000040030CA
:0E00000024CE3E1E0085A1000FC00FE00F4071
:00000001FF
;PIC18LF4550
;CRC=D7AE  CREATED="22-февр-14 13:28"
