:1000000000308A0035280000613083168F0090018F
:100010000F0808308500051083120510831685101F
:1000200083128510831605168312051E1C282608C8
:1000300084000230800020282608840001308000DF
:100040004C28273084000008031934280130A1000F
:10005000A001A00B2928A10B28284A30A000A00B42
:100060002F283228800B2628080003081F39830018
:10007000613083168F0090010F0883121F138316BF
:100080001F109F101F119F1107308312990001301C
:10009000A5002530A6000428250B6E28831605161A
:1000A0008312051E6E283230A7002120250B6E28F2
:1000B000831605168312051E6E280230A5008316CE
:1000C0000510831205140830A600FA30A70021207D
:1000D000A60B652883160510831205102508023C1F
:1000E000031D9428831605168312051A94283230AE
:1000F000A70021202508023C031D9428831605161D
:100100008312051A94280130A500831685108312E6
:1001100085140830A600FA30A7002120A60B8B28F2
:0C01200083168510831285104C286300A4
:02400E008433F9
:00000001FF
;PIC12F683
;CRC=1866  CREATED="29-окт-14 21:01"
