:100000002500600A00002500600A090A0E0A200A7D
:10001000400A46040604260405046B0A1702430638
:100020001F0A010C31007000F002140AF102130AD9
:100030004A0C3000F0021A0A1D0AF702110A0008E1
:100040000604100C3000F002230A00004605090CDB
:100050003000F002290A2C0A4604020C3000F0029B
:100060002F0A00004605040C3000F002350A380A59
:100070000605040C3000F0023B0A3E0A46047A0AE8
:100080004605090C3000F002430A460A4604090CF2
:100090003000F002490A4C0A4605090C3000F00213
:1000A0004F0A520A4604130C3000F002550A580A4F
:1000B0000604130C3000F0025B0A5E0A06058C0A87
:1000C0006400DF0C02007500010C3600080C06000D
:1000D00040000200050A66067D0A350243077D0AD4
:1000E000360243067D0A320C37000E0966067D0A89
:1000F0007600070A010C3500260566068E0A3502D1
:1001000043068E0A360243068E0A320C37000E0969
:1001100066068E0A7600080A750026046607920AAB
:08012000010C36006B0A03001C
:021FFE00EB0FE7
:00000001FF
;PIC10F200
;CRC=A17A  CREATED="01-септ-15 22:12"
