:0600000080311C2C000001
:0800080083018031200077081C
:10001000A0007808A1007908A2007A08A3002300B4
:1000200011082000A400230012082000A5002300CE
:1000300013082000A600230014082000A7008B1D31
:1000400023280B184328850191308400801C2A281E
:10005000911845282008F7002108F8002208F90027
:100060002308FA002408230091002000250823001B
:100070009200200026082300930020002708230078
:100080009400090020008031512880314728210048
:100090000D1322000D1721009110200091108031C6
:1000A0002A2821000D1322000D1321009114200095
:1000B0009A0107089110270096130B108031200039
:1000C0002A280C246536EC372100203085001230B8
:1000D0008400000803197A280530F800F701F70BAF
:1000E0006F28F80B6E282E30F700F70B752878284C
:1000F000800B6C2808003918812822008E12832872
:10010000200022008E1621008E122000B9188C28A3
:1001100022000E128E28200022000E1621000E1240
:1001200020003919972822008E11992820002200DA
:100130008E1521008E112000B919A22822000E135D
:10014000A428200022000E1721000E130000220018
:100150008E1421008E100230F700F70BAD2800003E
:1001600022008E1021008E1020000800BA0121000C
:100170008E16003020008E1A0130BA0421000E16AF
:10018000003020000E1A0130F7000310F70D770839
:10019000BA0421008E15003020008E190130F700BE
:1001A000F70DF70DFC30F7057708BA0421000E179C
:1001B000003020000E1B0130F700F70DF70DF70D92
:1001C000F830F7057708BA043A08F800080021006B
:1001D0008E100C110E1022000C1121000C118E1625
:1001E0000E168E150E1722000E1421000E100000A0
:1001F00022008E1421008E1000002000B620780806
:10020000B90022008E1021008E10000022008E14F2
:1002100021008E100B290C292000B6207808B80088
:1002200022008E1021008E108E120E128E110E13CF
:100230002000390EF700F030F70577083804F80091
:100240007808B800B81F26292100EF28B608031D3A
:100250002D2922000C112F29200022000C1521002D
:100260000C11000022000E1021000E1000002200D0
:100270008E1021008E102000370EB8000F30B80508
:100280003808B9007B2037080F39B800B9007B2047
:100290000800330B4C294F294030B4005029B401D9
:1002A00001303202B40734088038B500B601350891
:1002B000B700E72008003108073A031969290B3A0B
:1002C00003196E29063A03197629023A03197C2983
:1002D00081290130B200B30049218629B6010130DD
:1002E000B700E7200230B200652086290130B20055
:1002F0000230B30049218629B6011030B700E7204B
:1003000086290130B6003108B700E7200800210037
:100310000D1322000D17803066001830F8000738E2
:1003200020009C00FF309B0021001E169E161E130D
:100330009E131D141E109E10103023008C000030E0
:100340008E008D000C30F80021001D0883397804E0
:100350009D0028302000AD000C30AE000130AF0011
:100360000630B00022008E1021008E1022000C11E9
:1003700021000C1122000E1021000E108E120E1200
:100380008E110E138E100C110E100F302000B200C3
:1003900065200130AC002C08033C031CD729033036
:1003A000B9007B200530B2006520AC0ACB290230B1
:1003B000B9007B200530B2006520AC012C08033C5D
:1003C000031CF1290D302C07840020308500031810
:1003D000850A0008B100B6013108B700E720AC0A71
:1003E000DE29C830B2006520613023009100003062
:1003F00092000B088B139517151400000000891B41
:100400008B1713087F3903193E2A2000AE00230002
:1004100011082000AF00230012082000B0002E08B1
:10042000B1005B212F082300910020003008230039
:1004300092000B088B139517151400000000891B00
:100440008B17130D140D7F3903193E2A2000AE00BF
:10045000230011082000AF00230012082000B00084
:100460002E08B1005B212F082300910020003008E6
:1004700023009200910A0319920AF9290E302000F4
:10048000AC00FA30B2006520AC0B412A270096136D
:100490000708200091108B15270094179513C03082
:1004A0008B0420009A0180312C2C8E30F7002E080E
:1004B000F8002D08F900FA01F808031D692A7908E7
:1004C000F800F9010830F702F808031D692AF7015E
:1004D000712A0310F81B702AF90DF80DF703692A29
:1004E000F813080030080319E22AB9003408031988
:1004F000E22AB9070318832A7F30B902031CE22AD3
:100500000319E22A872A8130B9070318E22A390839
:10051000F700F801F901FA013108BD00BD173208F2
:10052000BC003308BB001830B900BA013B1CB02A2C
:100530003708FA07031CA22AF90A031DA22AF80A9F
:100540000319BA173608F907031CA92AF80A031970
:10055000BA173508B200B2173208F8070318BA17ED
:10056000BA0DF80CF90CFA0CBD0CBC0CBB0C03104A
:10057000B90B952A0130F7070318E22AF81BC72A9E
:10058000BD0DFA0DF90DF80DF7030319E22ABD1F91
:10059000D82AFA0A031DD82AF90A031DD82AF80A0C
:1005A000031DD82AF80CF90CFA0CF70A0319E22AF1
:1005B0003108BA003508BA06BA1FE02AF817E62A49
:1005C000F813E62AF701F801F901FA0108008E3064
:1005D000F7002C08F7022D08F9002E08F800F9178B
:1005E000F7080319FE2A0310F908031DFA2AF80870
:1005F0000319FE2AF90CF80CF70BF32AAD1F052B93
:10060000F809F909F80A0319F90A0800300803196A
:10061000CB2BBE0034080319CB2BBE02031C152BB9
:100620007F30BE070318CB2B1B2B8130BE02031C6F
:10063000CB2B0319CB2B3E08F700F801F901FA0187
:10064000BD013108BC00BC173208BB003308BA003A
:100650001930BE003708BA0203183E2B0130BB0226
:1006600003183E2BBC0203183E2BBD0203183E2B81
:10067000BD0ABC0ABB0A3708BA07702B3608BB0292
:100680000318592B0130BC020318592BBD02031863
:10069000592BBD0ABC0A3608BB073708BA07031C2A
:1006A000702BBB0A031D702BBC0A031D702BBD0AE7
:1006B000702B35088038BC0203186F2B0130BD0247
:1006C00003186F2BBD0A35088038BC073608BB07F6
:1006D000031C4D2BBC0A031D4D2BBD0A4D2B7A1458
:1006E000BE0B732B7E2B0310BA0DBB0DBC0DBD0DC5
:1006F0000310FA0DF90DF80DBF0D2A2B3F1C862BA8
:100700000310F80CF90CFA0CBF0C892BF703031932
:10071000CB2BBF1BB22B0310BA0DBB0DBC0DBD0DF7
:100720003708BA0203189E2B0130BB0203189E2B18
:10073000BC0203189E2BBD02031CC12B3608BB0252
:100740000318A92B0130BC020318A92BBD02031CFE
:10075000C12B35088038BC020318B22B0130BD0212
:10076000031CC12BFA0A031DC12BF90A031DC12B5F
:10077000F80A031DC12BF70A0319CB2BF80CF90C4F
:10078000FA0C3108BE003508BE06BE1FC92BF8178B
:10079000CF2BF813CF2BF701F801F901FA018031C3
:1007A000722C2F08F8012E020318D92B2E08F700FF
:1007B000E52BF7010830B000AE0DF70D2F087702DA
:1007C0000318F700F80DB00BDC2B080078082C0894
:1007D000AE006430AF00D1237708AC007808303029
:1007E000031DF92BAD1C002CAD19002C2D1A203047
:1007F000FC2BAD112D122D14F8077808B1005B21E8
:100800002C08AE000A30AF00D1237708AC0078087E
:100810003030031D112CAD19152C2D1C152C2D1A43
:100820002030F8077808B1005B213030AC072C0885
:10083000B1005B218031A92C7A302100990023007E
:100840008C018D018E01220092019101940193018E
:100850002000A901AA01872901309B0021009D14D5
:100860009D18302C2000AE0121001C082000AD0096
:1008700055227A08B3007908B2007808B1007708E9
:10088000B000E330B700A530B6001B30B5007E30B5
:10089000B40072227A08AF007908AE007808AD0083
:1008A0007708AC00E72278089B001B08AA00AE017D
:1008B0001B08AD0055227A08AF007908AE00780811
:1008C000AD007708AC007A08B3007908B200780868
:1008D000B1007708B000B701B6011B30B500863013
:1008E000B400062B7A08AF007908AE007808AD0096
:1008F0007708AC007A08B3007908B2007808B10034
:100900007708B000B701B6014830B5008530B400B3
:1009100072227A08AF007908AE007808AD00770837
:10092000AC00E7227808A8006430B20065202A08ED
:1009300029020319AC2C0C30B1005B215030B100FE
:100940005B213D30B1005B212808AC001B30AD00BD
:10095000E62B2530B1005B212A08A9002E2C63006C
:020000040001F9
:04000E00C43FFF1FCD
:00000001FF
;PIC16F1508
;CRC=30BC  CREATED="25-окт-14 18:06"
