:1000000097EF08F068961200046ED8CF05F0E0CFA5
:1000100006F00001E9CF0CF0EACF07F0E1CF08F0DD
:10002000E2CF09F0D9CF0AF0DACF0BF0F3CF12F01C
:10003000F4CF13F0FACF14F000C00EF001C00FF0AF
:1000400002C010F003C011F09DAA2AEF00F09EBA82
:100050003CEF08F0A0AA30EF00F0A1BAFEEF07F0E5
:100060000EC000F00FC001F010C002F011C003F08C
:100070000CC0E9FF07C0EAFF078E08C0E1FF09C016
:10008000E2FF0AC0D9FF0BC0DAFF12C0F3FF13C0B2
:10009000F4FF14C0FAFF045006C0E0FF05C0D8FF0B
:1000A0001000F76AB20FF66E000EF7220900F55045
:1000B0001200000302FFFFFFFFFFFFFFFFFFFFFF34
:1000C000FFFFF76AD20FF66E000EF7220900F55017
:1000D000120000FF02FFFFFFFFFFFFFFFFFFFFFF18
:1000E000FFFFF76AF20FF66E000EF7220900F550D7
:1000F000120040000B004000000000000000000063
:1001000000000000000000000000000000000000EF
:100110000000F76A220FF66E010EF7220900F55073
:10012000120040000000400000000000000000003D
:1001300000000000000000000000000000000000BF
:100140000000F76A520FF66E010EF7220900F55013
:10015000120009024300020100803209040000017C
:1001600002020100052400100104240202052406F5
:1001700000010524010001070581030B00FA0904B1
:100180000100020A00000007050202400001070505
:10019000820240000100F76AA60FF66E010EF722F8
:1001A0000900F55012000200F76AB80FF66E010E52
:1001B000F7220900F550120012171B20FFFFFFFF66
:1001C000F76AD00FF66E010EF7220900F550120003
:1001D000120110010200004005240B000001010281
:1001E0000001F76AF20FF66E010EF7220900F550D2
:1001F00012000403090408034300430053002003D2
:1002000043004300530020005500530042002000EB
:1002100074006F00200055004100520054006D92A0
:10022000699468A402D06894FCD70AEF08F0400EE5
:100230000401016F040E036F180E026F880E006F29
:10024000046B040E076F580E066F0001120070A0B9
:1002500002D0EDDF7090689A11EF08F06A6A689238
:1002600016EF08F0959194BF9581949F94511008D2
:1002700003E2000E016E20D095A110D0036A9451C4
:10028000F2CF96F0F29E0DDF96BFF28EFF0802E1EC
:10029000000E01D0010E016E0FD00ED0036A9451F2
:1002A000F2CF96F0F29E0DDF96BFF28EFF0802E1CC
:1002B000000E01D0010E016E120099519B03F3CF85
:1002C00001F0F4CF00F09C03F35000269A519B03F9
:1002D000F3500020026E1200036A9351700FE96E12
:1002E0000F0E0320EA6EEF6A93C094F0BBDF015259
:1002F00022E09A6B93C099F09C6B080E9B6FDDDF38
:1003000001C0E9FF040E0224EA6EEF6A9A6B93C003
:1003100099F09C6B080E9B6FD0DF02C095F001C076
:1003200094F0040E9427000E952394C0E9FF040E68
:100330009525EA6EEF6A1200010E926F92510F0836
:1003400005E392C093F0C8DF922BF8D712008C6BB4
:100350008B6B250E8A6F800E896FEA6A2B0EE96E11
:10036000E26A890EE16E020E016EE6CFEEFF012E0B
:10037000FCD72D6A2E6A896BEA6A2F0EE96EE26A53
:10038000890EE16EE6CFEEFF896BEA6A300EE96E08
:10039000E26A890EE16EE6CFEEFF080E896FEA6A27
:1003A000310EE96EE26A890EE16EE6CFEEFF7D6BFB
:1003B0007C91336A326A7B6B1E907E6B1200286AD6
:1003C000276A886B885101080AE3036A8851290F5C
:1003D000E96E000E0320EA6EEF6A882BF3D7B7DFD1
:1003E000186A010E196E176A12006A6A686A9F0E0F
:1003F0006B6E3D0E696E6E6A9FDFE1DF160E706EEA
:1004000068A602D0FFDDFCD76D9811DF030E226EC7
:100410001BEF08F0698468986D8220EF08F0689CF3
:1004200025EF08F08DC023F01200236812008B6BBB
:10043000275028103CE08B513F0839E31A5005E063
:10044000020A0EE0010A17E020D026C003F0255072
:10045000F2CF8DF0F29E75DE8DBFF28E8C6F15D0CF
:1004600026C003F02550F2CF8DF0F29EBADE8DBF8C
:10047000F28E8C6F0AD026C003F02550F2CF8DF09B
:10048000F29E9EDE8DBFF28E8C6F252AD8B4262A6E
:100490002750D8B4280627068B518B2B580FE96EAE
:1004A000040EEA6ED8B0EA2A8CC0EFFFC1D72750FD
:1004B000281004E18B51400801E0176A8BC08DF0D1
:1004C000B1DF1200266A256A1A6A04011B51010A6B
:1004D000000107E0030A0BE0010A0DE0220A27E011
:1004E00049D0286A120E276E030E1A6E45D0286A6C
:1004F000430E276E41D0020E1A6E036A04011A5190
:100500001B0FE96E000E0320EA6E266AEFCF25F07E
:1005100026C003F02550F2CF8AF0F29E000161DE82
:100520008ABFF28E036A276E03C028F025D0036AC3
:1005300004011A51F2CF8AF0F29E000135DE8ABF23
:10054000F28E036A256E03C026F0253C02D02652A7
:100550000FE026C003F02550F2CF8AF0F29EF1DDC5
:100560008ABFF28E036A276E03C028F005D002D03E
:100570005CDF11D05ADF0FD004011F5308E128526D
:1005800003E127501E5D03E2286A1EC427F0010E16
:10059000176E00014CDF11EF04F08A5304E1040EE2
:1005A000226ECADEE9D0050E226E040E8D6F980E03
:1005B0008C6F010E8B6F8B510F08D8A0DDD08BC0D4
:1005C00093F08ADE8E6B036A8B51F2CF92F0F29E2B
:1005D00078DD92BFF28EFF0865E0040E8E6FD89032
:1005E0008B35036AF2CF92F0F29E93DD0900F5CFCE
:1005F00003F092BFF28E8F6F03C090F09A6B8BC0A6
:1006000099F09C6B080E9B6F58DE01C092F0010EB2
:100610000124016E000E0220036E01C0E9FF040EEA
:100620000324EA6E8FC0EFFF9A6B8BC099F09C6B2E
:10063000080E9B6F42DE01C092F0020E0124016E93
:10064000000E0220036E01C0E9FF040E0324EA6ECF
:100650008DC0ECFFED528CC0EFFFD8908B35036A54
:10066000F2CF92F0F29E55DD0900F5CF03F092BF74
:10067000F28E8C2703508D23880E916F90A101D0AC
:10068000918190A301D091839A6B8BC099F09C6B60
:10069000080E9B6F12DE01C0E9FF040E0224EA6E11
:1006A00091C0EFFF036A8B51F2CF92F0F29EF9DC1A
:1006B00092BFF28EFF0845E08E839A6B8BC099F053
:1006C0009C6B080E9B6FF9DD02C093F001C092F0A5
:1006D000040E9227000E9323020E9225016E000E47
:1006E0009321036E01C0E9FF040E0324EA6E8DC05E
:1006F000ECFFED528CC0EFFFD8908B35036AF2CF40
:1007000092F0F29EEEDC0900F5CF03F092BFF28E7C
:100710008C2703508D239A6B8BC099F09C6B080E2D
:100720009B6FCBDD02C093F001C092F0040E9227C4
:10073000000E932392C0E9FF040E9325EA6E400E4B
:10074000EF6E8E51060802E10E0E8E6F036A8B511A
:10075000F2CF92F0F29EA5DC92BFF28E010801E08A
:100760008E89036A8B51700FE96E0F0E0320EA6EBB
:100770008EC0EFFF8B2B1FD70BEF04F00401195134
:10078000000A00010DE0010A14E0020A1FE0060A57
:1007900029E0030A2EE00E0A2EE0010A32E040D0E2
:1007A00019C058F40401596B020E00018D6F3ADE36
:1007B00038D004011A2D07D0010E191600018D6BD7
:1007C00031DE03D00401000130DE2BD004011A2DEC
:1007D00006D0198200018D6B25DE03D004010001D3
:1007E00024DE1FD0020E176E1AC424F08D6B1ADEA1
:1007F00018D068D616D018C058F4010E8D6F12DECE
:1008000010D004011A51010809E31AC418F01AC4DF
:100810008AF00001C2D68D6B05DE0401000101D013
:1008200004DE86EF05F018C08AF004011951000AB1
:10083000000105E00A0A0BE0010A2BE03CD00401AC
:10084000586B596B020E00018D6FECDD35D08A5369
:100850001EE0010E8A5D036AF2CF8BF0F29E9BDCF4
:100860008BBFF28E016E04011C5DD8A002D0000186
:100870000ED0036A1C51290FE96E000E0320EA6EA8
:10088000EFCF58F4010E00018D6FCCDD01D0CDDD2E
:1008900013D08A530EE0036A04011C51290FE96E3C
:1008A000000E0320EA6E1AC4EFFF00018D6BBADD63
:1008B00001D0BBDD01D0B9DD86EF05F08B918ABF99
:1008C0008B818A9F8BA117D09A6B8AC099F09C6B01
:1008D000080E9B6FF2DC02C08DF001C08CF0040E9C
:1008E0008C27000E8D238CC0E9FF040E8D25EA6E47
:1008F000880EEF6E0DD09A6B8AC099F09C6B080E33
:100900009B6FDBDC01C0E9FF040E0224EA6EEF6A94
:10091000FEEF04F08B918ABF8B818A9F8BA117D049
:100920009A6B8AC099F09C6B080E9B6FC6DC02C064
:100930008DF001C08CF0040E8C27000E8D238CC02E
:10094000E9FF040E8D25EA6E840EEF6E0ED09A6BD1
:100950008AC099F09C6B080E9B6FAFDC01C0E9FF69
:10096000040E0224EA6E840EEF6E04EF05F08B9104
:100970008ABF8B818A9F8BA117D09A6B8AC099F00E
:100980009C6B080E9B6F99DC02C08EF001C08DF04D
:10099000040E8D27000E8E238DC0E9FF040E8E25D8
:1009A000EA6EEFCF8CF00ED09A6B8AC099F09C6BF8
:1009B000080E9B6F82DC01C0E9FF040E0224EA6E80
:1009C000EFCF8CF08CAF02D08CB502D0000E01D0EE
:1009D000010E016E0EEF05F01CC494F043DC0152D1
:1009E00028E004011951010A000105E0020A09E0AA
:1009F000030A0DE01DD01CC48AF060D78D6B12DD98
:100A000018D01CC48AF086D78D6B0CDD12D004017F
:100A1000586B596B1CC48AF00001A9D7015204E03D
:100A2000010E0401586F0001020E8D6FFBDC01D036
:100A3000FCDC86EF05F0FE0E236E120004011C2D77
:100A400001D002D01C5348E11951000A00010BE00B
:100A5000010A0DE0210A1CE0010A1FE0030A2EE052
:100A6000010A31E037D0010E7E6FE5DF34D0040E8D
:100A7000EA6E580EE96EE26A340EE16E080E016EFF
:100A8000E6CFEEFF012EFCD71EC48DF0CBDC23D0C9
:100A9000020E7E6F7C81CFDF1ED0040EEA6E580EF0
:100AA000E96EE26A2B0EE16E070E016EE6CFEEFFF5
:100AB000012EFCD7070E8D6FB5DC0DD01AC47DF06A
:100AC0008D6BB0DC08D01AC433F01BC432F08D6BD0
:100AD000A9DC01D0AADC0401000186EF05F0176A49
:100AE000040118517F0B000A000107E0010A07E02A
:100AF000030A07E0230A07E008D040D607D093D6C0
:100B000005D06AD703D09AD701D08FDCB4EF07F0B5
:100B10009A6B8BC099F09C6B080E9B6F5DEC01F09B
:100B200001C0E9FF040E0224EA6EEFCF8DF08C5174
:100B3000020806E18DAD02D08C6B02D0010E8C6FE5
:100B40008C5103081AE1840E8D6F9A6B8BC099F05B
:100B50009C6B080E9B6F5DEC01F002C091F001C030
:100B600090F0040E9027000E912390C0E9FF040E30
:100B70009125EA6E840EEF6E07D08C2D03D0C80E3F
:100B80008D6F02D0880E8D6FD8908B35036AF2CFAF
:100B900090F0F29E89EC00F00900F5CF03F090BFD1
:100BA000F28E8E6F03C08FF09A6B8BC099F09C6BA6
:100BB000080E9B6F5DEC01F001C090F0010E012466
:100BC000016E000E0220036E01C0E9FF040E032433
:100BD000EA6E8EC0EFFF8FA101D08D818FA301D06F
:100BE0008D839A6B8BC099F09C6B080E9B6F5DECAC
:100BF00001F001C0E9FF040E0224EA6E8DC0EFFF90
:100C00001200036A9851700FE96E0F0E0320EA6E0E
:100C1000EF5219E09A6B98C099F09C6B080E9B6F8D
:100C20005DEC01F002C09AF001C099F0040E992722
:100C3000000E9A2399C0E9FF040E9A25EA6EEFCFC1
:100C40009BF09BAF02D0000E01D0010E016E12008E
:100C500093C098F0D6DF0152D8B47DD09A6B93C080
:100C600099F09C6B080E9B6F5DEC01F002C099F04F
:100C700001C098F0040E9827000E9923010E9825C4
:100C8000016E000E9921036E01C0E9FF040E0324DA
:100C9000EA6E94C0EFFF965102081EE19A6B93C072
:100CA00099F09C6B080E9B6F5DEC01F002C099F00F
:100CB00001C098F0040E9827000E992398C0E9FF10
:100CC000040E9925EA6EEFCF97F097AD02D0966BA0
:100CD00002D0010E966F18D09651040815E19A6B58
:100CE00093C099F09C6B080E9B6F5DEC01F001C006
:100CF000E9FF040E0224EA6EEFCF97F097AD03D020
:100D0000010E966F01D0966B962D03D0C80E976F8B
:100D100002D0880E976F95A101D0978195A301D03D
:100D200097839A6B93C099F09C6B080E9B6F5DEC58
:100D300001F002C099F001C098F0040E9827000E4F
:100D4000992398C0E9FF040E9925EA6E97C0EFFF3A
:100D5000010E016E02D0000E016E12007E51010ADA
:100D600003E0030A13E024D0EA6A340EE96E040EAD
:100D7000E26E180EE16E080E016EE6CFEEFF012E58
:100D8000FCD78D6B12EC02F07E6B13D0EA6A2B0E4F
:100D9000E96E040EE26E180EE16E070E016EE6CFEC
:100DA000EEFF012EFCD77E6B8D6B12EC02F001D0B2
:100DB0007E6B0FEF07F09A6B8BC099F09C6B080E5F
:100DC0009B6F5DEC01F002C08DF001C08CF0010E54
:100DD0000124016E000E0220036E01C0E9FF040E23
:100DE0000324EA6E036AEFCF01F003C002F005EFBF
:100DF00007F01E90020E8B6F8C6F8ADE0AEF07F0F1
:100E00001E80206A020E8B6FD6D701C01FF01F52C2
:100E100001E1EFD714EF07F08A5302E19FD704D026
:100E20008A51020801E1ECD712008BC06EFF8B5390
:100E300003E0040E226E02D0020E226E25EF07F0B0
:100E4000186A176A24C08BF0F0D793EF07F08BC0B5
:100E500098F0D7DE015243E09A6B8BC099F09C6BFF
:100E6000080E9B6F5DEC01F002C094F001C093F09E
:100E7000040E9327000E9423020E9325016E000E9C
:100E80009421036E01C0E9FF040E0324EA6EECCF47
:100E900092F0ED52EFCF91F092C0EAFF91C0E9FFDE
:100EA0008DC0E2FF8CC0E1FF8FC002F08EC001F068
:100EB000015202E0022A02D0025206E0E6CFEEFF23
:100EC000012EFCD7022EFAD78BC093F08FC095F07D
:100ED0008EC094F090C096F0BBDE015002D0000EA0
:100EE000016E80EF07F07B530EE0020E8B6F8D6B6F
:100EF0003C0E8C6F8F6B7BC08EF0020E906FA7D76D
:100F0000015201E07B6B86EF07F0EDD798EF07F019
:100F10008A530AE1172C03D017EC02F004D01750C3
:100F20000208D8B48DD704D08A51020801E1EDD768
:100F300012002130886F883388331F0E88172152A2
:100F400041E1040100513C0B0001896F430E040193
:100F500000170001895134081EE104010451800B7F
:100F600001E0046B0001BBD56D98233C05D08B6B71
:100F7000030E8C6FCDDD0ED08B6B020E8C6FC8DD37
:100F80002350FE0807E0936B956B23C094F0040E8A
:100F9000966F5EDE16D08951040813E18A6B3CDF40
:100FA0008B6B020E8C6FB4DD2350FE080AE0233CED
:100FB00001D007D0936B956B23C094F0010E966F10
:100FC00047DE1AD0215004080EE123688A6BA0DFA7
:100FD000233C01D007D0936B956B23C094F0020E95
:100FE000966F36DE09D021B404D088C08AF014DFB1
:100FF00003D088C08AF08CDF2FEF08F0A19A22522C
:10100000D8B433D06852D8B430D068A403D069B40F
:101010000FEF01F06DB229D068AA03D069BA27EFAB
:1010200001F068A203D069B22EEF01F068A003D0EE
:1010300069B0F5EF01F068A803D069B80AEF02F0D3
:1010400068AC03D069BC0FEF02F0876B68A608D0CC
:1010500069A606D06CCF21F002EC00F06AD701D06F
:1010600004D08751872B0308F1E230EF00F09EA8EF
:10107000FED7AD6E44EF08F09EAA06D09EAAFED71A
:10108000AECF81F08151F3D79E9A30EF00F0EA6A3B
:10109000830EE96EEF500EE0070E016E006A002E1F
:1010A000FED7012EFBD7C70E006E002EFED7000024
:1010B000EF2EF2D712006D6A696A080E6F6E9450B7
:1010C0003009946E226A166AF2BE168EF29EDFEC2A
:1010D00001F016BEF28E6EEF08F0EDD7B9EF08F012
:1010E0001850016EBAEF08F0166AF2BE168EF29E24
:1010F000DFEC01F016BEF28E6D6A140E6F6E696A37
:101100006D86010E226E88EF08F06DB601D0ECD727
:10111000222C0BD06DBA09D0686A696AA08AC00E09
:10112000F212110E696E020E226EBDEF08F0F86A1F
:10113000D09E078EB886700EAF6E020EB06EA60EF1
:10114000AC6E900EAB6EC150C00B0F09C16E070E96
:10115000B46E1B6A040E1C6E0C0E1D6E7F6B806BD2
:10116000816B020E826FFA0E836F91DF822FFBD7A5
:10117000B4D7B6D7015207E1C8D795928C72020E48
:10118000836F85DFF6D795928C9295908C809D8A9F
:10119000C00EF21294948B74020E826FFA0E836F5B
:0A11A00076DF822FFBD7F6D703009D
:020000040030CA
:0E000000234C3E1E0005A1000FC00FE00F4074
:00000001FF
;PIC18LF4550
;CRC=FD67  CREATED="09-февр-14 05:53"
