:10000000E5EF08F068961200046ED8CF05F0E0CF57
:1000100006F00001E9CF0CF0EACF07F0E1CF08F0DD
:10002000E2CF09F0D9CF0AF0DACF0BF0F3CF12F01C
:10003000F4CF13F0FACF14F000C00EF001C00FF0AF
:1000400002C010F003C011F0F2AA2AEF00F0F2B4DF
:1000500058EF08F0A0AA30EF00F0A1BA04EF08F0C2
:100060000EC000F00FC001F010C002F011C003F08C
:100070000CC0E9FF07C0EAFF078E08C0E1FF09C016
:10008000E2FF0AC0D9FF0BC0DAFF12C0F3FF13C0B2
:10009000F4FF14C0FAFF045006C0E0FF05C0D8FF0B
:1000A0001000F76AB20FF66E000EF7220900F55045
:1000B0001200000302FFFFFFFFFFFFFFFFFFFFFF34
:1000C000FFFFF76AD20FF66E000EF7220900F55017
:1000D000120000FF02FFFFFFFFFFFFFFFFFFFFFF18
:1000E000FFFFF76AF20FF66E000EF7220900F550D7
:1000F000120040000B004000000000000000000063
:1001000000000000000000000000000000000000EF
:10011000000007AE03D0F2CF0DF0F29EF76A340F65
:10012000F66E010EF7220900F55007AE02D00DBEA3
:10013000F28E1200400000004000000000000000AD
:1001400000000000000000000000000000000000AF
:1001500000000000F76A640FF66E010EF722090036
:10016000F550120009024300020100803209040028
:10017000000102020100052400100104240202050E
:10018000240600010524010001070581030B00FA84
:1001900009040100020A00000007050202400001F4
:1001A0000705820240000100F76AB80FF66E010EE3
:1001B000F7220900F55012000200F76ACA0FF66E26
:1001C000010EF7220900F550120012171B20FFFF45
:1001D000FFFFF76AE20FF66E010EF7220900F550F5
:1001E0001200120110010200004005240B00000162
:1001F00001020001F76A040FF66E020EF7220900F1
:10020000F55012000403090408034300430053009F
:1002100020034300430053002000550053004200D8
:10022000200074006F00200055004100520054006F
:100230006D92699468A402D06894FCD710EF08F01E
:10024000400E0401016F040E036F180E026F880E3A
:10025000006F046B040E076F580E066F000112004A
:1002600070A002D0EDDF7090689A17EF08F06A6A0C
:1002700068921CEF08F0A891A7BFA881A79FA7517B
:10028000100803E2000E016E20D0A8A110D0036A6E
:10029000A751F2CFA9F0F29E04DFA9BFF28EFF08AA
:1002A00002E1000E01D0010E016E0FD00ED0036AE4
:1002B000A751F2CFA9F0F29E04DFA9BFF28EFF088A
:1002C00002E1000E01D0010E016E1200AC51AE032E
:1002D000F3CF01F0F4CF00F0AF03F3500026AD519F
:1002E000AE03F3500020026E1200036AA651700F95
:1002F000E96E0F0E0320EA6EEF6AA6C0A7F0BBDF1F
:10030000015222E0AD6BA6C0ACF0AF6B080EAE6F31
:10031000DDDF01C0E9FF040E0224EA6EEF6AAD6B77
:10032000A6C0ACF0AF6B080EAE6FD0DF02C0A8F075
:1003300001C0A7F0040EA727000EA823A7C0E9FF5D
:10034000040EA825EA6EEF6A1200010EA56FA551F2
:100350000F0805E3A5C0A6F0C8DFA52BF8D712004B
:100360009F6B9E6B250E9D6F800E9C6FEA6A2C0E14
:10037000E96EE26A9C0EE16E020E016EE6CFEEFFC0
:10038000012EFCD72E6A2F6A9C6BEA6A300EE96E4A
:10039000E26A9C0EE16EE6CFEEFF9C6BEA6A310EDC
:1003A000E96EE26A9C0EE16EE6CFEEFF080E9C6FEE
:1003B000EA6A320EE96EE26A9C0EE16EE6CFEEFF6B
:1003C0007E6B7D91346A336A7C6B1F907F6B120069
:1003D000296A286A9B6B9B5101080AE3036A9B51B7
:1003E0002A0FE96E000E0320EA6EEF6A9B2BF3D70B
:1003F000B7DF196A010E1A6E186A12006A6A686A13
:100400009F0E6B6E3D0E696E6E6A9FDFE1DF160E0A
:10041000706E68A602D0F6DDFCD76D9811DF030E72
:10042000236E21EF08F0698468986D8226EF08F04A
:10043000689C2BEF08F0A0C024F012002468120082
:100440009E6B285029103CE09E513F0839E31B5019
:1004500005E0020A0EE0010A17E020D027C003F0F1
:100460002650F2CFA0F0F29E75DEA0BFF28E9F6FF5
:1004700015D027C003F02650F2CFA0F0F29EBADECE
:10048000A0BFF28E9F6F0AD027C003F02650F2CF94
:10049000A0F0F29E9EDEA0BFF28E9F6F262AD8B4F7
:1004A000272A2850D8B4290628069E519E2B580F7B
:1004B000E96E040EEA6ED8B0EA2A9FC0EFFFC1D7FA
:1004C0002850291004E19E51400801E0186A9EC09E
:1004D000A0F0B1DF1200276A266A1B6A04011B51D3
:1004E000010A000107E0030A0BE0010A0DE0220AFD
:1004F00027E049D0296A120E286E030E1B6E45D0E4
:10050000296A430E286E41D0020E1B6E036A040155
:100510001A511C0FE96E000E0320EA6E276AEFCF16
:1005200026F027C003F02650F2CF9DF0F29E000186
:1005300061DE9DBFF28E036A286E03C029F025D0CC
:10054000036A04011A51F2CF9DF0F29E000135DEDC
:100550009DBFF28E036A266E03C027F0263C02D0B0
:1005600027520FE027C003F02650F2CF9DF0F29EF5
:10057000F1DD9DBFF28E036A286E03C029F005D01D
:1005800002D05CDF11D05ADF0FD004011F5308E105
:10059000295203E128501E5D03E2296A1EC428F097
:1005A000010E186E00014CDF1AEF04F09D5304E1B8
:1005B000040E236ECADEE9D0050E236E040EA06F72
:1005C000980E9F6F010E9E6F9E510F08D8A0DDD030
:1005D0009EC0A6F08ADEA16B036A9E51F2CFA5F001
:1005E000F29E6FDDA5BFF28EFF0865E0040EA16FDD
:1005F000D8909E35036AF2CFA5F0F29E8ADD0900FD
:10060000F5CF03F0A5BFF28EA26F03C0A3F0AD6BD0
:100610009EC0ACF0AF6B080EAE6F58DE01C0A5F007
:10062000010E0124016E000E0220036E01C0E9FFDD
:10063000040E0324EA6EA2C0EFFFAD6B9EC0ACF0C7
:10064000AF6B080EAE6F42DE01C0A5F0020E0124B2
:10065000016E000E0220036E01C0E9FF040E0324A8
:10066000EA6EA0C0ECFFED529FC0EFFFD8909E3520
:10067000036AF2CFA5F0F29E4CDD0900F5CF03F03E
:10068000A5BFF28E9F270350A023880EA46FA3A1BD
:1006900001D0A481A3A301D0A483AD6B9EC0ACF014
:1006A000AF6B080EAE6F12DE01C0E9FF040E02242C
:1006B000EA6EA4C0EFFF036A9E51F2CFA5F0F29E4E
:1006C000F0DCA5BFF28EFF0845E0A183AD6B9EC0B4
:1006D000ACF0AF6B080EAE6FF9DD02C0A6F001C042
:1006E000A5F0040EA527000EA623020EA525016E77
:1006F000000EA621036E01C0E9FF040E0324EA6E7A
:10070000A0C0ECFFED529FC0EFFFD8909E35036A6A
:10071000F2CFA5F0F29EE5DC0900F5CF03F0A5BF0E
:10072000F28E9F270350A023AD6B9EC0ACF0AF6B41
:10073000080EAE6FCBDD02C0A6F001C0A5F0040E1E
:10074000A527000EA623A5C0E9FF040EA625EA6E84
:10075000400EEF6EA151060802E10E0EA16F036A72
:100760009E51F2CFA5F0F29E9CDCA5BFF28E01084F
:1007700001E0A189036A9E51700FE96E0F0E0320FC
:10078000EA6EA1C0EFFF9E2B1FD714EF04F0040107
:100790001951000A00010DE0010A14E0020A1FE0ED
:1007A000060A29E0030A2EE00E0A2EE0010A32E0D2
:1007B00040D01AC058F40401596B020E0001A06F1A
:1007C0003ADE38D004011A2D07D0010E1A160001A6
:1007D000A06B31DE03D00401000130DE2BD0040118
:1007E0001A2D06D01A820001A06B25DE03D0040169
:1007F000000124DE1FD0020E186E1AC425F0A06B73
:100800001ADE18D068D616D019C058F4010EA06FA1
:1008100012DE10D004011A51010809E31AC419F0BC
:100820001AC49DF00001C2D6A06B05DE04010001D0
:1008300001D004DE8FEF05F019C09DF004011951BD
:10084000000A000105E00A0A0BE0010A2BE03CD097
:100850000401586B596B020E0001A06FECDD35D01E
:100860009D531EE0010E9D5D036AF2CF9EF0F29E45
:100870009BDC9EBFF28E016E04011C5DD8A002D0ED
:1008800000010ED0036A1C512A0FE96E000E0320EE
:10089000EA6EEFCF58F4010E0001A06FCCDD01D05D
:1008A000CDDD13D09D530EE0036A04011C512A0FC5
:1008B000E96E000E0320EA6E1AC4EFFF0001A06B80
:1008C000BADD01D0BBDD01D0B9DD8FEF05F09E911F
:1008D0009DBF9E819D9F9EA117D0AD6B9DC0ACF02A
:1008E000AF6B080EAE6FF2DC02C0A0F001C09FF04B
:1008F000040E9F27000EA0239FC0E9FF040EA02531
:10090000EA6E880EEF6E0DD0AD6B9DC0ACF0AF6B94
:10091000080EAE6FDBDC01C0E9FF040E0224EA6EB4
:10092000EF6A07EF05F09E919DBF9E819D9F9EA15E
:1009300017D0AD6B9DC0ACF0AF6B080EAE6FC6DCD0
:1009400002C0A0F001C09FF0040E9F27000EA0235C
:100950009FC0E9FF040EA025EA6E840EEF6E0ED054
:10096000AD6B9DC0ACF0AF6B080EAE6FAFDC01C0DD
:10097000E9FF040E0224EA6E840EEF6E0DEF05F01F
:100980009E919DBF9E819D9F9EA117D0AD6B9DC0E6
:10099000ACF0AF6B080EAE6F99DC02C0A1F001C0E5
:1009A000A0F0040EA027000EA123A0C0E9FF040EB2
:1009B000A125EA6EEFCF9FF00ED0AD6B9DC0ACF0DD
:1009C000AF6B080EAE6F82DC01C0E9FF040E02249B
:1009D000EA6EEFCF9FF09FAF02D09FB502D0000E1E
:1009E00001D0010E016E17EF05F01CC4A7F043DC27
:1009F000015228E004011951010A000105E0020A30
:100A000009E0030A0DE01DD01CC49DF060D7A06B67
:100A100012DD18D01CC49DF086D7A06B0CDD12D05F
:100A20000401586B596B1CC49DF00001A9D70152F9
:100A300004E0010E0401586F0001020EA06FFBDC00
:100A400001D0FCDC8FEF05F0FE0E246E12000401D5
:100A50001C2D01D002D01C5348E11951000A00019D
:100A60000BE0010A0DE0210A1CE0010A1FE0030A65
:100A70002EE0010A31E037D0010E7F6FE5DF34D080
:100A8000040EEA6E580EE96EE26A350EE16E080E4B
:100A9000016EE6CFEEFF012EFCD71EC4A0F0CBDC2A
:100AA00023D0020E7F6F7D81CFDF1ED0040EEA6E51
:100AB000580EE96EE26A2C0EE16E070E016EE6CF6B
:100AC000EEFF012EFCD7070EA06FB5DC0DD01AC4C7
:100AD0007EF0A06BB0DC08D01AC434F01BC433F035
:100AE000A06BA9DC01D0AADC040100018FEF05F0A6
:100AF000186A040118517F0B000A000107E0010A7F
:100B000007E0030A07E0230A07E008D040D607D031
:100B100093D605D06AD703D09AD701D08FDCBAEF2D
:100B200007F0AD6B9EC0ACF0AF6B080EAE6F66EC1D
:100B300001F001C0E9FF040E0224EA6EEFCFA0F03D
:100B40009F51020806E1A0AD02D09F6B02D0010EBA
:100B50009F6F9F5103081AE1840EA06FAD6B9EC07A
:100B6000ACF0AF6B080EAE6F66EC01F002C0A4F003
:100B700001C0A3F0040EA327000EA423A3C0E9FF25
:100B8000040EA425EA6E840EEF6E07D09F2D03D0CD
:100B9000C80EA06F02D0880EA06FD8909E35036A51
:100BA000F2CFA3F0F29E89EC00F00900F5CF03F03C
:100BB000A3BFF28EA16F03C0A2F0AD6B9EC0ACF0DC
:100BC000AF6B080EAE6F66EC01F001C0A3F0010E32
:100BD0000124016E000E0220036E01C0E9FF040E25
:100BE0000324EA6EA1C0EFFFA2A101D0A081A2A3BD
:100BF00001D0A083AD6B9EC0ACF0AF6B080EAE6FA2
:100C000066EC01F001C0E9FF040E0224EA6EA0C008
:100C1000EFFF1200036AAB51700FE96E0F0E032055
:100C2000EA6EEF5219E0AD6BABC0ACF0AF6B080EE3
:100C3000AE6F66EC01F002C0ADF001C0ACF0040E86
:100C4000AC27000EAD23ACC0E9FF040EAD25EA6E63
:100C5000EFCFAEF0AEAF02D0000E01D0010E016EAC
:100C60001200A6C0ABF0D6DF0152D8B47DD0AD6B78
:100C7000A6C0ACF0AF6B080EAE6F66EC01F002C020
:100C8000ACF001C0ABF0040EAB27000EAC23010E9C
:100C9000AB25016E000EAC21036E01C0E9FF040E0E
:100CA0000324EA6EA7C0EFFFA95102081EE1AD6B55
:100CB000A6C0ACF0AF6B080EAE6F66EC01F002C0E0
:100CC000ACF001C0ABF0040EAB27000EAC23ABC000
:100CD000E9FF040EAC25EA6EEFCFAAF0AAAD02D070
:100CE000A96B02D0010EA96F18D0A951040815E113
:100CF000AD6BA6C0ACF0AF6B080EAE6F66EC01F04A
:100D000001C0E9FF040E0224EA6EEFCFAAF0AAADFB
:100D100003D0010EA96F01D0A96BA92D03D0C80E75
:100D2000AA6F02D0880EAA6FA8A101D0AA81A8A399
:100D300001D0AA83AD6BA6C0ACF0AF6B080EAE6F4E
:100D400066EC01F002C0ACF001C0ABF0040EAB27C2
:100D5000000EAC23ABC0E9FF040EAC25EA6EAAC0BE
:100D6000EFFF010E016E02D0000E016E12007F51E6
:100D7000010A03E0030A13E024D0EA6A350EE96EA3
:100D8000040EE26E180EE16E080E016EE6CFEEFF65
:100D9000012EFCD7A06B1BEC02F07F6B13D0EA6A2C
:100DA0002C0EE96E040EE26E180EE16E070E016E57
:100DB000E6CFEEFF012EFCD77F6BA06B1BEC02F0A1
:100DC00001D07F6B17EF07F0AD6B9EC0ACF0AF6B3F
:100DD000080EAE6F66EC01F002C0A0F001C09FF0FB
:100DE000010E0124016E000E0220036E01C0E9FF16
:100DF000040E0324EA6E036AEFCF01F003C002F091
:100E00000DEF07F01F90020E9E6F9F6F8ADE12009B
:100E10001F80216A020E9E6FD7D701C020F020529A
:100E200001E1F0DF1CEF07F09D5302E1A0D704D0F1
:100E30009D51020801E1ECD712009EC06EFF9E5347
:100E400003E0040E236E02D0020E236E2DEF07F096
:100E5000196A186A25C09EF0F0D799EF07F09EC076
:100E6000ABF0D8DE015243E0AD6B9EC0ACF0AF6B8F
:100E7000080EAE6F66EC01F002C0A7F001C0A6F04C
:100E8000040EA627000EA723020EA625016E000E53
:100E9000A721036E01C0E9FF040E0324EA6EECCF24
:100EA000A5F0ED52EFCFA4F0A5C0EAFFA4C0E9FF82
:100EB000A0C0E2FF9FC0E1FFA2C002F0A1C001F00C
:100EC000015202E0022A02D0025206E0E6CFEEFF13
:100ED000012EFCD7022EFAD79EC0A6F0A2C0A8F021
:100EE000A1C0A7F0A3C0A9F0BCDE015002D0000E43
:100EF000016E12007C530EE0020E9E6FA06B3D0E41
:100F00009F6FA26B7CC0A1F0020EA36FA8DF0152FD
:100F100001E07C6B1200EEDF9EEF07F09D530AE1CB
:100F2000182C03D020EC02F004D018500208D8B4DA
:100F30008FD704D09D51020801E1EDD71200223075
:100F40009B6F9B339B331F0E9B17225241E1040181
:100F500000513C0B00019C6F430E0401001700017F
:100F60009C5134081EE104010451800B01E0046B24
:100F70000001BED56D98243C05D09E6B030E9F6F7B
:100F8000D0DD0ED09E6B020E9F6FCBDD2450FE088D
:100F900007E0A66BA86B24C0A7F0040EA96F61DE62
:100FA00016D09C51040813E19D6B3EDF9E6B020E30
:100FB0009F6FB7DD2450FE080AE0243C01D007D023
:100FC000A66BA86B24C0A7F0010EA96F4ADE1AD049
:100FD000225004080EE124689D6BA0DF243C01D060
:100FE00007D0A66BA86B24C0A7F0020EA96F39DE4C
:100FF00009D022B404D09BC09DF016DF03D09BC063
:101000009DF08CDF35EF08F0A19A2352D8B433D08D
:101010006852D8B430D068A403D069B418EF01F096
:101020006DB229D068AA03D069BA30EF01F068A286
:1010300003D069B237EF01F068A003D069B0FEEFCA
:1010400001F068A803D069B813EF02F068AC03D0D0
:1010500069BC18EF02F09A6B68A608D069A606D0A2
:101060006CCF22F002EC00F06AD701D004D09A5184
:101070009A2B0308F1E230EF00F0E8EC01F06D6A22
:10108000140E6F6E696A6D86010E236E12006DB6C6
:1010900001D0F3DF232C0BD06DBA09D0686A696ADE
:1010A000A08AC00EF212110E696E020E236E12009B
:1010B000EEDF94948B74F29430EF00F0EA6A860EBF
:1010C000E96EEF500EE00F0E016E006A002EFED7A3
:1010D000012EFBD78F0E006E002EFED70000EF2EE4
:1010E000F2D712006D6A696A080E6F6E945030096B
:1010F000946E236A166AF2BE168EF29EE8EC01F038
:1011000016BEF28E85EF08F0EDD707EF09F0195003
:10111000016E0AEF09F01FB001D0FDD72150212A3E
:10112000A30FE96E040EEA6ED8B0EA2AEFCF85F07D
:101130002050215C07E3166AF2BE168EF29E62DE34
:1011400016BEF28E85C001F023EF09F09EA8FED7EF
:10115000AD6E2CEF09F09EAAFED7ABCF17F0AECF45
:1011600001F017A202D0AB98AB882FEF09F088915D
:10117000A0BA8881A09A7C513E0802E23E0E7C6FA4
:101180007C517C2B036A3D0FE96E000E0320EA6E52
:1011900087C0EFFF88A101D0A08AD2EF08F086C0F7
:1011A00087F0E5D7166AF2BE168EF29EA3DE16BE53
:1011B000F28EE3EF08F03F0ED8807C5501E1FBD7BB
:1011C00085C086F0ECD739EF09F0F86AD09E078E1B
:1011D000176AB886E10EAF6E040EB06EA60EAC6E46
:1011E000900EAB6EC150C00B0F09C16E070EB46EEE
:1011F0001C6A040E1D6E0C0E1E6E806B816B020E3F
:10120000856FFA0E866F5ADF852FFBD77DD7880E44
:10121000D56E7DD701520DE1166AF2BE168EF29E92
:1012200036DF16BEF28E95928C72320E866F46DFD6
:10123000F0D795928C9295908C80F28AC00EF21223
:101240001FA00AD068D701C083F08351450802E18E
:1012500095928C7283517AD79EAA0BD07CD701C00D
:1012600084F08451520802E195928C7284C085F01A
:0C127000A2D7050E866F22DFE3D7030033
:020000040030CA
:0E000000234E3E1E0005A1000FC00FE00F4072
:00000001FF
;PIC18LF4550
;CRC=7F72  CREATED="06-февр-14 20:26"
