:1000000000308A0087280000831A0A28A400030E03
:10001000A5000F288312A400030EA500A5140A084A
:10002000AB008A018313A40E0408A6002008A700D1
:100030002108A8002208A9002308AA0083128C30F6
:100040008400801C25288C1838282608840027085E
:10005000A0002808A1002908A2002A08A3002B0854
:100060008A00250E83008312240EA518831609002A
:100070002C186028051C43280130850605188510BA
:10008000051C85144B28851C4B28023085068518D5
:100090000510851C0514AD0A0319AE0A2E08053C8F
:1000A00003186028FF3A031D59282D08813C0318C6
:1000B0006028AE01AD018316051104308312850658
:1000C0008C108A1125280330831685008510831231
:1000D00085108316051083120510831605118312EF
:1000E00005119C28C0308B0483168C1483129D2824
:1000F00005148316051183120515B5280510851002
:100100008316051183120511AE01AD01BE28030847
:100110001F398300713083168F0090010F088312FE
:100120001F1383161F109F101F119F11073083127A
:1001300099000130AC00632872280030A100053816
:100140009200983083169200003083122C180130F0
:10015000013A0319AF28013A0319B728BE288316BC
:1001600085168312851EB62878282C10BE28831683
:1001700085168312851ABE282C147E288316A4287F
:0201800063001A
:02400E00C40FDD
:00000001FF
;PIC12F683
;CRC=D5E4  CREATED="26-май-18 19:36"
