:1000000002308A00E12A0000FF00030E8301A100F4
:100010007F08A0000A08A7008A01A00E0408A20019
:100020007708A3007808A4007908A5007A08A6003C
:10003000831383120B1E1E288B1881288C3084009A
:10004000801C24288C18BC28220884002308F70070
:100050002408F8002508F9002608FA0027088A0075
:10006000210E8300FF0E7F0E09000A108A100A116C
:1000700082074B34653472346E3465346C3420340A
:10008000703472346F3462346C3465346D342034BF
:1000900021342134213400340A108A100A118207D5
:1000A000683465346134643420343D34203425347C
:1000B00075340A3400340A108A100A118207743425
:1000C000613469346C3420343D3420342534753443
:1000D0000A34003483163D08F8013C0203187328E3
:1000E0003C08F7007F28F7010830BE00BC0DF70D73
:1000F0003D0877020318F700F80DBE0B762883122F
:1001000008000310340D2A3E84008313840A800102
:10011000840365308000B40A34088316BC000530BF
:10012000BD0083126A207708B400B60A0310340DAC
:100130002A3E84008313840A8001840356308000A1
:10014000B40A34088316BC000530BD0083126A204F
:100150007708B400B60A8B108A1124283708F800F3
:100160003808F900080083163F088312B800831688
:100170003E088312B7000800AE20F80A0319F90AF6
:1001800079088316BD007808BC003D08BF003C0814
:10019000BE008312B3208C108A112428840A000820
:1001A0008A0084030008820008002A308400831338
:1001B000F7010D30F80078080319E328770880006C
:1001C000840AF80BDE28772B831686138312861396
:1001D000831685108312851083160510831205106F
:1001E0008316061383120613831606128312061251
:1001F0008316861283128612080083168E15031743
:10020000811383120313E420F03097058316011342
:100210001830F800043883129200FF3083169200E1
:1002200083120B16831601138C14C03083128B04B7
:100230000F30F70081018130840083130008F0390A
:100240000738800064000008F739F719F03977049F
:100250008000782B7808A8018B1BA8178B138316B6
:100260003108BC006430BD0083126A20A81B8B17C4
:1002700077088316B10078083030031D4629B21C78
:100280005029B2195029321A20304929B21132129C
:100290003214F807780883120C1E4C299900831633
:1002A0008312A8018B1BA8178B1383163108BC007F
:1002B0000A30BD0083126A20A81B8B1777088316AB
:1002C000B10078083030031D6B29B2197229321C35
:1002D0007229321A2030F807780883120C1E6E2912
:1002E000990083163030B107310883120C1E76292D
:1002F00099000800FF308316850086006300831292
:100300000800B930840083130008031995290130CF
:10031000F800F701F70B8A29F80B89294A30F70012
:10032000F70B90299329800B872908008316061460
:1003300083120618B029690BB0291E308316B90044
:10034000831281218316061483120618AC29E90151
:100350000130F800B229AF290030F800B229B229E3
:100360000030F80008008316061383120617831660
:1003700085108312851483160510831205148316C5
:100380008613831286130800EC080319D229A801EA
:100390008B1BA8178B138316BF01BE018312B320DA
:1003A000A81B8B176D08FC3E0318A92A043EB22A2D
:1003B0009621F8080319DE290130ED00AE207908F6
:1003C0008316BA007808B9003A08E93C03180C2AE9
:1003D000FF3A031DEF2939085F3C03180C2A03106C
:1003E0008312340D2A3E84008313840A800184031F
:1003F00039308000B40AA8018B1BA8178B1334086E
:100400008316BC000530BD0083126A20A81B8B1721
:100410007708B400B60A83168312A92A8316061336
:100420008312061783168510831285108316051014
:100430008312051083168613831286138316861281
:10044000831286169621F8080319282A0230ED0037
:10045000A92AB3219621F80803194F2A8316851576
:100460008312851D412A831605158312051D412A15
:100470000A308316B900831281210330ED00A92AC6
:100480004F2AE420A8018B1BA8178B138316BF01EA
:10049000BE018312B320A81B8B17ED01A92AA92A3C
:1004A000831606138312061783168510831285148C
:1004B0008316051083120510831686138312861780
:1004C0008316B801B701061483120618812A831611
:1004D000B70A0319B80A3808003C03187A2AFF3A09
:1004E000031D762A37088F3C03187A2A0130B8009A
:1004F0008F30B7000A30B900831281218316632A36
:10050000831283163808013C031CA52A031D8C2A7C
:1005100037088F3C031CA52AB70A0319B80A0A300A
:10052000B900831281218316051583120519A02AAB
:10053000B3210230ED008316B801B701A52A83125A
:100540008316B70A0319B80A822A8312B32102302C
:10055000ED00831606148312061CB02A0130E90050
:10056000EC01BB2A0A108A140A118207D8290E2A24
:10057000292A502AC42908000308183983168E1C1A
:100580000E14F7000E08033977040E148E14831529
:100590000316033C031DD92A8612831286163230B5
:1005A0008316B90083128121831686128312861264
:1005B0008316831208008316861220308312860663
:1005C000080003081F39830083168E158312A901C2
:1005D000193083169900A630980090308312980045
:1005E0000130EC00ED01EF01EE0107309F008313B5
:1005F000B701B8015330BD006C30BE006530BF009C
:10060000C0007030C1005430C2006130C30073308C
:10061000C4006B30C500C601BA013D30B9000130DD
:10062000BC007A30BB004230CB007530CC00743057
:10063000CD00CE006F30CF006E30D0005430D100EE
:100640006130D2007330D3006B30D400D501C801C3
:100650004B30C7000230CA00BA30C9005730DA0048
:100660006130DB006B30DC006530DD005530DE00D2
:100670007030DF005430E0006130E1007330E200A0
:100680006B30E300E401D7015A30D6000230D900C4
:10069000BC30D80054308316A0006F30A100673002
:1006A000A200A3006C30A4006530A5005330A60062
:1006B0007430A7006130A8007230A9007430AA001D
:1006C0006530AB007230AC004C30AD006530AE0030
:1006D0006430AF00B0018312E601A030E5000230C3
:1006E000E800DB30E700E901EA01EB01D528FD284D
:1006F0000310350D2A3E84008313840A00088316F4
:10070000B20084030008B100B108031D8A2BB208AF
:100710000319592C8312B608031DA02B8316B101AF
:100720003108831235208316B10AF70083120C1E9C
:10073000972B9900123083163102031D902B8312E0
:100740000310350D2A3EF800FA010318FA0A78085A
:100750008316B1007A08B20031088400831332187E
:100760008317840A0008B40084030008B3008400DF
:10077000831334188317840A0008B6008403000822
:10078000B500840083133618831700300004031962
:10079000D12B000883120C1ECB2B9900840A8316E0
:1007A000C52B0A3083120C1ED32B99008316B1017E
:1007B000310883124C208316B10AF70083120C1EF5
:1007C000DF2B9900073083163102031DD82B8312CB
:1007D00034088316B1001B30B20083122A210A307C
:1007E0000C1EF02B99008316B101310883125B2097
:1007F0008316B10AF70083120C1EFC2B99000730F8
:1008000083163102031DF52B831235088316B100C0
:100810001B30B20083122A210A300C1E0D2C9900C5
:100820008316981C112C03108312350D2A3EF800F4
:10083000FA010318FA0A78088316B1007A08B200A0
:1008400031088400831332188317840A0008B40027
:1008500084030008B30002303307F8003408FA00BC
:100860000318FA0A7808B5007A08B600350884003B
:100870008313361883178312CE20B6030310350D69
:100880002A3E84008313840A800184038001B50A10
:10089000A8018B1BA8178B1335088316BC000530E5
:1008A000BD0083126A20A81B8B177708B500782B30
:0A08B000831664008312782B6300A6
:02400E0074211B
:00000001FF
;PIC16F628A
;CRC=DF54  CREATED="03-ян-16 17:37"
