:1000000080313028000021000E1322000E1324003E
:1000100011082000210824009100140C031C0D2855
:100020001108F80021000E1322000E178031200065
:1000300053282030850001308400000803192E2841
:100040000530F800F701F70B2328F80B22282E3093
:10005000F700F70B29282C28800B20288031562800
:100060007A3021009900240095124030940001302C
:1000700092002A30950021008E130D160E130D13D9
:100080000E1322000E1723008C018D018E01220019
:10009000920191019401930178302100990055302B
:1000A0002000A1000328FA30A100192821004F28C0
:0200B0006300EB
:020000040001F9
:04000E008409FF1F43
:00000001FF
;PIC16F1508
;CRC=35B4  CREATED="16-май-15 19:56"
