:06000000803152280000CF
:0800080083018031200077081C
:10001000A0007808A1007908A2007A08A300850151
:1000200091308400801D162891191F282008F700A0
:100030002108F8002208F9002308FA00090080319D
:100040003E2821000E1322000E132000A408A40154
:1000500003193128240011082000260824009100EB
:1000600020002400140C031C32281108F800210081
:100070000E1322000E17803120004128A401A60192
:1000800021287808A5002508553C031D4D2821008E
:100090008C12203022008C0620000708911191114B
:1000A000803116287A30210099002000A401240014
:1000B0009512403094002430950021008E130D16C7
:1000C0000E170D170E1322000E1723008C018D0141
:1000D0008E01220092019101940193017830210058
:1000E00099009115C0308B040708200091117728E2
:0200F0006300AB
:020000040001F9
:04000E008409FF1F43
:00000001FF
;PIC16F1508
;CRC=153D  CREATED="16-май-15 19:55"
