:1000000046EF02F054686520657261736564207084
:1000100061676520636F6E74656E743A2000546882
:10002000652062756666657220636F6E74656E74B6
:100030003A200000020EEA6E150EE96EEF500EE057
:100040000D0E016E006A002EFED7012EFBD7810E29
:10005000006E002EFED700D0EF2EF2D73FEF00F05B
:100060008B96979E8E8E47EF00F0400E9B6E020E91
:10007000D36ED350140E0201156F0001DBD7C66A90
:1000800093988A888B908B92900E946EE9D76BEF41
:1000900003F0938681B6FDD7938681A6FDD7120023
:1000A000100ED88002012355006E005205E0D89052
:1000B00021372237002EFBD7246B2351245D0BE21E
:1000C000D8902137223702E28B9A01D08B8A8B8617
:1000D0008B96242BF2D7000112000201226B2251D1
:1000E00007080AE38B8682B802D0D89001D0D88066
:1000F00021378B96222BF3D721C201F000018CEF20
:1001000000F0979E8E9E0201226BD70E216F080E83
:10011000236F0001C5DFE1D701C020F2979E8E8ECC
:10012000020120C201F00001A4EF00F002011F6BE8
:100130001FBF0ED0979E8E9E226BD70E216F080E8A
:10014000236F0001ADDFDDD701C01FF20201F0D740
:10015000000112000201246B236B2451225D26E36F
:1001600003E12151235D22E2070E256F25BF1AD03E
:100170001F512325E96E20512421EA6EEFCF26F28C
:1001800026C200F02551016E04E0D8900032012E05
:10019000FCD700B002D08B9A01D08B8A8B868B96CD
:1001A0002507E4D7232BD8B4242BD7D7000106EF9B
:1001B00001F0BCDF979E8E9E0201175303E0850E6F
:1001C0001E6F02D0820E1E6F226B1EC221F2080E1D
:1001D000236F000165DF16C222F215C221F20F0E55
:1001E0000201236F00015CDF19C222F218C221F262
:1001F000090E0201236F000153DF1BC220F21AC255
:100200001FF21DC222F21CC221F2A4D7979E8E8E2D
:100210007EEF03F00201226B216B2251205D22E36D
:1002200003E11F51215D1EE2236B23BF03D0235145
:10023000070814E38B8621511D25246F22511E21AE
:10024000256F82B802D0D89001D0D88025C2EAFFAD
:1002500024C2E9FFEF368B96232BE7D7212BD8B4A6
:10026000222BDBD70001120061DF979E8E9E0201D8
:10027000226BD20E216F080E236F000111DF16C210
:1002800022F215C221F20F0E0201236F000108DFD6
:1002900018C222F217C221F2090E0201236F0001D7
:1002A000FFDE0201226B216B200E236F0001F8DEBE
:1002B0001AC21EF219C21DF21CC220F21BC21FF28A
:1002C000A9DF979E8E8E120002011F51016A1E5DEA
:1002D00003E21EC200F00CD0006A080E206F1E3729
:1002E00000361F51005CD8B0006E0136202FF7D7C2
:1002F0000001120001501CC21EF2640E02011F6FA9
:100300000001E2DF00C01CF20150300E08E10201E2
:100310001DA30ED01DB70CD01DB9200E04D00201B4
:100320001D971D991D81012601509EA8FED7AD6E17
:100330001CC21EF20A0E1F6F0001C6DF00C01CF2B5
:100340000150300E08E102011DB70BD01DA109D0EC
:100350001DB9200E0001012601509EA8FED7AD6EEA
:100360000201300E1C271C519EA8FED7AD6E000165
:10037000D2EF01F002011A6B196B1A51185D1BE3E1
:1003800003E11751195D17E215511925E96E165150
:100390001A21EA6EEFCF1BF21BC21CF21B0E1D6F5F
:1003A0000001A8D7200E9EA8FED7AD6E0201192B22
:1003B000D8B41A2BE2D700011200B8DE979E8E9EA9
:1003C0000201226B810E216F080E236F000168DE8F
:1003D00016C222F215C221F20F0E0201236F000194
:1003E0005FDE0201226B216B090E236F000158DED4
:1003F000979E8E8E9EEF03F00900F55211E0F6CF26
:1004000015F2F7CF16F2F8CF17F2F5509EA8FED7E7
:10041000AD6E15C2F6FF16C2F7FF17C2F8FFECD794
:100420001200979E8E9E0201155303E0D60E1C6F9C
:1004300002D0D40E1C6F226B1CC221F2080E236F57
:1004400000012EDE0201226B216B0F0E236F0001D3
:1004500027DE17C222F216C221F2090E0201236F13
:1004600000011EDE0201226B216B080E236F0001CA
:1004700017DE19C21EF218C21DF21BC220F21AC2E8
:100480001FF2C8DE979E8E8ED5EF03F0F86AD09EDD
:10049000046A7E863C0EAF6E040E7F6EA60EAC6EB6
:1004A000900EAB6EC150C00BC16E070EB46E056AE4
:1004B000010E066E020E076E030E086E040E096E24
:1004C000050E0A6E060E0B6E070E0C6E080E0D6EF4
:1004D000090E0E6E0F6A106A116A126A136A146AA4
:1004E000156A166A176A186A196A1A6A1B6A1C6AF8
:1004F0001D6A1E6A1F6A206A216A226A236A246AA8
:10050000256A266A276A286A296A2A6A2B6A2C6A57
:100510002D6A2E6A2F6A306A316A326A336A346A07
:10052000356A366A376A386A396A3A6A3B6A3C6AB7
:100530003D6A3E6A3F6A406A416A426A436A446A67
:10054000456A466A476A486A496A4A6A4B6A4C6A17
:100550004D6A4E6A4F6A506A516A526A536A546AC7
:10056000556A566A576A586A596A5A6A5B6A5C6A77
:100570005D6A5E6A5F6A606B616B626B636B646B22
:10058000656B666B676B686B696B6A6B6B6B6C6BCF
:100590006D6B6E6B6F6B706B716B726B736B746B7F
:1005A000756B766B776B786B796B7A6B7B6B7C6B2F
:1005B0007D6B7E6B7F6B806B816B826B836B846BDF
:1005C000856B866B876B886B896B8A6B8B6B8C6B8F
:1005D0008D6B8E6B8F6B906B916B926B936B946B3F
:1005E000956B966B976B986B996B9A6B9B6B9C6BEF
:1005F0009D6B9E6B9F6BA06BA16BA26BA36BA46B9F
:10060000A56BA66BA76BA86BA96BAA6BAB6BAC6B4E
:10061000AD6BAE6BAF6BB06BB16BB26BB36BB46BFE
:10062000B56BB66BB76BB86BB96BBA6BBB6BBC6BAE
:10063000BD6BBE6BBF6BC06BC16BC26BC36BC46B5E
:10064000C56BC66BC76BC86BC96BCA6BCB6BCC6B0E
:10065000CD6BCE6BCF6BD06BD16BD26BD36BD46BBE
:10066000D56BD66BD76BD86BD96BDA6BDB6BDC6B6E
:10067000DD6BDE6BDF6BE06BE16BE26BE36BE46B1E
:10068000E56BE66BE76BE86BE96BEA6BEB6BEC6BCE
:10069000ED6BEE6BEF6BF06BF16BF26BF36BF46B7E
:1006A000F56BF66BF76BF86BF96BFA6BFB6BFC6B2E
:1006B000FD6BFE6BFF6B0101006B016B026B036B4B
:1006C000046B056B066B076B086B096B0A6B0B6B96
:1006D0000C6B0001CAD4DDDC93988A980201166B7A
:1006E000156B176B196B320E186F1B6B050E1A6F9B
:1006F000010E1D6F080E1C6F00015BD50201166B09
:10070000156B186B176B010E1A6F0D0E196F010E1A
:100710001C6F080E1B6F0001A7DD010E0201166F92
:100720000D0E156F010E186F080E176F000122DEF7
:10073000B0DC0201166B156B00013FD60201166B8F
:10074000156B186B176B010E1A6F0D0E196F010EDA
:100750001C6F080E1B6F000187DD040EF66E000E85
:10076000F76E000EF86E48DE010E0201166F0D0ED8
:10077000156F010E186F080E176F0001FBDD89DC85
:100780001E0EF66E000EF76E000EF86E35DE0201DC
:10079000156B176B166B010E196F0D0E186F010E8E
:1007A0001B6F080E1A6F00013CD6010E0201166F76
:1007B0000D0E156F010E186F080E176F0001DADDB0
:0607C00068DC8CD7030089
:020000040001F9
:06FFF800A0F405FFF8F77C
:00000001FF
;PIC18F67J60
;CRC=CBBD  CREATED="05-ώνθ-14 13:15"
