:060000008031692D0000B3
:0800080083018031200077081C
:10001000A0007808A1007908A2007A08A3002300B4
:1000200011082000A400230012082000A5002300CE
:1000300013082000A600230014082000A7008B1D31
:1000400023280B183C282008F7002108F800220874
:10005000F9002308FA002408230091002000250855
:100060002300920020002608230093002000270888
:100070002300940009002000803143280B0028341D
:100080000C340134063421008C1620008C1A6628AA
:100090002B08273C031C6628031D52282A080F3C06
:1000A000031C66282B08013C031C6128031D5C28E7
:1000B0002A08F33C031C61286430AA070030AB3DDA
:1000C0006528F430AA070130AB3D862821000C16C4
:1000D00020000C1A8628AB08031D72282A08643CED
:1000E000031886282B08003C03188228FF3A031DBA
:1000F0007D282A08F43C03188228F430AA02013033
:10010000AB3B86286430AA020030AB3B2C14FF3096
:10011000230091001108FA000F30920020002A08F5
:10012000F8002B08F9000B082200A4008B13E03024
:10013000230091059517151595162030850064301C
:1001400084002030F70015140000000011087A0226
:100150000319B12813088000840A14088000840A57
:10016000B72878088000840A79088000840A910AF8
:10017000F70BA3289103E030910515165530960032
:10018000AA3096009514000000001512203085005A
:10019000643084002030F70000089300840A0008CF
:1001A0009400840A55309600AA30960095140000F9
:1001B0000000910AF70BCC28910395125530960058
:1001C000AA309600951400000000151122002408A2
:1001D0008B04CF30270093050B108031200023289B
:1001E0008C16BE29F430723AA029E539F3346E003A
:1001F0000A102026E1397410D332F339E9376E0042
:100200000C10A029F430723AA029E539F3346E00BD
:100210008A163E26E1397410D332F339E9376E007D
:100220008C16BE29F430723AA029E539F3346E00F9
:100230000A102026E1397410D332F339E9376E0001
:100240000C29D026A012EC3A00000C29D026A012CE
:10025000EC3A00010C29D026A012EC3A00010C293E
:10026000D026A012EC3A00010C29D026A012EC3ABC
:1002700000010C29D026A012EC3A00010C29D0264E
:10028000A012EC3A00010C29D026A012EC3A000191
:100290000C29D026A012EC3A00010C29D026A0127D
:1002A000EC3A00010C29D026A012EC3A00010C29EE
:1002B000D026A012EC3A00010C29D026A012EC3A6C
:1002C00000010C29D026A012EC3A00010C29D026FE
:1002D000A012EC3A00010C29D026A012EC3A000141
:1002E0000C29D026A012EC3A00010C29D026A0122D
:1002F000EC3A00010C29D026A012EC3A00010C299E
:10030000D026A012EC3A00010C29D026A012EC3A1B
:1003100000010C29D026A012EC3A00010C29D026AD
:10032000A012EC3A00010C29D026A012EC3A0000F1
:10033000203085005930840000080319AD290530AC
:10034000F800F701F70BA229F80BA1292E30F700CE
:10035000F70BA829AB29800B9F2908002100301832
:10036000B52922008D13B729210022008D17210005
:100370008D13B018BF2922008E13C129210022003D
:100380008E1721008E133019C92922000E13CB2994
:10039000210022000E1721000E13B019D3292200CC
:1003A0008E11D529210022008E1521008E1100000A
:1003B0000D1222000D160230F700F70BDD290000A8
:1003C00021000D1222000D12200008002100B101B1
:1003D0000D1222000D16000021008D173110200093
:1003E0008D1FF52921003114200021008E17B11036
:1003F00020008E1FFE292100B114200021000E17BD
:10040000311120000E1F072A210031152000210084
:100410008E15B11120008E1D102A2100B11520006B
:1004200021000D1222000D1221003108F8002000D9
:10043000080021000D1322000D1321008D1222004F
:100440008D1600002000E62178082100B000200071
:10045000E62178082100AF00300EF700F030F705F4
:1004600077082F04F8007808AF00AF1B1E2AAD08EC
:1004700003193F2A0D1322000D17422A21000D13E4
:1004800022000D13000021008D1222008D120000A9
:1004900021000D1222000D1221002E0EAF000F3090
:1004A000AF052F08B0002000AE2121002E080F3923
:1004B000AF00B0002000AE21080021000D13220083
:1004C0000D1321008D1222008D1221000D12220029
:1004D0000D120F302100A90020009821AD012D0838
:1004E000023C031C7F2A03302100B0002000AE2113
:1004F00005302100A90020009821AD0A6F2A0230A2
:100500002100B0002000AE21AD012D08033C031CEA
:10051000962A2D083E20AE002100AD0120002E08B5
:100520002100AE0020001922AD0A852A8031902DCD
:10053000210028080C3A20000319A52A063A0319BD
:10054000B12A023A0319C92AD02A2100AD0101308B
:10055000AE002000192202302100A90020009821BD
:10056000D72A01302100A9000230AA002A0BB92A9B
:10057000BC2A4030AB00BD2AAB0101302902AB07D9
:100580002B088038AC00AD012C08AE0020001922E9
:10059000D72A2100AD011030AE0020001922D72A41
:1005A00001302100AD002808AE002000192208000B
:1005B0000C30AE004430AF004530B0005630B100D2
:1005C0004530B2004C30B3004F30B4005030B5006D
:1005D0004530B6004430B7002030B8004230B90092
:1005E0005930BA000A30BB005230BC004930BD005F
:1005F0004B30BE004F30BF005430C0004530C1000A
:100600004330C2004830C300C4010C30C500703014
:10061000C6007230C7006F30C8007230C900613048
:10062000CA006E30CB006430CC007930CD00383059
:10063000CE00CF004030D0000A30D1006730D20069
:100640006D30D3006130D4006930D5006C30D600F5
:100650002E30D7006330D8006F30D9006D30DA000B
:10066000DB010C30DC004430DD004F30DE00433075
:10067000DF005430E0004F30E1005230E200203023
:10068000E3004D30E4004F30E5005430E6004F30D9
:10069000E7005230E8005330E9000A30EA00433006
:1006A000EB004130EC005230ED002030EE005330D2
:1006B000EF0045302100A0005230A1005630A200CA
:1006C0004930A3004330A4004530A500A601200016
:1006D000AD012D08153C031C812B0E302D07840025
:1006E000203085000318850A00082100A700A80013
:1006F0002000982264302100A90020009821AD0A32
:10070000692B08302100A700FA30A90020009821A9
:100710002100A70B842B2000AD012D08153C031CE4
:10072000A52B25302D078400203085000318850A6D
:1007300000082100A700A800200098229630210080
:10074000A90020009821AD0A8D2B08302100A700B8
:10075000FA30A900200098212100A70BA82B200027
:10076000AD012D08193C031CC92B3C302D0784001A
:10077000203085000318850A00082100A700A80082
:100780002000982264302100A90020009821AD0AA1
:10079000B12B08302100A700FA30A90020009821D1
:1007A0002100A70BCC2B803120009A2D0B088B1336
:1007B00023009517151400000000891B8B171308E0
:1007C0007F390319222C2000AE00230011082000DD
:1007D000AF00230012082000B0002E082100A8005E
:1007E000200098222F0823009100200030082300C9
:1007F00092000B088B139517151400000000891B3D
:100800008B17130D140D7F390319222C2000AE0015
:10081000230011082000AF00230012082000B000C0
:100820002E082100A800200098222F082300910004
:100830002000300823009200910A0319920A200038
:10084000D62B230020000800F03023009100003058
:1008500092002000D623F83023009100003092004F
:100860002000D623AD012D0F362C9C2C21000C1618
:1008700020000C1A742C0A302100A90020009821B5
:1008800021000C1620000C1A742C0030230091005B
:10089000013092002000D62308302300910001305F
:1008A00092002000D623FF30230091000F309200E9
:1008B00095171514000000001408FA001308200012
:1008C000AA007A08AB002B08183C0318732CFF3AD7
:1008D000031D6E2C2A08643C0318732C21000E1291
:1008E00022000E1620009C2C21008C1620008C1A51
:1008F000952C0A302100A9002000982121008C1697
:1009000020008C1A952C10302300910001309200A9
:100910002000D623183023009100013092002000DF
:10092000D623AB016430AA009C2C14302100A9000E
:1009300020009821AD0A332C8031A02D0B088B1399
:1009400023009517151400000000891B8B1703184E
:10095000D12C13087F392000AE002300110820009D
:10096000AF00230012082000B0002E082100A800CC
:10097000200098222F082300910020003008230037
:1009800092000B088B139517151400000000891BAB
:100990008B172000AD0BCD2CCF2C2300D12CF12CAC
:1009A0002300130D140D7F392000AE002300110821
:1009B0002000AF00230012082000B0002E08210004
:1009C000A800200098222F08230091002000300862
:1009D00023009200910A0319920A03102000AD0B24
:1009E0009E2C08000508B7000408B6002E0EF0384B
:1009F000B200B207E23EB300323EB5002E080F3916
:100A0000B307B307B507E93EB400B407B4072D0E2A
:100A10000F39B407B507B40DB50DB509B50D2D08DF
:100A20000F39B507B20D0730B1000A30B507B4036E
:100A3000031C162DB407B303031C1A2DB307B2030E
:100A4000031C1E2DB207B103031C222D203085008C
:100A50001130840007303605361384070030853D99
:100A60000408153C031D382D0508203C03193617D2
:100A70000008F700031D442D361B442D361A552D52
:100A8000B619442D2030472DB61536123030F707F1
:100A90000508AE000408AD0077082100A80020007A
:100AA00098222E0885002D0884000131361F302D34
:100AB00008000330AE02031C682D203085000E3084
:100AC000840000080319682D662D0000800B652D39
:100AD00008007A302100990001302000A9002C3054
:100AE000A800AB016430AA002C1423008C018D01F6
:100AF0008E012200920191019401930121000E12B6
:100B000022000E16CF302700920506302000AD00DF
:100B1000FA302100A90020009821AD0B882D5D2A14
:100B200021008E1322008E1321008D1322008D13BD
:100B30002000D82A21000E1222000E122000242CA0
:100B400021000E1322000E178B153030270092045F
:100B5000CF309105C0308B04CF30930521008E112A
:100B600022008E1520002B080B3C031CF72D031DC3
:100B7000BD2D2A08B83C031CF72D2C1CC22D883132
:100B80000020803121008D1322008D1321008E134F
:100B900022008E1720002908AD00AD0AAD0303190D
:100BA000D72DFF302100A90020009821CE2D280844
:100BB0002100A9002000982121008E1322008E130D
:100BC00021008D1322008D1720002908AD00AD0AE9
:100BD000AD030319F12DFF302100A9002000982159
:100BE000E82D28082100A90020009821B32D2B080A
:100BF0000A3C0318342EFF3A031D022E2A08B83C83
:100C00000318342E2C1C072E88310020803121003F
:100C10008D1322008D1321008E1322008E172000C9
:100C20002908AD00AD0AAD0303191A2EFF30AE003E
:100C30005925132E2808AE00592521008E132200B5
:100C40008E1321008D1322008D1720002908AD007E
:100C5000AD0AAD030319302EFF30AE005925292E01
:0C0C60002808AE005925F72DB32D6300C5
:101000002A08F7002B08FA007A08031D0B28643021
:1010100077020319C3287A08031D1228C830770203
:101020000319DE2801307A02031D1A282C307702BA
:101030000319F82801307A02031D22289030770224
:101040000319122901307A02031D2A28F43077028D
:1010500003192C2903307A02031D3228E830770265
:101060000319462905307A02031D3A28DC3077023D
:101070000319602907307A02031D4228D030770215
:1010800003197A2909307A02031D4A28C4307702ED
:10109000031994290B307A02031D5228B8307702C5
:1010A0000319AE290D307A02031D5A28AC3077029D
:1010B0000319C8290F307A02031D6228A030770275
:1010C0000319E32911307A02031D6A28943077024C
:1010D0000319FE2913307A02031D72288830770223
:1010E0000319192A15307A02031D7A287C307702F9
:1010F0000319342A17307A02031D822870307702D0
:1011000003194F2A19307A02031D8A2864307702A6
:1011100003196A2A1B307A02031D9228583077027D
:1011200003198A2A1D307A02031D9A284C3077024F
:101130000319AA2A1F307A02031DA2284030770221
:101140000319C52A21307A02031DAA2834307702F8
:101150000319E02A23307A02031DB22828307702CF
:101160000319FB2A25307A02031DBA281C307702A6
:101170000319162B27307A02031DC228103077027C
:101180000319312B4B2B20302300910001309200AA
:10119000031005302000AD0080319E2488311030CE
:1011A00084002B08AE002A08AD008031F22488317B
:1011B0000130A9002C30A8002C104B2B2530230027
:1011C000910001309200031005302000AD00803105
:1011D0009E248831103084002B08AE002A08AD0010
:1011E0008031F2248831A9019630A8002C104B2BB5
:1011F0002A302300910001309200031005302000B6
:10120000AD0080319E248831103084002B08AE0060
:101210002A08AD008031F2248831A9016430A80089
:101220002C104B2B2F302300910001309200031023
:1012300005302000AD0080319E24883110308400BC
:101240002B08AE002A08AD008031F2248831A901B4
:101250004B30A8002C104B2B343023009100013070
:101260009200031005302000AD0080319E248831AB
:10127000103084002B08AE002A08AD008031F22423
:101280008831A9013C30A8002C104B2B39302300A9
:10129000910001309200031005302000AD00803134
:1012A0009E248831103084002B08AE002A08AD003F
:1012B0008031F2248831A9011E30A8002C104B2B5C
:1012C0003E302300910001309200031005302000D1
:1012D000AD0080319E248831103084002B08AE0090
:1012E0002A08AD008031F2248831A9011430A80009
:1012F0002C104B2B4330230091000130920003103F
:1013000005302000AD0080319E24883110308400EB
:101310002B08AE002A08AD008031F2248831A901E3
:101320000F30A8002C104B2B4830230091000130C7
:101330009200031005302000AD0080319E248831DA
:10134000103084002B08AE002A08AD008031F22452
:101350008831A9010C30A8002C104B2B4D302300F4
:10136000910001309200031005302000AD00803163
:101370009E248831103084002B08AE002A08AD006E
:101380008031F2248831A9010A30A8002C104B2B9F
:1013900052302300910001309200031005302000EC
:1013A000AD0080319E248831103084002B08AE00BF
:1013B0002A08AD008031F22488312130A9007A302A
:1013C000A8002C104B2B57302300910001309200C5
:1013D000031005302000AD0080319E24883110308C
:1013E00084002B08AE002A08AD008031F224883139
:1013F0001D30A9004C30A8002C104B2B5C30230072
:10140000910001309200031005302000AD008031C2
:101410009E248831103084002B08AE002A08AD00CD
:101420008031F22488311A30A9000A30A8002C102B
:101430004B2B6130230091000130920003100530E6
:101440002000AD0080319E248831103084002B08AC
:10145000AE002A08AD008031F22488311730A9008F
:101460007030A8002C104B2B663023009100013007
:101470009200031005302000AD0080319E24883199
:10148000103084002B08AE002A08AD008031F22411
:1014900088311530A9004E30A8002C104B2B6B3032
:1014A0002300910001309200031005302000AD00B0
:1014B00080319E248831103084002B08AE002A0829
:1014C000AD008031F22488311330A9008830A800A3
:1014D0002C104B2B70302300910001309200031030
:1014E00005302000AD0080319E248831103084000A
:1014F0002B08AE002A08AD008031F224883112306A
:10150000A9000730A80021000E1222000E122000B0
:101510002C104B2B753023009100013092000310EA
:1015200005302000AD0080319E24883110308400C9
:101530002B08AE002A08AD008031F224883110302B
:10154000A900BD30A80021000E1222000E162000B6
:101550002C104B2B7A3023009100013092000310A5
:1015600005302000AD0080319E2488311030840089
:101570002B08AE002A08AD008031F22488310F30EC
:10158000A900A030A8002C104B2B7F302300910025
:1015900001309200031005302000AD0080319E2400
:1015A0008831103084002B08AE002A08AD0080314D
:1015B000F22488310E30A900A630A8002C104B2B45
:1015C0008430230091000130920003100530200088
:1015D000AD0080319E248831103084002B08AE008D
:1015E0002A08AD008031F22488310D30A900C930BD
:1015F000A8002C104B2B8930230091000130920061
:10160000031005302000AD0080319E248831103059
:1016100084002B08AE002A08AD008031F224883106
:101620000D30A9000530A8002C104B2B8E30230064
:10163000910001309200031005302000AD00803190
:101640009E248831103084002B08AE002A08AD009B
:101650008031F22488310C30A9005530A8002C10BC
:101660004B2B933023009100013092000310053082
:101670002000AD0080319E248831103084002B087A
:10168000AE002A08AD008031F22488310B30A90069
:08169000B830A8002C1008007E
:020000040001F9
:04000E00843FFF1F0D
:00000001FF
;PIC16F1508
;CRC=4AF2  CREATED="30-септ-14 20:33"
