:1000000053EF01F054686520617272617920697361
:1000100020746F6F206C6F6E672C2077696C6C207A
:100020006F7665726C6170207468652062756666B3
:100030006572210A0000546865206172726179203E
:10004000697320746F6F206C6F6E672C2077696CFA
:100050006C206F7665726C617020746865206275C3
:1000600066666572210A0000EA6A140EE96EEF50B6
:100070000EE00D0E016E006A002EFED7012EFBD79A
:10008000810E006E002EFED700D0EF2EF2D71200A8
:10009000140E146EE9DF400E9B6E020ED36ED35029
:1000A00093988A88979E8E8EC69A949A94889496EE
:1000B000220EC66E400EC76E66EF01F00900F552C3
:1000C00011E0F6CF1CF0F7CF1DF0F8CF1EF0F55081
:1000D0009EA8FED7AD6E1CC0F6FF1DC0F7FF1EC068
:1000E000F8FFECD71200185014241C6E195015207C
:1000F0001D6E00080CE2FF0A03E11C50080807E22D
:10010000360EF66E000EF76E000EF86ED7DF979E75
:100110008E9EC950840EC96EC730FEE3C950C96AAD
:10012000C730FEE31C6AC9501CC0C9FFC730FEE3DC
:10013000C95014C0C9FFC730FEE31B6A1A6A1B50BE
:10014000195C15E303E118501A5C11E216501A24E9
:10015000E96E17501B20EA6EEFCF1CF0C9501CC08F
:10016000C9FFC730FEE31A2AD8B41B2AE8D7979EE6
:100170008E8E8BEF01F0185014241C6E1950152030
:100180001D6E00080CE2FF0A03E11C50080807E29C
:10019000040EF66E000EF76E000EF86E8FDF979E5F
:1001A0008E9EC950D40EC96EC730FEE3C950C96ACD
:1001B000C730FEE31550036A1C6EC9501CC0C9FF4E
:1001C000C730FEE3C95014C0C9FFC730FEE3C950B1
:1001D000C96AC730FEE31B6A1A6A1B50195C14E334
:1001E00003E118501A5C10E216501A24E96E1750F9
:1001F0001B20EA6EC950C96AC730FEE3C9CFEFFFC2
:100200001A2AD8B41B2AE9D7979E8E8E96EF01F052
:100210001850016A175C03E217C000F00CD0006AA6
:10022000080E196E173600361850005CD8B0006EF4
:100230000136192EF7D71200015015C017F0640EC1
:10024000186EE6DF00C015F00150300E07E116A26F
:100250000DD016B60BD016B8200E03D016961698F1
:100260001680012601509EA8FED7AD6E15C017F06E
:100270000A0E186ECDDF00C015F00150300E06E1F9
:1002800016B609D016A007D016B8200E01260150C8
:100290009EA8FED7AD6E300E152615509EA8FED72F
:1002A000AD6EAAEF01F0F86AD09E046A7E863C0E1D
:1002B000AF6E040E7F6EA60EAC6E900EAB6EC1508C
:1002C000C00BC16E070EB46E056AE2D6076A066AF5
:1002D0000750010811E303E1065008080DE3080E7A
:1002E0000624E96E000E0720EA6E050E0624EF6E66
:1002F000062AD8B4072AECD7938681B6FDD7938611
:1003000081A6FDD7156A146A176A080E166E196A57
:10031000020E186EE8D60A0E146EA6DE156A0A0ED4
:10032000146E176A166E196A186E25D7076A066A60
:10033000075218E10650090815E30A0E0624E96E73
:10034000000E0720EA6EEFCF14F014C015F01B0E5C
:10035000166E72D7200E9EA8FED7AD6E062AD8B4B0
:10036000072AE6D7938681B6FDD7938681A6FDD767
:04037000C9D70300E6
:020000040001F9
:06FFF800A0F405FFF8F77C
:00000001FF
;PIC18F67J60
;CRC=929E  CREATED="03-ώνθ-14 14:13"
