:04000000ACEF03F06E
:08000800046ED8CF05F0E0CF33
:1000100006F00001E9CF0CF0EACF07F0E1CF08F0DD
:10002000E2CF09F0D9CF0AF0DACF0BF0F3CF12F01C
:10003000F4CF13F0FACF14F000C00EF001C00FF0AF
:1000400002C010F003C011F0F2AA2AEF00F0F2B4DF
:1000500058EF00F00EC000F00FC001F010C002F029
:1000600011C003F00CC0E9FF07C0EAFF078E08C00B
:10007000E1FF09C0E2FF0AC0D9FF0BC0DAFF12C0DE
:10008000F3FF13C0F4FF14C0FAFF045006C0E0FFF2
:1000900005C0D8FF1000F2A409D0010E6A26D8B01E
:1000A0006B2AD8B46C2AD8B46D2AF29459EF00F0B8
:1000B000F2D72AEF00F00A2052696B6F2065207397
:1000C0007570657220202000506A020E516E030E7A
:1000D000526E040E536E050E546E070E556E14EFDD
:1000E00004F08C929E96C651A009C96E9EA6FED7BA
:1000F0009E96C9CFC8F0C7C0C9FF9EA6FED79E96E0
:10010000C9CFC8F08C821200EA6ABA0EE96EEF50CD
:100110000EE00C0E016E006A002EFED7012EFBD7FA
:10012000F70E006E002EFED700D0EF2EF2D7120091
:100130001E0EC66F200EC76FD4DF010EBA6FE4DF4C
:100140008C929E96C9689EA6FED79E96C9CFB9F09E
:100150008C82010EBA6FD8DF6EEF01F08C929E9602
:10016000C6C0C9FF9EA6FED79E96C9CFC7F0C96A72
:100170009EA6FED79E96C9CFC7F08C82C7C001F05D
:1001800012008C929E96C6514009C96E9EA6FED75B
:100190009E96C9CFC8F0C7C0C9FF9EA6FED79E963F
:1001A000C9CFC8F08C8212008C929E967A0EC96ECE
:1001B0009EA6FED79E96C9CFBFF0BEC0C9FF9EA621
:1001C000FED79E96C9CFBFF08C8212008C929E966D
:1001D000C6518009C96E9EA6FED79E96C9CFC8F0AB
:1001E000C7C0C9FF9EA6FED79E96C9CFC8F08C8215
:1001F00012001F0EC66F030EC76F73DFBF6BBC0EFE
:10020000BE6F010EBE25E96E000EBF21EA6EEFCF74
:10021000C0F01F0EC66FC0C0C7F0D8DF12008C92AE
:100220009E96BCC0C9FF9EA6FED79E96C9CFBDF0C4
:10023000C96A9EA6FED79E96C9CFBDF0C96A9EA682
:10024000FED79E96C9CFBDF08C82BDC001F058EF9D
:1002500001F0020EBD6F140EBC6FCBDF140EC66F23
:10026000B9C0C7F08EDFBD6BBA0EBC6FE96EBDC002
:10027000EAFFEFCFBEF0160EC66FBEC0C7F081DF3B
:10028000BD6BBA0EBC6F010EBC25E96E000EBD2120
:10029000EA6EEFCFBEF0170EC66FBEC0C7F071DFBB
:1002A000030EBD6F0A0EBC6FA4DF0A0EBC6FB7D77A
:1002B00001C0BCF0000E01B0010E000AF6E1BD6BFA
:1002C000BC6B97DF12008C8295929496949A9488D6
:1002D0009E96200EC66EC78CC79E2AD71D0EC66F6F
:1002E0003DDF01C0B8F0B8B7F8D7B851FF0A010B2D
:1002F000F4E16182756A746A080EC66FC76B41DFEC
:10030000090EC66FC76B3DDF0C0EC66F090EC76FB7
:1003100038DF0D0EC66F1A0EC76F33DF0A0EC66FB9
:10032000090EC76F2EDF0B0EC66F1A0EC76F29DFBF
:10033000040EC66F0A0EC76F24DF050EC66F1A0EB5
:10034000C76F1FDF020EC66F0A0EC76F1ADF030EDC
:10035000C66F1A0EC76F15DFBE6B26DF020EBD6FAC
:10036000BC6B47DFC66B0D0EC76F0BDF020EC66F8F
:10037000320EC76F06DF040EC66F120EC76F01DFA5
:10038000030EC66F400EC76FFCDE090EC66F3F0E30
:10039000C76FF7DE060EC66F120EC76FF2DE070ECE
:1003A000C66F0C0EC76FEDDE0A0EC66FEE0EC76F7E
:1003B000E8DE0B0EC66F050EC76FE3DE030EBD6FE2
:1003C000040EBC6F16DF040EC66F50C0C7F0D9DE36
:1003D000050EC66F51C0C7F0D4DE020EC66F52C004
:1003E000C7F0CFDE030EC66F53C0C7F0CADEC66BC0
:1003F00054C0C7F0C6DE010EC66F55C0C7F0C1DEDF
:10040000150EC66FC76BBDDE120EC66FA7DE01C02C
:1004100078F0100EB96F010EBB6FBA6B1ADF140EB5
:10042000B96F340EBB6F720EBA6F13DFB96BBB6B53
:10043000BA6B0FDFBD6BBC6BDCDE1F0EC66F040E2C
:10044000C76FC4DE21EF04F01F0EC66F87DE01C048
:10045000B8F0000E01B6010E000A02E0000E01D055
:10046000010E016E28EF04F08C929E967A0EC96EF2
:100470009EA6FED79E96C9CFC3F0C151C21113E00C
:10048000BFC0E9FFC0C0EAFFEFCFC9FFBF2BD8B4A0
:10049000C02BC151D8B4C207C1079EA6FED79E96F5
:1004A000C9CFC3F0EAD78C821200020EC66F0B0EC2
:1004B000C76F67DE030EC66F1A0EC76F62DE180EB7
:1004C000BB271A0EBC23BE6BBB0EBD6FE96EBEC050
:1004D000EAFFEFCFBFF0060EC66FBFC0C7F051DE18
:1004E000BE6BBB0EBD6F010EBD25E96E000EBE21B9
:1004F000EA6EEFCFBFF0070EC66FBFC0C7F041DE98
:10050000B9C0C0F0B8C0BFF0C26B060EC16FACDF9F
:10051000BE6B500EBD6FBEC0C0F0BF6FC26B060E8B
:10052000C16FA2DF080EBE6F3FDEBA5302E1000EBC
:1005300001D0060EBD6FBE6F37DE32EF04F08C9235
:100540009E963A0EC96ECD6BCC6BC851C91104E0B2
:10055000C851D8B4C907C8079EA6FED79E96C9CF72
:10056000CEF0CD51CB5D1EE303E1CA51CC5D1AE262
:10057000C96ACC2BD8B4CD2BC851C9110DE0C82BFA
:10058000D8B4C92B9EA6FED79E96C8C0E9FFC9C0A5
:10059000EAFFC9CFEFFF05D09EA6FED79E96C9CF32
:1005A000CEF0DFD78C82CCC001F0CDC002F01200BB
:1005B0001F0EC66F800EC76F09DE1F0EC66F800E3E
:1005C000C76F8FDD1C0EC66F0A0EC76F8ADD1F0E48
:1005D000C66F080EC76FFADD7850050804E0785042
:1005E0000608D8A4A5D0B96BB86B1C0EC66FB6DDD3
:1005F0000150C66F0A0B0AE1B82BD8B4B92BB95118
:10060000030804E3F2E1B851E708EFE21C0EC66FFD
:10061000A5DD01C0C6F0000E01B2010E000A0AE11C
:10062000B9510208D8B084D0FF0A04E1B851E708F4
:10063000D8B07ED01F0EC66F080EC76F52DDC66BD6
:100640008DDD01C0BAF0010EC66F88DD01C0BBF0C0
:10065000060EC66F83DD01C0BCF0070EC66F7EDDDF
:1006600001C0BDF0BC2BD8B4BD2BC66BBCC0C7F05D
:1006700088DD010EC66FBDC0C7F083DDC76BBE0E3F
:10068000C66FC7C0C9F0C86FCB6B070ECA6F57DF04
:10069000C56BC5510F0843E31C0EC66F5FDD01C07B
:1006A000C6F0000E01B2010E000A36E0C1AB34D034
:1006B0001F0EC66F800EC76F89DD1F0EC66F800EBE
:1006C000C76F0FDD1C0EC66F0A0EC76F0ADD1F0E47
:1006D000C66F080EC76F7ADD1C0EC66F3FDD015076
:1006E000C66F0A0BF9E01F0EC66F080EC76FF9DC64
:1006F000C66BBCC0C7F045DD010EC66FBDC0C7F0FC
:1007000040DDC76BBE0EC66FC7C0C9F0C86FCB6BEC
:10071000070ECA6F14DF01D002D0C52BBAD7C66B43
:10072000BAC0C7F02EDD010EC66FBBC0C7F029DD11
:1007300041EF04F00900F5520DE0F6CFB8F0F7CF25
:10074000B9F0F5509EA8FED7AD6EB8C0F6FFB9C09F
:10075000F7FFF0D748EF04F0F86AD09E078E7E0EC0
:10076000006E100E016E020EE96E000EEA6EEE6A69
:10077000002EFDD7012EFBD7166AB886110EAF6E7C
:10078000040EB06EA60EAC6E900EAB6E6190410E74
:10079000656EFE0E646E9F0E636E9E0E626E6D6AD7
:1007A0006C6A6B6A6A6A7A6A796A6194B16BB06BD7
:1007B000C150C00B0F09C16E070EB46E13D00400F8
:1007C000904500002004C000188064112A9D0A0B87
:1007D0000C0D0A0B0C0E04000401000C00000102B9
:1007E00003040000000EF86E070EF76EBE0EF66EE4
:1007F0000900F550006E000A13E00900F550016E83
:10080000E8BE05D00F0BEA6E0900F5CFE9FF01BC89
:10081000090001AC0900F5CFEEFF004EE9D7F9D78A
:10082000F86A000E936E50D4AB0E506EAC0E516E43
:10083000AD0E526EAE0E536EAF0E546EBF0E556EB1
:1008400042D5B269B369B469B569B669B769FCD50F
:10085000015225E0B96BB20EB86FBA6BBC6B200EBB
:10086000BB6F23D6C06B900EBF6FC26B140EC16FEF
:10087000FBDDC06BA40EBF6FC26B0C0EC16FF4DD4D
:1008800097D693988A78B60EF66E000EF76E52D70A
:10089000040EB86FFA0EBA6F37DCB82FFBD7D7D774
:0208A000030053
:020000040030CA
:0E00000000C61E1E008781000FC00FE00F40DB
:00000001FF
;PIC18F4620
;CRC=AC0B  CREATED="03-май-14 15:12"
